{
	"contracts/Article.sol": {
		"Article": {
			"abi": [
				{
					"anonymous": false,
					"inputs": [
						{
							"indexed": false,
							"internalType": "uint256",
							"name": "id",
							"type": "uint256"
						},
						{
							"indexed": false,
							"internalType": "string",
							"name": "title",
							"type": "string"
						},
						{
							"indexed": false,
							"internalType": "string",
							"name": "url",
							"type": "string"
						},
						{
							"indexed": false,
							"internalType": "string",
							"name": "authorName",
							"type": "string"
						},
						{
							"indexed": false,
							"internalType": "address",
							"name": "authorAddress",
							"type": "address"
						},
						{
							"indexed": false,
							"internalType": "uint256[]",
							"name": "citations",
							"type": "uint256[]"
						},
						{
							"indexed": false,
							"internalType": "uint256[]",
							"name": "weights",
							"type": "uint256[]"
						}
					],
					"name": "ArticleCreated",
					"type": "event"
				},
				{
					"inputs": [
						{
							"internalType": "uint256",
							"name": "",
							"type": "uint256"
						}
					],
					"name": "articles",
					"outputs": [
						{
							"internalType": "uint256",
							"name": "id",
							"type": "uint256"
						},
						{
							"internalType": "string",
							"name": "title",
							"type": "string"
						},
						{
							"internalType": "string",
							"name": "url",
							"type": "string"
						},
						{
							"internalType": "string",
							"name": "authorName",
							"type": "string"
						},
						{
							"internalType": "address",
							"name": "authorAddress",
							"type": "address"
						}
					],
					"stateMutability": "view",
					"type": "function"
				},
				{
					"inputs": [
						{
							"internalType": "string",
							"name": "_title",
							"type": "string"
						},
						{
							"internalType": "string",
							"name": "_url",
							"type": "string"
						},
						{
							"internalType": "string",
							"name": "_authorName",
							"type": "string"
						},
						{
							"internalType": "uint256[]",
							"name": "_citations",
							"type": "uint256[]"
						},
						{
							"internalType": "uint256[]",
							"name": "_weights",
							"type": "uint256[]"
						}
					],
					"name": "createArticle",
					"outputs": [],
					"stateMutability": "nonpayable",
					"type": "function"
				},
				{
					"inputs": [
						{
							"internalType": "uint256",
							"name": "_id",
							"type": "uint256"
						}
					],
					"name": "getArticle",
					"outputs": [
						{
							"internalType": "uint256",
							"name": "id",
							"type": "uint256"
						},
						{
							"internalType": "string",
							"name": "title",
							"type": "string"
						},
						{
							"internalType": "string",
							"name": "url",
							"type": "string"
						},
						{
							"internalType": "string",
							"name": "authorName",
							"type": "string"
						},
						{
							"internalType": "address",
							"name": "authorAddress",
							"type": "address"
						},
						{
							"internalType": "uint256[]",
							"name": "citations",
							"type": "uint256[]"
						},
						{
							"internalType": "uint256[]",
							"name": "weights",
							"type": "uint256[]"
						}
					],
					"stateMutability": "view",
					"type": "function"
				}
			],
			"devdoc": {
				"kind": "dev",
				"methods": {},
				"version": 1
			},
			"evm": {
				"assembly": "    /* \"contracts/Article.sol\":60:3719  contract Article {... */\n  mstore(0x40, 0x80)\n  callvalue\n  dup1\n  iszero\n  tag_1\n  jumpi\n  0x00\n  dup1\n  revert\ntag_1:\n  pop\n  dataSize(sub_0)\n  dup1\n  dataOffset(sub_0)\n  0x00\n  codecopy\n  0x00\n  return\nstop\n\nsub_0: assembly {\n        /* \"contracts/Article.sol\":60:3719  contract Article {... */\n      mstore(0x40, 0x80)\n      callvalue\n      dup1\n      iszero\n      tag_1\n      jumpi\n      0x00\n      dup1\n      revert\n    tag_1:\n      pop\n      jumpi(tag_2, lt(calldatasize, 0x04))\n      shr(0xe0, calldataload(0x00))\n      dup1\n      0xbd85d867\n      eq\n      tag_3\n      jumpi\n      dup1\n      0xc8f3c5b5\n      eq\n      tag_4\n      jumpi\n      dup1\n      0xedcfafe6\n      eq\n      tag_5\n      jumpi\n    tag_2:\n      0x00\n      dup1\n      revert\n        /* \"contracts/Article.sol\":2763:3716  function getArticle(... */\n    tag_3:\n      tag_6\n      0x04\n      dup1\n      calldatasize\n      sub\n      dup2\n      add\n      swap1\n      tag_7\n      swap2\n      swap1\n      tag_8\n      jump\t// in\n    tag_7:\n      tag_9\n      jump\t// in\n    tag_6:\n      mload(0x40)\n      tag_10\n      swap8\n      swap7\n      swap6\n      swap5\n      swap4\n      swap3\n      swap2\n      swap1\n      tag_11\n      jump\t// in\n    tag_10:\n      mload(0x40)\n      dup1\n      swap2\n      sub\n      swap1\n      return\n        /* \"contracts/Article.sol\":559:2755  function createArticle(... */\n    tag_4:\n      tag_12\n      0x04\n      dup1\n      calldatasize\n      sub\n      dup2\n      add\n      swap1\n      tag_13\n      swap2\n      swap1\n      tag_14\n      jump\t// in\n    tag_13:\n      tag_15\n      jump\t// in\n    tag_12:\n      stop\n        /* \"contracts/Article.sol\":302:331  ArticleData[] public articles */\n    tag_5:\n      tag_16\n      0x04\n      dup1\n      calldatasize\n      sub\n      dup2\n      add\n      swap1\n      tag_17\n      swap2\n      swap1\n      tag_8\n      jump\t// in\n    tag_17:\n      tag_18\n      jump\t// in\n    tag_16:\n      mload(0x40)\n      tag_19\n      swap6\n      swap5\n      swap4\n      swap3\n      swap2\n      swap1\n      tag_20\n      jump\t// in\n    tag_19:\n      mload(0x40)\n      dup1\n      swap2\n      sub\n      swap1\n      return\n        /* \"contracts/Article.sol\":2763:3716  function getArticle(... */\n    tag_9:\n        /* \"contracts/Article.sol\":2874:2884  uint256 id */\n      0x00\n        /* \"contracts/Article.sol\":2899:2918  string memory title */\n      0x60\n        /* \"contracts/Article.sol\":2933:2950  string memory url */\n      dup1\n        /* \"contracts/Article.sol\":2965:2989  string memory authorName */\n      0x60\n        /* \"contracts/Article.sol\":3004:3025  address authorAddress */\n      0x00\n        /* \"contracts/Article.sol\":3040:3066  uint256[] memory citations */\n      0x60\n        /* \"contracts/Article.sol\":3081:3105  uint256[] memory weights */\n      dup1\n        /* \"contracts/Article.sol\":3147:3155  articles */\n      0x00\n        /* \"contracts/Article.sol\":3147:3162  articles.length */\n      dup1\n      sload\n      swap1\n      pop\n        /* \"contracts/Article.sol\":3141:3144  _id */\n      dup9\n        /* \"contracts/Article.sol\":3141:3162  _id < articles.length */\n      lt\n        /* \"contracts/Article.sol\":3133:3185  require(_id < articles.length, \"Invalid article ID\") */\n      tag_22\n      jumpi\n      mload(0x40)\n      0x08c379a000000000000000000000000000000000000000000000000000000000\n      dup2\n      mstore\n      0x04\n      add\n      tag_23\n      swap1\n      tag_24\n      jump\t// in\n    tag_23:\n      mload(0x40)\n      dup1\n      swap2\n      sub\n      swap1\n      revert\n    tag_22:\n        /* \"contracts/Article.sol\":3196:3222  ArticleData memory article */\n      0x00\n        /* \"contracts/Article.sol\":3225:3233  articles */\n      dup1\n        /* \"contracts/Article.sol\":3234:3237  _id */\n      dup10\n        /* \"contracts/Article.sol\":3225:3238  articles[_id] */\n      dup2\n      sload\n      dup2\n      lt\n      tag_25\n      jumpi\n      tag_26\n      tag_27\n      jump\t// in\n    tag_26:\n    tag_25:\n      swap1\n      0x00\n      mstore\n      keccak256(0x00, 0x20)\n      swap1\n      0x07\n      mul\n      add\n        /* \"contracts/Article.sol\":3196:3238  ArticleData memory article = articles[_id] */\n      mload(0x40)\n      dup1\n      0xe0\n      add\n      0x40\n      mstore\n      swap1\n      dup2\n      0x00\n      dup3\n      add\n      sload\n      dup2\n      mstore\n      0x20\n      add\n      0x01\n      dup3\n      add\n      dup1\n      sload\n      tag_29\n      swap1\n      tag_30\n      jump\t// in\n    tag_29:\n      dup1\n      0x1f\n      add\n      0x20\n      dup1\n      swap2\n      div\n      mul\n      0x20\n      add\n      mload(0x40)\n      swap1\n      dup2\n      add\n      0x40\n      mstore\n      dup1\n      swap3\n      swap2\n      swap1\n      dup2\n      dup2\n      mstore\n      0x20\n      add\n      dup3\n      dup1\n      sload\n      tag_31\n      swap1\n      tag_30\n      jump\t// in\n    tag_31:\n      dup1\n      iszero\n      tag_32\n      jumpi\n      dup1\n      0x1f\n      lt\n      tag_33\n      jumpi\n      0x0100\n      dup1\n      dup4\n      sload\n      div\n      mul\n      dup4\n      mstore\n      swap2\n      0x20\n      add\n      swap2\n      jump(tag_32)\n    tag_33:\n      dup3\n      add\n      swap2\n      swap1\n      0x00\n      mstore\n      keccak256(0x00, 0x20)\n      swap1\n    tag_34:\n      dup2\n      sload\n      dup2\n      mstore\n      swap1\n      0x01\n      add\n      swap1\n      0x20\n      add\n      dup1\n      dup4\n      gt\n      tag_34\n      jumpi\n      dup3\n      swap1\n      sub\n      0x1f\n      and\n      dup3\n      add\n      swap2\n    tag_32:\n      pop\n      pop\n      pop\n      pop\n      pop\n      dup2\n      mstore\n      0x20\n      add\n      0x02\n      dup3\n      add\n      dup1\n      sload\n      tag_35\n      swap1\n      tag_30\n      jump\t// in\n    tag_35:\n      dup1\n      0x1f\n      add\n      0x20\n      dup1\n      swap2\n      div\n      mul\n      0x20\n      add\n      mload(0x40)\n      swap1\n      dup2\n      add\n      0x40\n      mstore\n      dup1\n      swap3\n      swap2\n      swap1\n      dup2\n      dup2\n      mstore\n      0x20\n      add\n      dup3\n      dup1\n      sload\n      tag_36\n      swap1\n      tag_30\n      jump\t// in\n    tag_36:\n      dup1\n      iszero\n      tag_37\n      jumpi\n      dup1\n      0x1f\n      lt\n      tag_38\n      jumpi\n      0x0100\n      dup1\n      dup4\n      sload\n      div\n      mul\n      dup4\n      mstore\n      swap2\n      0x20\n      add\n      swap2\n      jump(tag_37)\n    tag_38:\n      dup3\n      add\n      swap2\n      swap1\n      0x00\n      mstore\n      keccak256(0x00, 0x20)\n      swap1\n    tag_39:\n      dup2\n      sload\n      dup2\n      mstore\n      swap1\n      0x01\n      add\n      swap1\n      0x20\n      add\n      dup1\n      dup4\n      gt\n      tag_39\n      jumpi\n      dup3\n      swap1\n      sub\n      0x1f\n      and\n      dup3\n      add\n      swap2\n    tag_37:\n      pop\n      pop\n      pop\n      pop\n      pop\n      dup2\n      mstore\n      0x20\n      add\n      0x03\n      dup3\n      add\n      dup1\n      sload\n      tag_40\n      swap1\n      tag_30\n      jump\t// in\n    tag_40:\n      dup1\n      0x1f\n      add\n      0x20\n      dup1\n      swap2\n      div\n      mul\n      0x20\n      add\n      mload(0x40)\n      swap1\n      dup2\n      add\n      0x40\n      mstore\n      dup1\n      swap3\n      swap2\n      swap1\n      dup2\n      dup2\n      mstore\n      0x20\n      add\n      dup3\n      dup1\n      sload\n      tag_41\n      swap1\n      tag_30\n      jump\t// in\n    tag_41:\n      dup1\n      iszero\n      tag_42\n      jumpi\n      dup1\n      0x1f\n      lt\n      tag_43\n      jumpi\n      0x0100\n      dup1\n      dup4\n      sload\n      div\n      mul\n      dup4\n      mstore\n      swap2\n      0x20\n      add\n      swap2\n      jump(tag_42)\n    tag_43:\n      dup3\n      add\n      swap2\n      swap1\n      0x00\n      mstore\n      keccak256(0x00, 0x20)\n      swap1\n    tag_44:\n      dup2\n      sload\n      dup2\n      mstore\n      swap1\n      0x01\n      add\n      swap1\n      0x20\n      add\n      dup1\n      dup4\n      gt\n      tag_44\n      jumpi\n      dup3\n      swap1\n      sub\n      0x1f\n      and\n      dup3\n      add\n      swap2\n    tag_42:\n      pop\n      pop\n      pop\n      pop\n      pop\n      dup2\n      mstore\n      0x20\n      add\n      0x04\n      dup3\n      add\n      0x00\n      swap1\n      sload\n      swap1\n      0x0100\n      exp\n      swap1\n      div\n      0xffffffffffffffffffffffffffffffffffffffff\n      and\n      0xffffffffffffffffffffffffffffffffffffffff\n      and\n      0xffffffffffffffffffffffffffffffffffffffff\n      and\n      dup2\n      mstore\n      0x20\n      add\n      0x05\n      dup3\n      add\n      dup1\n      sload\n      dup1\n      0x20\n      mul\n      0x20\n      add\n      mload(0x40)\n      swap1\n      dup2\n      add\n      0x40\n      mstore\n      dup1\n      swap3\n      swap2\n      swap1\n      dup2\n      dup2\n      mstore\n      0x20\n      add\n      dup3\n      dup1\n      sload\n      dup1\n      iszero\n      tag_45\n      jumpi\n      0x20\n      mul\n      dup3\n      add\n      swap2\n      swap1\n      0x00\n      mstore\n      keccak256(0x00, 0x20)\n      swap1\n    tag_46:\n      dup2\n      sload\n      dup2\n      mstore\n      0x20\n      add\n      swap1\n      0x01\n      add\n      swap1\n      dup1\n      dup4\n      gt\n      tag_46\n      jumpi\n    tag_45:\n      pop\n      pop\n      pop\n      pop\n      pop\n      dup2\n      mstore\n      0x20\n      add\n      0x06\n      dup3\n      add\n      dup1\n      sload\n      dup1\n      0x20\n      mul\n      0x20\n      add\n      mload(0x40)\n      swap1\n      dup2\n      add\n      0x40\n      mstore\n      dup1\n      swap3\n      swap2\n      swap1\n      dup2\n      dup2\n      mstore\n      0x20\n      add\n      dup3\n      dup1\n      sload\n      dup1\n      iszero\n      tag_47\n      jumpi\n      0x20\n      mul\n      dup3\n      add\n      swap2\n      swap1\n      0x00\n      mstore\n      keccak256(0x00, 0x20)\n      swap1\n    tag_48:\n      dup2\n      sload\n      dup2\n      mstore\n      0x20\n      add\n      swap1\n      0x01\n      add\n      swap1\n      dup1\n      dup4\n      gt\n      tag_48\n      jumpi\n    tag_47:\n      pop\n      pop\n      pop\n      pop\n      pop\n      dup2\n      mstore\n      pop\n      pop\n      swap1\n      pop\n        /* \"contracts/Article.sol\":3275:3282  article */\n      dup1\n        /* \"contracts/Article.sol\":3275:3292  article.citations */\n      0xa0\n      add\n      mload\n        /* \"contracts/Article.sol\":3275:3299  article.citations.length */\n      mload\n        /* \"contracts/Article.sol\":3261:3300  new uint256[](article.citations.length) */\n      0xffffffffffffffff\n      dup2\n      gt\n      iszero\n      tag_49\n      jumpi\n      tag_50\n      tag_51\n      jump\t// in\n    tag_50:\n    tag_49:\n      mload(0x40)\n      swap1\n      dup1\n      dup3\n      mstore\n      dup1\n      0x20\n      mul\n      0x20\n      add\n      dup3\n      add\n      0x40\n      mstore\n      dup1\n      iszero\n      tag_52\n      jumpi\n      dup2\n      0x20\n      add\n      0x20\n      dup3\n      mul\n      dup1\n      calldatasize\n      dup4\n      calldatacopy\n      dup1\n      dup3\n      add\n      swap2\n      pop\n      pop\n      swap1\n      pop\n    tag_52:\n      pop\n        /* \"contracts/Article.sol\":3249:3300  citations = new uint256[](article.citations.length) */\n      swap3\n      pop\n        /* \"contracts/Article.sol\":3335:3342  article */\n      dup1\n        /* \"contracts/Article.sol\":3335:3350  article.weights */\n      0xc0\n      add\n      mload\n        /* \"contracts/Article.sol\":3335:3357  article.weights.length */\n      mload\n        /* \"contracts/Article.sol\":3321:3358  new uint256[](article.weights.length) */\n      0xffffffffffffffff\n      dup2\n      gt\n      iszero\n      tag_53\n      jumpi\n      tag_54\n      tag_51\n      jump\t// in\n    tag_54:\n    tag_53:\n      mload(0x40)\n      swap1\n      dup1\n      dup3\n      mstore\n      dup1\n      0x20\n      mul\n      0x20\n      add\n      dup3\n      add\n      0x40\n      mstore\n      dup1\n      iszero\n      tag_55\n      jumpi\n      dup2\n      0x20\n      add\n      0x20\n      dup3\n      mul\n      dup1\n      calldatasize\n      dup4\n      calldatacopy\n      dup1\n      dup3\n      add\n      swap2\n      pop\n      pop\n      swap1\n      pop\n    tag_55:\n      pop\n        /* \"contracts/Article.sol\":3311:3358  weights = new uint256[](article.weights.length) */\n      swap2\n      pop\n        /* \"contracts/Article.sol\":3376:3382  uint i */\n      0x00\n        /* \"contracts/Article.sol\":3371:3531  for (uint i = 0; i < article.citations.length; i++) {... */\n    tag_56:\n        /* \"contracts/Article.sol\":3392:3399  article */\n      dup2\n        /* \"contracts/Article.sol\":3392:3409  article.citations */\n      0xa0\n      add\n      mload\n        /* \"contracts/Article.sol\":3392:3416  article.citations.length */\n      mload\n        /* \"contracts/Article.sol\":3388:3389  i */\n      dup2\n        /* \"contracts/Article.sol\":3388:3416  i < article.citations.length */\n      lt\n        /* \"contracts/Article.sol\":3371:3531  for (uint i = 0; i < article.citations.length; i++) {... */\n      iszero\n      tag_57\n      jumpi\n        /* \"contracts/Article.sol\":3453:3460  article */\n      dup2\n        /* \"contracts/Article.sol\":3453:3470  article.citations */\n      0xa0\n      add\n      mload\n        /* \"contracts/Article.sol\":3471:3472  i */\n      dup2\n        /* \"contracts/Article.sol\":3453:3473  article.citations[i] */\n      dup2\n      mload\n      dup2\n      lt\n      tag_59\n      jumpi\n      tag_60\n      tag_27\n      jump\t// in\n    tag_60:\n    tag_59:\n      0x20\n      mul\n      0x20\n      add\n      add\n      mload\n        /* \"contracts/Article.sol\":3438:3447  citations */\n      dup5\n        /* \"contracts/Article.sol\":3448:3449  i */\n      dup3\n        /* \"contracts/Article.sol\":3438:3450  citations[i] */\n      dup2\n      mload\n      dup2\n      lt\n      tag_61\n      jumpi\n      tag_62\n      tag_27\n      jump\t// in\n    tag_62:\n    tag_61:\n      0x20\n      mul\n      0x20\n      add\n      add\n        /* \"contracts/Article.sol\":3438:3473  citations[i] = article.citations[i] */\n      dup2\n      dup2\n      mstore\n      pop\n      pop\n        /* \"contracts/Article.sol\":3501:3508  article */\n      dup2\n        /* \"contracts/Article.sol\":3501:3516  article.weights */\n      0xc0\n      add\n      mload\n        /* \"contracts/Article.sol\":3517:3518  i */\n      dup2\n        /* \"contracts/Article.sol\":3501:3519  article.weights[i] */\n      dup2\n      mload\n      dup2\n      lt\n      tag_63\n      jumpi\n      tag_64\n      tag_27\n      jump\t// in\n    tag_64:\n    tag_63:\n      0x20\n      mul\n      0x20\n      add\n      add\n      mload\n        /* \"contracts/Article.sol\":3488:3495  weights */\n      dup4\n        /* \"contracts/Article.sol\":3496:3497  i */\n      dup3\n        /* \"contracts/Article.sol\":3488:3498  weights[i] */\n      dup2\n      mload\n      dup2\n      lt\n      tag_65\n      jumpi\n      tag_66\n      tag_27\n      jump\t// in\n    tag_66:\n    tag_65:\n      0x20\n      mul\n      0x20\n      add\n      add\n        /* \"contracts/Article.sol\":3488:3519  weights[i] = article.weights[i] */\n      dup2\n      dup2\n      mstore\n      pop\n      pop\n        /* \"contracts/Article.sol\":3418:3421  i++ */\n      dup1\n      dup1\n      tag_67\n      swap1\n      tag_68\n      jump\t// in\n    tag_67:\n      swap2\n      pop\n      pop\n        /* \"contracts/Article.sol\":3371:3531  for (uint i = 0; i < article.citations.length; i++) {... */\n      jump(tag_56)\n    tag_57:\n      pop\n        /* \"contracts/Article.sol\":3548:3555  article */\n      dup1\n        /* \"contracts/Article.sol\":3548:3558  article.id */\n      0x00\n      add\n      mload\n        /* \"contracts/Article.sol\":3543:3558  id = article.id */\n      swap8\n      pop\n        /* \"contracts/Article.sol\":3577:3584  article */\n      dup1\n        /* \"contracts/Article.sol\":3577:3590  article.title */\n      0x20\n      add\n      mload\n        /* \"contracts/Article.sol\":3569:3590  title = article.title */\n      swap7\n      pop\n        /* \"contracts/Article.sol\":3607:3614  article */\n      dup1\n        /* \"contracts/Article.sol\":3607:3618  article.url */\n      0x40\n      add\n      mload\n        /* \"contracts/Article.sol\":3601:3618  url = article.url */\n      swap6\n      pop\n        /* \"contracts/Article.sol\":3642:3649  article */\n      dup1\n        /* \"contracts/Article.sol\":3642:3660  article.authorName */\n      0x60\n      add\n      mload\n        /* \"contracts/Article.sol\":3629:3660  authorName = article.authorName */\n      swap5\n      pop\n        /* \"contracts/Article.sol\":3687:3694  article */\n      dup1\n        /* \"contracts/Article.sol\":3687:3708  article.authorAddress */\n      0x80\n      add\n      mload\n        /* \"contracts/Article.sol\":3671:3708  authorAddress = article.authorAddress */\n      swap4\n      pop\n        /* \"contracts/Article.sol\":3122:3716  {... */\n      pop\n        /* \"contracts/Article.sol\":2763:3716  function getArticle(... */\n      swap2\n      swap4\n      swap6\n      swap8\n      swap1\n      swap3\n      swap5\n      swap7\n      pop\n      jump\t// out\n        /* \"contracts/Article.sol\":559:2755  function createArticle(... */\n    tag_15:\n        /* \"contracts/Article.sol\":808:809  0 */\n      0x00\n        /* \"contracts/Article.sol\":791:797  _title */\n      dup6\n        /* \"contracts/Article.sol\":785:805  bytes(_title).length */\n      mload\n        /* \"contracts/Article.sol\":785:809  bytes(_title).length > 0 */\n      gt\n        /* \"contracts/Article.sol\":777:835  require(bytes(_title).length > 0, \"Title cannot be empty\") */\n      tag_70\n      jumpi\n      mload(0x40)\n      0x08c379a000000000000000000000000000000000000000000000000000000000\n      dup2\n      mstore\n      0x04\n      add\n      tag_71\n      swap1\n      tag_72\n      jump\t// in\n    tag_71:\n      mload(0x40)\n      dup1\n      swap2\n      sub\n      swap1\n      revert\n    tag_70:\n        /* \"contracts/Article.sol\":875:876  0 */\n      0x00\n        /* \"contracts/Article.sol\":860:864  _url */\n      dup5\n        /* \"contracts/Article.sol\":854:872  bytes(_url).length */\n      mload\n        /* \"contracts/Article.sol\":854:876  bytes(_url).length > 0 */\n      gt\n        /* \"contracts/Article.sol\":846:900  require(bytes(_url).length > 0, \"URL cannot be empty\") */\n      tag_73\n      jumpi\n      mload(0x40)\n      0x08c379a000000000000000000000000000000000000000000000000000000000\n      dup2\n      mstore\n      0x04\n      add\n      tag_74\n      swap1\n      tag_75\n      jump\t// in\n    tag_74:\n      mload(0x40)\n      dup1\n      swap2\n      sub\n      swap1\n      revert\n    tag_73:\n        /* \"contracts/Article.sol\":947:948  0 */\n      0x00\n        /* \"contracts/Article.sol\":925:936  _authorName */\n      dup4\n        /* \"contracts/Article.sol\":919:944  bytes(_authorName).length */\n      mload\n        /* \"contracts/Article.sol\":919:948  bytes(_authorName).length > 0 */\n      gt\n        /* \"contracts/Article.sol\":911:980  require(bytes(_authorName).length > 0, \"Author name cannot be empty\") */\n      tag_76\n      jumpi\n      mload(0x40)\n      0x08c379a000000000000000000000000000000000000000000000000000000000\n      dup2\n      mstore\n      0x04\n      add\n      tag_77\n      swap1\n      tag_78\n      jump\t// in\n    tag_77:\n      mload(0x40)\n      dup1\n      swap2\n      sub\n      swap1\n      revert\n    tag_76:\n        /* \"contracts/Article.sol\":993:1019  uint256[] memory citations */\n      0x00\n        /* \"contracts/Article.sol\":1036:1046  _citations */\n      dup3\n        /* \"contracts/Article.sol\":1036:1053  _citations.length */\n      mload\n        /* \"contracts/Article.sol\":1022:1054  new uint256[](_citations.length) */\n      0xffffffffffffffff\n      dup2\n      gt\n      iszero\n      tag_79\n      jumpi\n      tag_80\n      tag_51\n      jump\t// in\n    tag_80:\n    tag_79:\n      mload(0x40)\n      swap1\n      dup1\n      dup3\n      mstore\n      dup1\n      0x20\n      mul\n      0x20\n      add\n      dup3\n      add\n      0x40\n      mstore\n      dup1\n      iszero\n      tag_81\n      jumpi\n      dup2\n      0x20\n      add\n      0x20\n      dup3\n      mul\n      dup1\n      calldatasize\n      dup4\n      calldatacopy\n      dup1\n      dup3\n      add\n      swap2\n      pop\n      pop\n      swap1\n      pop\n    tag_81:\n      pop\n        /* \"contracts/Article.sol\":993:1054  uint256[] memory citations = new uint256[](_citations.length) */\n      swap1\n      pop\n        /* \"contracts/Article.sol\":1065:1089  uint256[] memory weights */\n      0x00\n        /* \"contracts/Article.sol\":1106:1114  _weights */\n      dup3\n        /* \"contracts/Article.sol\":1106:1121  _weights.length */\n      mload\n        /* \"contracts/Article.sol\":1092:1122  new uint256[](_weights.length) */\n      0xffffffffffffffff\n      dup2\n      gt\n      iszero\n      tag_82\n      jumpi\n      tag_83\n      tag_51\n      jump\t// in\n    tag_83:\n    tag_82:\n      mload(0x40)\n      swap1\n      dup1\n      dup3\n      mstore\n      dup1\n      0x20\n      mul\n      0x20\n      add\n      dup3\n      add\n      0x40\n      mstore\n      dup1\n      iszero\n      tag_84\n      jumpi\n      dup2\n      0x20\n      add\n      0x20\n      dup3\n      mul\n      dup1\n      calldatasize\n      dup4\n      calldatacopy\n      dup1\n      dup3\n      add\n      swap2\n      pop\n      pop\n      swap1\n      pop\n    tag_84:\n      pop\n        /* \"contracts/Article.sol\":1065:1122  uint256[] memory weights = new uint256[](_weights.length) */\n      swap1\n      pop\n        /* \"contracts/Article.sol\":1135:1154  uint256 totalWeight */\n      0x00\n        /* \"contracts/Article.sol\":1176:1182  uint i */\n      dup1\n        /* \"contracts/Article.sol\":1171:1563  for (uint i = 0; i < _citations.length; i++) {... */\n    tag_85:\n        /* \"contracts/Article.sol\":1192:1202  _citations */\n      dup6\n        /* \"contracts/Article.sol\":1192:1209  _citations.length */\n      mload\n        /* \"contracts/Article.sol\":1188:1189  i */\n      dup2\n        /* \"contracts/Article.sol\":1188:1209  i < _citations.length */\n      lt\n        /* \"contracts/Article.sol\":1171:1563  for (uint i = 0; i < _citations.length; i++) {... */\n      iszero\n      tag_86\n      jumpi\n        /* \"contracts/Article.sol\":1256:1257  0 */\n      0x00\n        /* \"contracts/Article.sol\":1239:1249  _citations */\n      dup7\n        /* \"contracts/Article.sol\":1250:1251  i */\n      dup3\n        /* \"contracts/Article.sol\":1239:1252  _citations[i] */\n      dup2\n      mload\n      dup2\n      lt\n      tag_88\n      jumpi\n      tag_89\n      tag_27\n      jump\t// in\n    tag_89:\n    tag_88:\n      0x20\n      mul\n      0x20\n      add\n      add\n      mload\n        /* \"contracts/Article.sol\":1239:1257  _citations[i] != 0 */\n      sub\n        /* \"contracts/Article.sol\":1231:1281  require(_citations[i] != 0, \"Invalid citation ID\") */\n      tag_90\n      jumpi\n      mload(0x40)\n      0x08c379a000000000000000000000000000000000000000000000000000000000\n      dup2\n      mstore\n      0x04\n      add\n      tag_91\n      swap1\n      tag_92\n      jump\t// in\n    tag_91:\n      mload(0x40)\n      dup1\n      swap2\n      sub\n      swap1\n      revert\n    tag_90:\n        /* \"contracts/Article.sol\":1337:1338  0 */\n      0x00\n        /* \"contracts/Article.sol\":1322:1330  _weights */\n      dup6\n        /* \"contracts/Article.sol\":1331:1332  i */\n      dup3\n        /* \"contracts/Article.sol\":1322:1333  _weights[i] */\n      dup2\n      mload\n      dup2\n      lt\n      tag_93\n      jumpi\n      tag_94\n      tag_27\n      jump\t// in\n    tag_94:\n    tag_93:\n      0x20\n      mul\n      0x20\n      add\n      add\n      mload\n        /* \"contracts/Article.sol\":1322:1338  _weights[i] >= 0 */\n      lt\n      iszero\n        /* \"contracts/Article.sol\":1322:1360  _weights[i] >= 0 && _weights[i] <= 100 */\n      dup1\n      iszero\n      tag_95\n      jumpi\n      pop\n        /* \"contracts/Article.sol\":1357:1360  100 */\n      0x64\n        /* \"contracts/Article.sol\":1342:1350  _weights */\n      dup6\n        /* \"contracts/Article.sol\":1351:1352  i */\n      dup3\n        /* \"contracts/Article.sol\":1342:1353  _weights[i] */\n      dup2\n      mload\n      dup2\n      lt\n      tag_96\n      jumpi\n      tag_97\n      tag_27\n      jump\t// in\n    tag_97:\n    tag_96:\n      0x20\n      mul\n      0x20\n      add\n      add\n      mload\n        /* \"contracts/Article.sol\":1342:1360  _weights[i] <= 100 */\n      gt\n      iszero\n        /* \"contracts/Article.sol\":1322:1360  _weights[i] >= 0 && _weights[i] <= 100 */\n    tag_95:\n        /* \"contracts/Article.sol\":1296:1428  require(... */\n      tag_98\n      jumpi\n      mload(0x40)\n      0x08c379a000000000000000000000000000000000000000000000000000000000\n      dup2\n      mstore\n      0x04\n      add\n      tag_99\n      swap1\n      tag_100\n      jump\t// in\n    tag_99:\n      mload(0x40)\n      dup1\n      swap2\n      sub\n      swap1\n      revert\n    tag_98:\n        /* \"contracts/Article.sol\":1458:1468  _citations */\n      dup6\n        /* \"contracts/Article.sol\":1469:1470  i */\n      dup2\n        /* \"contracts/Article.sol\":1458:1471  _citations[i] */\n      dup2\n      mload\n      dup2\n      lt\n      tag_101\n      jumpi\n      tag_102\n      tag_27\n      jump\t// in\n    tag_102:\n    tag_101:\n      0x20\n      mul\n      0x20\n      add\n      add\n      mload\n        /* \"contracts/Article.sol\":1443:1452  citations */\n      dup5\n        /* \"contracts/Article.sol\":1453:1454  i */\n      dup3\n        /* \"contracts/Article.sol\":1443:1455  citations[i] */\n      dup2\n      mload\n      dup2\n      lt\n      tag_103\n      jumpi\n      tag_104\n      tag_27\n      jump\t// in\n    tag_104:\n    tag_103:\n      0x20\n      mul\n      0x20\n      add\n      add\n        /* \"contracts/Article.sol\":1443:1471  citations[i] = _citations[i] */\n      dup2\n      dup2\n      mstore\n      pop\n      pop\n        /* \"contracts/Article.sol\":1499:1507  _weights */\n      dup5\n        /* \"contracts/Article.sol\":1508:1509  i */\n      dup2\n        /* \"contracts/Article.sol\":1499:1510  _weights[i] */\n      dup2\n      mload\n      dup2\n      lt\n      tag_105\n      jumpi\n      tag_106\n      tag_27\n      jump\t// in\n    tag_106:\n    tag_105:\n      0x20\n      mul\n      0x20\n      add\n      add\n      mload\n        /* \"contracts/Article.sol\":1486:1493  weights */\n      dup4\n        /* \"contracts/Article.sol\":1494:1495  i */\n      dup3\n        /* \"contracts/Article.sol\":1486:1496  weights[i] */\n      dup2\n      mload\n      dup2\n      lt\n      tag_107\n      jumpi\n      tag_108\n      tag_27\n      jump\t// in\n    tag_108:\n    tag_107:\n      0x20\n      mul\n      0x20\n      add\n      add\n        /* \"contracts/Article.sol\":1486:1510  weights[i] = _weights[i] */\n      dup2\n      dup2\n      mstore\n      pop\n      pop\n        /* \"contracts/Article.sol\":1540:1548  _weights */\n      dup5\n        /* \"contracts/Article.sol\":1549:1550  i */\n      dup2\n        /* \"contracts/Article.sol\":1540:1551  _weights[i] */\n      dup2\n      mload\n      dup2\n      lt\n      tag_109\n      jumpi\n      tag_110\n      tag_27\n      jump\t// in\n    tag_110:\n    tag_109:\n      0x20\n      mul\n      0x20\n      add\n      add\n      mload\n        /* \"contracts/Article.sol\":1525:1551  totalWeight += _weights[i] */\n      dup3\n      tag_111\n      swap2\n      swap1\n      tag_112\n      jump\t// in\n    tag_111:\n      swap2\n      pop\n        /* \"contracts/Article.sol\":1211:1214  i++ */\n      dup1\n      dup1\n      tag_113\n      swap1\n      tag_68\n      jump\t// in\n    tag_113:\n      swap2\n      pop\n      pop\n        /* \"contracts/Article.sol\":1171:1563  for (uint i = 0; i < _citations.length; i++) {... */\n      jump(tag_85)\n    tag_86:\n      pop\n        /* \"contracts/Article.sol\":1593:1596  100 */\n      0x64\n        /* \"contracts/Article.sol\":1579:1590  totalWeight */\n      dup2\n        /* \"contracts/Article.sol\":1579:1596  totalWeight > 100 */\n      gt\n        /* \"contracts/Article.sol\":1575:2252  if (totalWeight > 100) {... */\n      iszero\n      tag_114\n      jumpi\n        /* \"contracts/Article.sol\":1618:1624  uint i */\n      0x00\n        /* \"contracts/Article.sol\":1613:1735  for (uint i = 0; i < weights.length; i++) {... */\n    tag_115:\n        /* \"contracts/Article.sol\":1634:1641  weights */\n      dup3\n        /* \"contracts/Article.sol\":1634:1648  weights.length */\n      mload\n        /* \"contracts/Article.sol\":1630:1631  i */\n      dup2\n        /* \"contracts/Article.sol\":1630:1648  i < weights.length */\n      lt\n        /* \"contracts/Article.sol\":1613:1735  for (uint i = 0; i < weights.length; i++) {... */\n      iszero\n      tag_116\n      jumpi\n        /* \"contracts/Article.sol\":1708:1719  totalWeight */\n      dup2\n        /* \"contracts/Article.sol\":1694:1701  weights */\n      dup4\n        /* \"contracts/Article.sol\":1702:1703  i */\n      dup3\n        /* \"contracts/Article.sol\":1694:1704  weights[i] */\n      dup2\n      mload\n      dup2\n      lt\n      tag_118\n      jumpi\n      tag_119\n      tag_27\n      jump\t// in\n    tag_119:\n    tag_118:\n      0x20\n      mul\n      0x20\n      add\n      add\n      mload\n        /* \"contracts/Article.sol\":1688:1691  100 */\n      0x64\n        /* \"contracts/Article.sol\":1688:1704  100 * weights[i] */\n      tag_120\n      swap2\n      swap1\n      tag_121\n      jump\t// in\n    tag_120:\n        /* \"contracts/Article.sol\":1687:1719  (100 * weights[i]) / totalWeight */\n      tag_122\n      swap2\n      swap1\n      tag_123\n      jump\t// in\n    tag_122:\n        /* \"contracts/Article.sol\":1674:1681  weights */\n      dup4\n        /* \"contracts/Article.sol\":1682:1683  i */\n      dup3\n        /* \"contracts/Article.sol\":1674:1684  weights[i] */\n      dup2\n      mload\n      dup2\n      lt\n      tag_124\n      jumpi\n      tag_125\n      tag_27\n      jump\t// in\n    tag_125:\n    tag_124:\n      0x20\n      mul\n      0x20\n      add\n      add\n        /* \"contracts/Article.sol\":1674:1719  weights[i] = (100 * weights[i]) / totalWeight */\n      dup2\n      dup2\n      mstore\n      pop\n      pop\n        /* \"contracts/Article.sol\":1650:1653  i++ */\n      dup1\n      dup1\n      tag_126\n      swap1\n      tag_68\n      jump\t// in\n    tag_126:\n      swap2\n      pop\n      pop\n        /* \"contracts/Article.sol\":1613:1735  for (uint i = 0; i < weights.length; i++) {... */\n      jump(tag_115)\n    tag_116:\n      pop\n        /* \"contracts/Article.sol\":1575:2252  if (totalWeight > 100) {... */\n      jump(tag_127)\n    tag_114:\n        /* \"contracts/Article.sol\":1770:1773  100 */\n      0x64\n        /* \"contracts/Article.sol\":1756:1767  totalWeight */\n      dup2\n        /* \"contracts/Article.sol\":1756:1773  totalWeight < 100 */\n      lt\n        /* \"contracts/Article.sol\":1752:2252  if (totalWeight < 100) {... */\n      iszero\n      tag_128\n      jumpi\n        /* \"contracts/Article.sol\":1790:1811  uint256 missingWeight */\n      0x00\n        /* \"contracts/Article.sol\":1820:1831  totalWeight */\n      dup2\n        /* \"contracts/Article.sol\":1814:1817  100 */\n      0x64\n        /* \"contracts/Article.sol\":1814:1831  100 - totalWeight */\n      tag_129\n      swap2\n      swap1\n      tag_130\n      jump\t// in\n    tag_129:\n        /* \"contracts/Article.sol\":1790:1831  uint256 missingWeight = 100 - totalWeight */\n      swap1\n      pop\n        /* \"contracts/Article.sol\":1846:1873  uint256[] memory newWeights */\n      0x00\n        /* \"contracts/Article.sol\":1907:1908  1 */\n      0x01\n        /* \"contracts/Article.sol\":1890:1897  weights */\n      dup5\n        /* \"contracts/Article.sol\":1890:1904  weights.length */\n      mload\n        /* \"contracts/Article.sol\":1890:1908  weights.length + 1 */\n      tag_131\n      swap2\n      swap1\n      tag_112\n      jump\t// in\n    tag_131:\n        /* \"contracts/Article.sol\":1876:1909  new uint256[](weights.length + 1) */\n      0xffffffffffffffff\n      dup2\n      gt\n      iszero\n      tag_132\n      jumpi\n      tag_133\n      tag_51\n      jump\t// in\n    tag_133:\n    tag_132:\n      mload(0x40)\n      swap1\n      dup1\n      dup3\n      mstore\n      dup1\n      0x20\n      mul\n      0x20\n      add\n      dup3\n      add\n      0x40\n      mstore\n      dup1\n      iszero\n      tag_134\n      jumpi\n      dup2\n      0x20\n      add\n      0x20\n      dup3\n      mul\n      dup1\n      calldatasize\n      dup4\n      calldatacopy\n      dup1\n      dup3\n      add\n      swap2\n      pop\n      pop\n      swap1\n      pop\n    tag_134:\n      pop\n        /* \"contracts/Article.sol\":1846:1909  uint256[] memory newWeights = new uint256[](weights.length + 1) */\n      swap1\n      pop\n        /* \"contracts/Article.sol\":1929:1935  uint i */\n      0x00\n        /* \"contracts/Article.sol\":1924:2149  for (uint i = 0; i < weights.length; i++) {... */\n    tag_135:\n        /* \"contracts/Article.sol\":1945:1952  weights */\n      dup5\n        /* \"contracts/Article.sol\":1945:1959  weights.length */\n      mload\n        /* \"contracts/Article.sol\":1941:1942  i */\n      dup2\n        /* \"contracts/Article.sol\":1941:1959  i < weights.length */\n      lt\n        /* \"contracts/Article.sol\":1924:2149  for (uint i = 0; i < weights.length; i++) {... */\n      iszero\n      tag_136\n      jumpi\n        /* \"contracts/Article.sol\":1985:2002  uint256 newWeight */\n      0x00\n        /* \"contracts/Article.sol\":2064:2075  totalWeight */\n      dup5\n        /* \"contracts/Article.sol\":2058:2061  100 */\n      0x64\n        /* \"contracts/Article.sol\":2058:2075  100 - totalWeight */\n      tag_138\n      swap2\n      swap1\n      tag_130\n      jump\t// in\n    tag_138:\n        /* \"contracts/Article.sol\":2022:2029  weights */\n      dup7\n        /* \"contracts/Article.sol\":2030:2031  i */\n      dup4\n        /* \"contracts/Article.sol\":2022:2032  weights[i] */\n      dup2\n      mload\n      dup2\n      lt\n      tag_139\n      jumpi\n      tag_140\n      tag_27\n      jump\t// in\n    tag_140:\n    tag_139:\n      0x20\n      mul\n      0x20\n      add\n      add\n      mload\n        /* \"contracts/Article.sol\":2006:2019  missingWeight */\n      dup6\n        /* \"contracts/Article.sol\":2006:2032  missingWeight * weights[i] */\n      tag_141\n      swap2\n      swap1\n      tag_121\n      jump\t// in\n    tag_141:\n        /* \"contracts/Article.sol\":2005:2076  (missingWeight * weights[i]) /... */\n      tag_142\n      swap2\n      swap1\n      tag_123\n      jump\t// in\n    tag_142:\n        /* \"contracts/Article.sol\":1985:2076  uint256 newWeight = (missingWeight * weights[i]) /... */\n      swap1\n      pop\n        /* \"contracts/Article.sol\":2124:2133  newWeight */\n      dup1\n        /* \"contracts/Article.sol\":2111:2118  weights */\n      dup7\n        /* \"contracts/Article.sol\":2119:2120  i */\n      dup4\n        /* \"contracts/Article.sol\":2111:2121  weights[i] */\n      dup2\n      mload\n      dup2\n      lt\n      tag_143\n      jumpi\n      tag_144\n      tag_27\n      jump\t// in\n    tag_144:\n    tag_143:\n      0x20\n      mul\n      0x20\n      add\n      add\n      mload\n        /* \"contracts/Article.sol\":2111:2133  weights[i] + newWeight */\n      tag_145\n      swap2\n      swap1\n      tag_112\n      jump\t// in\n    tag_145:\n        /* \"contracts/Article.sol\":2095:2105  newWeights */\n      dup4\n        /* \"contracts/Article.sol\":2106:2107  i */\n      dup4\n        /* \"contracts/Article.sol\":2095:2108  newWeights[i] */\n      dup2\n      mload\n      dup2\n      lt\n      tag_146\n      jumpi\n      tag_147\n      tag_27\n      jump\t// in\n    tag_147:\n    tag_146:\n      0x20\n      mul\n      0x20\n      add\n      add\n        /* \"contracts/Article.sol\":2095:2133  newWeights[i] = weights[i] + newWeight */\n      dup2\n      dup2\n      mstore\n      pop\n      pop\n        /* \"contracts/Article.sol\":1966:2149  {... */\n      pop\n        /* \"contracts/Article.sol\":1961:1964  i++ */\n      dup1\n      dup1\n      tag_148\n      swap1\n      tag_68\n      jump\t// in\n    tag_148:\n      swap2\n      pop\n      pop\n        /* \"contracts/Article.sol\":1924:2149  for (uint i = 0; i < weights.length; i++) {... */\n      jump(tag_135)\n    tag_136:\n      pop\n        /* \"contracts/Article.sol\":2192:2205  missingWeight */\n      dup2\n        /* \"contracts/Article.sol\":2163:2173  newWeights */\n      dup2\n        /* \"contracts/Article.sol\":2174:2181  weights */\n      dup6\n        /* \"contracts/Article.sol\":2174:2188  weights.length */\n      mload\n        /* \"contracts/Article.sol\":2163:2189  newWeights[weights.length] */\n      dup2\n      mload\n      dup2\n      lt\n      tag_149\n      jumpi\n      tag_150\n      tag_27\n      jump\t// in\n    tag_150:\n    tag_149:\n      0x20\n      mul\n      0x20\n      add\n      add\n        /* \"contracts/Article.sol\":2163:2205  newWeights[weights.length] = missingWeight */\n      dup2\n      dup2\n      mstore\n      pop\n      pop\n        /* \"contracts/Article.sol\":2230:2240  newWeights */\n      dup1\n        /* \"contracts/Article.sol\":2220:2240  weights = newWeights */\n      swap4\n      pop\n        /* \"contracts/Article.sol\":1775:2252  {... */\n      pop\n      pop\n        /* \"contracts/Article.sol\":1752:2252  if (totalWeight < 100) {... */\n    tag_128:\n        /* \"contracts/Article.sol\":1575:2252  if (totalWeight > 100) {... */\n    tag_127:\n        /* \"contracts/Article.sol\":2264:2274  uint256 id */\n      0x00\n        /* \"contracts/Article.sol\":2277:2285  articles */\n      dup1\n        /* \"contracts/Article.sol\":2277:2292  articles.length */\n      dup1\n      sload\n      swap1\n      pop\n        /* \"contracts/Article.sol\":2264:2292  uint256 id = articles.length */\n      swap1\n      pop\n        /* \"contracts/Article.sol\":2303:2311  articles */\n      0x00\n        /* \"contracts/Article.sol\":2331:2539  ArticleData(... */\n      mload(0x40)\n      dup1\n      0xe0\n      add\n      0x40\n      mstore\n      dup1\n        /* \"contracts/Article.sol\":2361:2363  id */\n      dup4\n        /* \"contracts/Article.sol\":2331:2539  ArticleData(... */\n      dup2\n      mstore\n      0x20\n      add\n        /* \"contracts/Article.sol\":2382:2388  _title */\n      dup12\n        /* \"contracts/Article.sol\":2331:2539  ArticleData(... */\n      dup2\n      mstore\n      0x20\n      add\n        /* \"contracts/Article.sol\":2407:2411  _url */\n      dup11\n        /* \"contracts/Article.sol\":2331:2539  ArticleData(... */\n      dup2\n      mstore\n      0x20\n      add\n        /* \"contracts/Article.sol\":2430:2441  _authorName */\n      dup10\n        /* \"contracts/Article.sol\":2331:2539  ArticleData(... */\n      dup2\n      mstore\n      0x20\n      add\n        /* \"contracts/Article.sol\":2460:2470  msg.sender */\n      caller\n        /* \"contracts/Article.sol\":2331:2539  ArticleData(... */\n      0xffffffffffffffffffffffffffffffffffffffff\n      and\n      dup2\n      mstore\n      0x20\n      add\n        /* \"contracts/Article.sol\":2489:2498  citations */\n      dup7\n        /* \"contracts/Article.sol\":2331:2539  ArticleData(... */\n      dup2\n      mstore\n      0x20\n      add\n        /* \"contracts/Article.sol\":2517:2524  weights */\n      dup6\n        /* \"contracts/Article.sol\":2331:2539  ArticleData(... */\n      dup2\n      mstore\n      pop\n        /* \"contracts/Article.sol\":2303:2550  articles.push(... */\n      swap1\n      dup1\n      0x01\n      dup2\n      sload\n      add\n      dup1\n      dup3\n      sstore\n      dup1\n      swap2\n      pop\n      pop\n      0x01\n      swap1\n      sub\n      swap1\n      0x00\n      mstore\n      keccak256(0x00, 0x20)\n      swap1\n      0x07\n      mul\n      add\n      0x00\n      swap1\n      swap2\n      swap1\n      swap2\n      swap1\n      swap2\n      pop\n      0x00\n      dup3\n      add\n      mload\n      dup2\n      0x00\n      add\n      sstore\n      0x20\n      dup3\n      add\n      mload\n      dup2\n      0x01\n      add\n      swap1\n      dup2\n      tag_152\n      swap2\n      swap1\n      tag_153\n      jump\t// in\n    tag_152:\n      pop\n      0x40\n      dup3\n      add\n      mload\n      dup2\n      0x02\n      add\n      swap1\n      dup2\n      tag_154\n      swap2\n      swap1\n      tag_153\n      jump\t// in\n    tag_154:\n      pop\n      0x60\n      dup3\n      add\n      mload\n      dup2\n      0x03\n      add\n      swap1\n      dup2\n      tag_155\n      swap2\n      swap1\n      tag_153\n      jump\t// in\n    tag_155:\n      pop\n      0x80\n      dup3\n      add\n      mload\n      dup2\n      0x04\n      add\n      exp(0x0100, 0x00)\n      dup2\n      sload\n      dup2\n      0xffffffffffffffffffffffffffffffffffffffff\n      mul\n      not\n      and\n      swap1\n      dup4\n      0xffffffffffffffffffffffffffffffffffffffff\n      and\n      mul\n      or\n      swap1\n      sstore\n      pop\n      0xa0\n      dup3\n      add\n      mload\n      dup2\n      0x05\n      add\n      swap1\n      dup1\n      mload\n      swap1\n      0x20\n      add\n      swap1\n      tag_156\n      swap3\n      swap2\n      swap1\n      tag_157\n      jump\t// in\n    tag_156:\n      pop\n      0xc0\n      dup3\n      add\n      mload\n      dup2\n      0x06\n      add\n      swap1\n      dup1\n      mload\n      swap1\n      0x20\n      add\n      swap1\n      tag_158\n      swap3\n      swap2\n      swap1\n      tag_157\n      jump\t// in\n    tag_158:\n      pop\n      pop\n      pop\n        /* \"contracts/Article.sol\":2568:2747  ArticleCreated(... */\n      0x99429b8e317a4d8f2440d759396b8c690cbb878aa34ea914a8687db9d7a226f6\n        /* \"contracts/Article.sol\":2597:2599  id */\n      dup2\n        /* \"contracts/Article.sol\":2614:2620  _title */\n      dup11\n        /* \"contracts/Article.sol\":2635:2639  _url */\n      dup11\n        /* \"contracts/Article.sol\":2654:2665  _authorName */\n      dup11\n        /* \"contracts/Article.sol\":2680:2690  msg.sender */\n      caller\n        /* \"contracts/Article.sol\":2705:2714  citations */\n      dup10\n        /* \"contracts/Article.sol\":2729:2736  weights */\n      dup10\n        /* \"contracts/Article.sol\":2568:2747  ArticleCreated(... */\n      mload(0x40)\n      tag_159\n      swap8\n      swap7\n      swap6\n      swap5\n      swap4\n      swap3\n      swap2\n      swap1\n      tag_11\n      jump\t// in\n    tag_159:\n      mload(0x40)\n      dup1\n      swap2\n      sub\n      swap1\n      log1\n        /* \"contracts/Article.sol\":766:2755  {... */\n      pop\n      pop\n      pop\n      pop\n        /* \"contracts/Article.sol\":559:2755  function createArticle(... */\n      pop\n      pop\n      pop\n      pop\n      pop\n      jump\t// out\n        /* \"contracts/Article.sol\":302:331  ArticleData[] public articles */\n    tag_18:\n      0x00\n      dup2\n      dup2\n      sload\n      dup2\n      lt\n      tag_160\n      jumpi\n      0x00\n      dup1\n      revert\n    tag_160:\n      swap1\n      0x00\n      mstore\n      keccak256(0x00, 0x20)\n      swap1\n      0x07\n      mul\n      add\n      0x00\n      swap2\n      pop\n      swap1\n      pop\n      dup1\n      0x00\n      add\n      sload\n      swap1\n      dup1\n      0x01\n      add\n      dup1\n      sload\n      tag_162\n      swap1\n      tag_30\n      jump\t// in\n    tag_162:\n      dup1\n      0x1f\n      add\n      0x20\n      dup1\n      swap2\n      div\n      mul\n      0x20\n      add\n      mload(0x40)\n      swap1\n      dup2\n      add\n      0x40\n      mstore\n      dup1\n      swap3\n      swap2\n      swap1\n      dup2\n      dup2\n      mstore\n      0x20\n      add\n      dup3\n      dup1\n      sload\n      tag_163\n      swap1\n      tag_30\n      jump\t// in\n    tag_163:\n      dup1\n      iszero\n      tag_164\n      jumpi\n      dup1\n      0x1f\n      lt\n      tag_165\n      jumpi\n      0x0100\n      dup1\n      dup4\n      sload\n      div\n      mul\n      dup4\n      mstore\n      swap2\n      0x20\n      add\n      swap2\n      jump(tag_164)\n    tag_165:\n      dup3\n      add\n      swap2\n      swap1\n      0x00\n      mstore\n      keccak256(0x00, 0x20)\n      swap1\n    tag_166:\n      dup2\n      sload\n      dup2\n      mstore\n      swap1\n      0x01\n      add\n      swap1\n      0x20\n      add\n      dup1\n      dup4\n      gt\n      tag_166\n      jumpi\n      dup3\n      swap1\n      sub\n      0x1f\n      and\n      dup3\n      add\n      swap2\n    tag_164:\n      pop\n      pop\n      pop\n      pop\n      pop\n      swap1\n      dup1\n      0x02\n      add\n      dup1\n      sload\n      tag_167\n      swap1\n      tag_30\n      jump\t// in\n    tag_167:\n      dup1\n      0x1f\n      add\n      0x20\n      dup1\n      swap2\n      div\n      mul\n      0x20\n      add\n      mload(0x40)\n      swap1\n      dup2\n      add\n      0x40\n      mstore\n      dup1\n      swap3\n      swap2\n      swap1\n      dup2\n      dup2\n      mstore\n      0x20\n      add\n      dup3\n      dup1\n      sload\n      tag_168\n      swap1\n      tag_30\n      jump\t// in\n    tag_168:\n      dup1\n      iszero\n      tag_169\n      jumpi\n      dup1\n      0x1f\n      lt\n      tag_170\n      jumpi\n      0x0100\n      dup1\n      dup4\n      sload\n      div\n      mul\n      dup4\n      mstore\n      swap2\n      0x20\n      add\n      swap2\n      jump(tag_169)\n    tag_170:\n      dup3\n      add\n      swap2\n      swap1\n      0x00\n      mstore\n      keccak256(0x00, 0x20)\n      swap1\n    tag_171:\n      dup2\n      sload\n      dup2\n      mstore\n      swap1\n      0x01\n      add\n      swap1\n      0x20\n      add\n      dup1\n      dup4\n      gt\n      tag_171\n      jumpi\n      dup3\n      swap1\n      sub\n      0x1f\n      and\n      dup3\n      add\n      swap2\n    tag_169:\n      pop\n      pop\n      pop\n      pop\n      pop\n      swap1\n      dup1\n      0x03\n      add\n      dup1\n      sload\n      tag_172\n      swap1\n      tag_30\n      jump\t// in\n    tag_172:\n      dup1\n      0x1f\n      add\n      0x20\n      dup1\n      swap2\n      div\n      mul\n      0x20\n      add\n      mload(0x40)\n      swap1\n      dup2\n      add\n      0x40\n      mstore\n      dup1\n      swap3\n      swap2\n      swap1\n      dup2\n      dup2\n      mstore\n      0x20\n      add\n      dup3\n      dup1\n      sload\n      tag_173\n      swap1\n      tag_30\n      jump\t// in\n    tag_173:\n      dup1\n      iszero\n      tag_174\n      jumpi\n      dup1\n      0x1f\n      lt\n      tag_175\n      jumpi\n      0x0100\n      dup1\n      dup4\n      sload\n      div\n      mul\n      dup4\n      mstore\n      swap2\n      0x20\n      add\n      swap2\n      jump(tag_174)\n    tag_175:\n      dup3\n      add\n      swap2\n      swap1\n      0x00\n      mstore\n      keccak256(0x00, 0x20)\n      swap1\n    tag_176:\n      dup2\n      sload\n      dup2\n      mstore\n      swap1\n      0x01\n      add\n      swap1\n      0x20\n      add\n      dup1\n      dup4\n      gt\n      tag_176\n      jumpi\n      dup3\n      swap1\n      sub\n      0x1f\n      and\n      dup3\n      add\n      swap2\n    tag_174:\n      pop\n      pop\n      pop\n      pop\n      pop\n      swap1\n      dup1\n      0x04\n      add\n      0x00\n      swap1\n      sload\n      swap1\n      0x0100\n      exp\n      swap1\n      div\n      0xffffffffffffffffffffffffffffffffffffffff\n      and\n      swap1\n      pop\n      dup6\n      jump\t// out\n    tag_157:\n      dup3\n      dup1\n      sload\n      dup3\n      dup3\n      sstore\n      swap1\n      0x00\n      mstore\n      keccak256(0x00, 0x20)\n      swap1\n      dup2\n      add\n      swap3\n      dup3\n      iszero\n      tag_177\n      jumpi\n      swap2\n      0x20\n      mul\n      dup3\n      add\n    tag_178:\n      dup3\n      dup2\n      gt\n      iszero\n      tag_179\n      jumpi\n      dup3\n      mload\n      dup3\n      sstore\n      swap2\n      0x20\n      add\n      swap2\n      swap1\n      0x01\n      add\n      swap1\n      jump(tag_178)\n    tag_179:\n    tag_177:\n      pop\n      swap1\n      pop\n      tag_180\n      swap2\n      swap1\n      tag_181\n      jump\t// in\n    tag_180:\n      pop\n      swap1\n      jump\t// out\n    tag_181:\n    tag_182:\n      dup1\n      dup3\n      gt\n      iszero\n      tag_183\n      jumpi\n      0x00\n      dup2\n      0x00\n      swap1\n      sstore\n      pop\n      0x01\n      add\n      jump(tag_182)\n    tag_183:\n      pop\n      swap1\n      jump\t// out\n        /* \"#utility.yul\":7:82   */\n    tag_184:\n        /* \"#utility.yul\":40:46   */\n      0x00\n        /* \"#utility.yul\":73:75   */\n      0x40\n        /* \"#utility.yul\":67:76   */\n      mload\n        /* \"#utility.yul\":57:76   */\n      swap1\n      pop\n        /* \"#utility.yul\":7:82   */\n      swap1\n      jump\t// out\n        /* \"#utility.yul\":88:205   */\n    tag_185:\n        /* \"#utility.yul\":197:198   */\n      0x00\n        /* \"#utility.yul\":194:195   */\n      dup1\n        /* \"#utility.yul\":187:199   */\n      revert\n        /* \"#utility.yul\":211:328   */\n    tag_186:\n        /* \"#utility.yul\":320:321   */\n      0x00\n        /* \"#utility.yul\":317:318   */\n      dup1\n        /* \"#utility.yul\":310:322   */\n      revert\n        /* \"#utility.yul\":334:411   */\n    tag_187:\n        /* \"#utility.yul\":371:378   */\n      0x00\n        /* \"#utility.yul\":400:405   */\n      dup2\n        /* \"#utility.yul\":389:405   */\n      swap1\n      pop\n        /* \"#utility.yul\":334:411   */\n      swap2\n      swap1\n      pop\n      jump\t// out\n        /* \"#utility.yul\":417:539   */\n    tag_188:\n        /* \"#utility.yul\":490:514   */\n      tag_254\n        /* \"#utility.yul\":508:513   */\n      dup2\n        /* \"#utility.yul\":490:514   */\n      tag_187\n      jump\t// in\n    tag_254:\n        /* \"#utility.yul\":483:488   */\n      dup2\n        /* \"#utility.yul\":480:515   */\n      eq\n        /* \"#utility.yul\":470:533   */\n      tag_255\n      jumpi\n        /* \"#utility.yul\":529:530   */\n      0x00\n        /* \"#utility.yul\":526:527   */\n      dup1\n        /* \"#utility.yul\":519:531   */\n      revert\n        /* \"#utility.yul\":470:533   */\n    tag_255:\n        /* \"#utility.yul\":417:539   */\n      pop\n      jump\t// out\n        /* \"#utility.yul\":545:684   */\n    tag_189:\n        /* \"#utility.yul\":591:596   */\n      0x00\n        /* \"#utility.yul\":629:635   */\n      dup2\n        /* \"#utility.yul\":616:636   */\n      calldataload\n        /* \"#utility.yul\":607:636   */\n      swap1\n      pop\n        /* \"#utility.yul\":645:678   */\n      tag_257\n        /* \"#utility.yul\":672:677   */\n      dup2\n        /* \"#utility.yul\":645:678   */\n      tag_188\n      jump\t// in\n    tag_257:\n        /* \"#utility.yul\":545:684   */\n      swap3\n      swap2\n      pop\n      pop\n      jump\t// out\n        /* \"#utility.yul\":690:1019   */\n    tag_8:\n        /* \"#utility.yul\":749:755   */\n      0x00\n        /* \"#utility.yul\":798:800   */\n      0x20\n        /* \"#utility.yul\":786:795   */\n      dup3\n        /* \"#utility.yul\":777:784   */\n      dup5\n        /* \"#utility.yul\":773:796   */\n      sub\n        /* \"#utility.yul\":769:801   */\n      slt\n        /* \"#utility.yul\":766:885   */\n      iszero\n      tag_259\n      jumpi\n        /* \"#utility.yul\":804:883   */\n      tag_260\n      tag_185\n      jump\t// in\n    tag_260:\n        /* \"#utility.yul\":766:885   */\n    tag_259:\n        /* \"#utility.yul\":924:925   */\n      0x00\n        /* \"#utility.yul\":949:1002   */\n      tag_261\n        /* \"#utility.yul\":994:1001   */\n      dup5\n        /* \"#utility.yul\":985:991   */\n      dup3\n        /* \"#utility.yul\":974:983   */\n      dup6\n        /* \"#utility.yul\":970:992   */\n      add\n        /* \"#utility.yul\":949:1002   */\n      tag_189\n      jump\t// in\n    tag_261:\n        /* \"#utility.yul\":939:1002   */\n      swap2\n      pop\n        /* \"#utility.yul\":895:1012   */\n      pop\n        /* \"#utility.yul\":690:1019   */\n      swap3\n      swap2\n      pop\n      pop\n      jump\t// out\n        /* \"#utility.yul\":1025:1143   */\n    tag_190:\n        /* \"#utility.yul\":1112:1136   */\n      tag_263\n        /* \"#utility.yul\":1130:1135   */\n      dup2\n        /* \"#utility.yul\":1112:1136   */\n      tag_187\n      jump\t// in\n    tag_263:\n        /* \"#utility.yul\":1107:1110   */\n      dup3\n        /* \"#utility.yul\":1100:1137   */\n      mstore\n        /* \"#utility.yul\":1025:1143   */\n      pop\n      pop\n      jump\t// out\n        /* \"#utility.yul\":1149:1248   */\n    tag_191:\n        /* \"#utility.yul\":1201:1207   */\n      0x00\n        /* \"#utility.yul\":1235:1240   */\n      dup2\n        /* \"#utility.yul\":1229:1241   */\n      mload\n        /* \"#utility.yul\":1219:1241   */\n      swap1\n      pop\n        /* \"#utility.yul\":1149:1248   */\n      swap2\n      swap1\n      pop\n      jump\t// out\n        /* \"#utility.yul\":1254:1423   */\n    tag_192:\n        /* \"#utility.yul\":1338:1349   */\n      0x00\n        /* \"#utility.yul\":1372:1378   */\n      dup3\n        /* \"#utility.yul\":1367:1370   */\n      dup3\n        /* \"#utility.yul\":1360:1379   */\n      mstore\n        /* \"#utility.yul\":1412:1416   */\n      0x20\n        /* \"#utility.yul\":1407:1410   */\n      dup3\n        /* \"#utility.yul\":1403:1417   */\n      add\n        /* \"#utility.yul\":1388:1417   */\n      swap1\n      pop\n        /* \"#utility.yul\":1254:1423   */\n      swap3\n      swap2\n      pop\n      pop\n      jump\t// out\n        /* \"#utility.yul\":1429:1675   */\n    tag_193:\n        /* \"#utility.yul\":1510:1511   */\n      0x00\n        /* \"#utility.yul\":1520:1633   */\n    tag_267:\n        /* \"#utility.yul\":1534:1540   */\n      dup4\n        /* \"#utility.yul\":1531:1532   */\n      dup2\n        /* \"#utility.yul\":1528:1541   */\n      lt\n        /* \"#utility.yul\":1520:1633   */\n      iszero\n      tag_269\n      jumpi\n        /* \"#utility.yul\":1619:1620   */\n      dup1\n        /* \"#utility.yul\":1614:1617   */\n      dup3\n        /* \"#utility.yul\":1610:1621   */\n      add\n        /* \"#utility.yul\":1604:1622   */\n      mload\n        /* \"#utility.yul\":1600:1601   */\n      dup2\n        /* \"#utility.yul\":1595:1598   */\n      dup5\n        /* \"#utility.yul\":1591:1602   */\n      add\n        /* \"#utility.yul\":1584:1623   */\n      mstore\n        /* \"#utility.yul\":1556:1558   */\n      0x20\n        /* \"#utility.yul\":1553:1554   */\n      dup2\n        /* \"#utility.yul\":1549:1559   */\n      add\n        /* \"#utility.yul\":1544:1559   */\n      swap1\n      pop\n        /* \"#utility.yul\":1520:1633   */\n      jump(tag_267)\n    tag_269:\n        /* \"#utility.yul\":1667:1668   */\n      0x00\n        /* \"#utility.yul\":1658:1664   */\n      dup5\n        /* \"#utility.yul\":1653:1656   */\n      dup5\n        /* \"#utility.yul\":1649:1665   */\n      add\n        /* \"#utility.yul\":1642:1669   */\n      mstore\n        /* \"#utility.yul\":1491:1675   */\n      pop\n        /* \"#utility.yul\":1429:1675   */\n      pop\n      pop\n      pop\n      jump\t// out\n        /* \"#utility.yul\":1681:1783   */\n    tag_194:\n        /* \"#utility.yul\":1722:1728   */\n      0x00\n        /* \"#utility.yul\":1773:1775   */\n      0x1f\n        /* \"#utility.yul\":1769:1776   */\n      not\n        /* \"#utility.yul\":1764:1766   */\n      0x1f\n        /* \"#utility.yul\":1757:1762   */\n      dup4\n        /* \"#utility.yul\":1753:1767   */\n      add\n        /* \"#utility.yul\":1749:1777   */\n      and\n        /* \"#utility.yul\":1739:1777   */\n      swap1\n      pop\n        /* \"#utility.yul\":1681:1783   */\n      swap2\n      swap1\n      pop\n      jump\t// out\n        /* \"#utility.yul\":1789:2166   */\n    tag_195:\n        /* \"#utility.yul\":1877:1880   */\n      0x00\n        /* \"#utility.yul\":1905:1944   */\n      tag_272\n        /* \"#utility.yul\":1938:1943   */\n      dup3\n        /* \"#utility.yul\":1905:1944   */\n      tag_191\n      jump\t// in\n    tag_272:\n        /* \"#utility.yul\":1960:2031   */\n      tag_273\n        /* \"#utility.yul\":2024:2030   */\n      dup2\n        /* \"#utility.yul\":2019:2022   */\n      dup6\n        /* \"#utility.yul\":1960:2031   */\n      tag_192\n      jump\t// in\n    tag_273:\n        /* \"#utility.yul\":1953:2031   */\n      swap4\n      pop\n        /* \"#utility.yul\":2040:2105   */\n      tag_274\n        /* \"#utility.yul\":2098:2104   */\n      dup2\n        /* \"#utility.yul\":2093:2096   */\n      dup6\n        /* \"#utility.yul\":2086:2090   */\n      0x20\n        /* \"#utility.yul\":2079:2084   */\n      dup7\n        /* \"#utility.yul\":2075:2091   */\n      add\n        /* \"#utility.yul\":2040:2105   */\n      tag_193\n      jump\t// in\n    tag_274:\n        /* \"#utility.yul\":2130:2159   */\n      tag_275\n        /* \"#utility.yul\":2152:2158   */\n      dup2\n        /* \"#utility.yul\":2130:2159   */\n      tag_194\n      jump\t// in\n    tag_275:\n        /* \"#utility.yul\":2125:2128   */\n      dup5\n        /* \"#utility.yul\":2121:2160   */\n      add\n        /* \"#utility.yul\":2114:2160   */\n      swap2\n      pop\n        /* \"#utility.yul\":1881:2166   */\n      pop\n        /* \"#utility.yul\":1789:2166   */\n      swap3\n      swap2\n      pop\n      pop\n      jump\t// out\n        /* \"#utility.yul\":2172:2298   */\n    tag_196:\n        /* \"#utility.yul\":2209:2216   */\n      0x00\n        /* \"#utility.yul\":2249:2291   */\n      0xffffffffffffffffffffffffffffffffffffffff\n        /* \"#utility.yul\":2242:2247   */\n      dup3\n        /* \"#utility.yul\":2238:2292   */\n      and\n        /* \"#utility.yul\":2227:2292   */\n      swap1\n      pop\n        /* \"#utility.yul\":2172:2298   */\n      swap2\n      swap1\n      pop\n      jump\t// out\n        /* \"#utility.yul\":2304:2400   */\n    tag_197:\n        /* \"#utility.yul\":2341:2348   */\n      0x00\n        /* \"#utility.yul\":2370:2394   */\n      tag_278\n        /* \"#utility.yul\":2388:2393   */\n      dup3\n        /* \"#utility.yul\":2370:2394   */\n      tag_196\n      jump\t// in\n    tag_278:\n        /* \"#utility.yul\":2359:2394   */\n      swap1\n      pop\n        /* \"#utility.yul\":2304:2400   */\n      swap2\n      swap1\n      pop\n      jump\t// out\n        /* \"#utility.yul\":2406:2524   */\n    tag_198:\n        /* \"#utility.yul\":2493:2517   */\n      tag_280\n        /* \"#utility.yul\":2511:2516   */\n      dup2\n        /* \"#utility.yul\":2493:2517   */\n      tag_197\n      jump\t// in\n    tag_280:\n        /* \"#utility.yul\":2488:2491   */\n      dup3\n        /* \"#utility.yul\":2481:2518   */\n      mstore\n        /* \"#utility.yul\":2406:2524   */\n      pop\n      pop\n      jump\t// out\n        /* \"#utility.yul\":2530:2644   */\n    tag_199:\n        /* \"#utility.yul\":2597:2603   */\n      0x00\n        /* \"#utility.yul\":2631:2636   */\n      dup2\n        /* \"#utility.yul\":2625:2637   */\n      mload\n        /* \"#utility.yul\":2615:2637   */\n      swap1\n      pop\n        /* \"#utility.yul\":2530:2644   */\n      swap2\n      swap1\n      pop\n      jump\t// out\n        /* \"#utility.yul\":2650:2834   */\n    tag_200:\n        /* \"#utility.yul\":2749:2760   */\n      0x00\n        /* \"#utility.yul\":2783:2789   */\n      dup3\n        /* \"#utility.yul\":2778:2781   */\n      dup3\n        /* \"#utility.yul\":2771:2790   */\n      mstore\n        /* \"#utility.yul\":2823:2827   */\n      0x20\n        /* \"#utility.yul\":2818:2821   */\n      dup3\n        /* \"#utility.yul\":2814:2828   */\n      add\n        /* \"#utility.yul\":2799:2828   */\n      swap1\n      pop\n        /* \"#utility.yul\":2650:2834   */\n      swap3\n      swap2\n      pop\n      pop\n      jump\t// out\n        /* \"#utility.yul\":2840:2972   */\n    tag_201:\n        /* \"#utility.yul\":2907:2911   */\n      0x00\n        /* \"#utility.yul\":2930:2933   */\n      dup2\n        /* \"#utility.yul\":2922:2933   */\n      swap1\n      pop\n        /* \"#utility.yul\":2960:2964   */\n      0x20\n        /* \"#utility.yul\":2955:2958   */\n      dup3\n        /* \"#utility.yul\":2951:2965   */\n      add\n        /* \"#utility.yul\":2943:2965   */\n      swap1\n      pop\n        /* \"#utility.yul\":2840:2972   */\n      swap2\n      swap1\n      pop\n      jump\t// out\n        /* \"#utility.yul\":2978:3086   */\n    tag_202:\n        /* \"#utility.yul\":3055:3079   */\n      tag_285\n        /* \"#utility.yul\":3073:3078   */\n      dup2\n        /* \"#utility.yul\":3055:3079   */\n      tag_187\n      jump\t// in\n    tag_285:\n        /* \"#utility.yul\":3050:3053   */\n      dup3\n        /* \"#utility.yul\":3043:3080   */\n      mstore\n        /* \"#utility.yul\":2978:3086   */\n      pop\n      pop\n      jump\t// out\n        /* \"#utility.yul\":3092:3271   */\n    tag_203:\n        /* \"#utility.yul\":3161:3171   */\n      0x00\n        /* \"#utility.yul\":3182:3228   */\n      tag_287\n        /* \"#utility.yul\":3224:3227   */\n      dup4\n        /* \"#utility.yul\":3216:3222   */\n      dup4\n        /* \"#utility.yul\":3182:3228   */\n      tag_202\n      jump\t// in\n    tag_287:\n        /* \"#utility.yul\":3260:3264   */\n      0x20\n        /* \"#utility.yul\":3255:3258   */\n      dup4\n        /* \"#utility.yul\":3251:3265   */\n      add\n        /* \"#utility.yul\":3237:3265   */\n      swap1\n      pop\n        /* \"#utility.yul\":3092:3271   */\n      swap3\n      swap2\n      pop\n      pop\n      jump\t// out\n        /* \"#utility.yul\":3277:3390   */\n    tag_204:\n        /* \"#utility.yul\":3347:3351   */\n      0x00\n        /* \"#utility.yul\":3379:3383   */\n      0x20\n        /* \"#utility.yul\":3374:3377   */\n      dup3\n        /* \"#utility.yul\":3370:3384   */\n      add\n        /* \"#utility.yul\":3362:3384   */\n      swap1\n      pop\n        /* \"#utility.yul\":3277:3390   */\n      swap2\n      swap1\n      pop\n      jump\t// out\n        /* \"#utility.yul\":3426:4158   */\n    tag_205:\n        /* \"#utility.yul\":3545:3548   */\n      0x00\n        /* \"#utility.yul\":3574:3628   */\n      tag_290\n        /* \"#utility.yul\":3622:3627   */\n      dup3\n        /* \"#utility.yul\":3574:3628   */\n      tag_199\n      jump\t// in\n    tag_290:\n        /* \"#utility.yul\":3644:3730   */\n      tag_291\n        /* \"#utility.yul\":3723:3729   */\n      dup2\n        /* \"#utility.yul\":3718:3721   */\n      dup6\n        /* \"#utility.yul\":3644:3730   */\n      tag_200\n      jump\t// in\n    tag_291:\n        /* \"#utility.yul\":3637:3730   */\n      swap4\n      pop\n        /* \"#utility.yul\":3754:3810   */\n      tag_292\n        /* \"#utility.yul\":3804:3809   */\n      dup4\n        /* \"#utility.yul\":3754:3810   */\n      tag_201\n      jump\t// in\n    tag_292:\n        /* \"#utility.yul\":3833:3840   */\n      dup1\n        /* \"#utility.yul\":3864:3865   */\n      0x00\n        /* \"#utility.yul\":3849:4133   */\n    tag_293:\n        /* \"#utility.yul\":3874:3880   */\n      dup4\n        /* \"#utility.yul\":3871:3872   */\n      dup2\n        /* \"#utility.yul\":3868:3881   */\n      lt\n        /* \"#utility.yul\":3849:4133   */\n      iszero\n      tag_295\n      jumpi\n        /* \"#utility.yul\":3950:3956   */\n      dup2\n        /* \"#utility.yul\":3944:3957   */\n      mload\n        /* \"#utility.yul\":3977:4040   */\n      tag_296\n        /* \"#utility.yul\":4036:4039   */\n      dup9\n        /* \"#utility.yul\":4021:4034   */\n      dup3\n        /* \"#utility.yul\":3977:4040   */\n      tag_203\n      jump\t// in\n    tag_296:\n        /* \"#utility.yul\":3970:4040   */\n      swap8\n      pop\n        /* \"#utility.yul\":4063:4123   */\n      tag_297\n        /* \"#utility.yul\":4116:4122   */\n      dup4\n        /* \"#utility.yul\":4063:4123   */\n      tag_204\n      jump\t// in\n    tag_297:\n        /* \"#utility.yul\":4053:4123   */\n      swap3\n      pop\n        /* \"#utility.yul\":3909:4133   */\n      pop\n        /* \"#utility.yul\":3896:3897   */\n      0x01\n        /* \"#utility.yul\":3893:3894   */\n      dup2\n        /* \"#utility.yul\":3889:3898   */\n      add\n        /* \"#utility.yul\":3884:3898   */\n      swap1\n      pop\n        /* \"#utility.yul\":3849:4133   */\n      jump(tag_293)\n    tag_295:\n        /* \"#utility.yul\":3853:3867   */\n      pop\n        /* \"#utility.yul\":4149:4152   */\n      dup6\n        /* \"#utility.yul\":4142:4152   */\n      swap4\n      pop\n        /* \"#utility.yul\":3550:4158   */\n      pop\n      pop\n      pop\n        /* \"#utility.yul\":3426:4158   */\n      swap3\n      swap2\n      pop\n      pop\n      jump\t// out\n        /* \"#utility.yul\":4164:5625   */\n    tag_11:\n        /* \"#utility.yul\":4585:4589   */\n      0x00\n        /* \"#utility.yul\":4623:4626   */\n      0xe0\n        /* \"#utility.yul\":4612:4621   */\n      dup3\n        /* \"#utility.yul\":4608:4627   */\n      add\n        /* \"#utility.yul\":4600:4627   */\n      swap1\n      pop\n        /* \"#utility.yul\":4637:4708   */\n      tag_299\n        /* \"#utility.yul\":4705:4706   */\n      0x00\n        /* \"#utility.yul\":4694:4703   */\n      dup4\n        /* \"#utility.yul\":4690:4707   */\n      add\n        /* \"#utility.yul\":4681:4687   */\n      dup11\n        /* \"#utility.yul\":4637:4708   */\n      tag_190\n      jump\t// in\n    tag_299:\n        /* \"#utility.yul\":4755:4764   */\n      dup2\n        /* \"#utility.yul\":4749:4753   */\n      dup2\n        /* \"#utility.yul\":4745:4765   */\n      sub\n        /* \"#utility.yul\":4740:4742   */\n      0x20\n        /* \"#utility.yul\":4729:4738   */\n      dup4\n        /* \"#utility.yul\":4725:4743   */\n      add\n        /* \"#utility.yul\":4718:4766   */\n      mstore\n        /* \"#utility.yul\":4783:4861   */\n      tag_300\n        /* \"#utility.yul\":4856:4860   */\n      dup2\n        /* \"#utility.yul\":4847:4853   */\n      dup10\n        /* \"#utility.yul\":4783:4861   */\n      tag_195\n      jump\t// in\n    tag_300:\n        /* \"#utility.yul\":4775:4861   */\n      swap1\n      pop\n        /* \"#utility.yul\":4908:4917   */\n      dup2\n        /* \"#utility.yul\":4902:4906   */\n      dup2\n        /* \"#utility.yul\":4898:4918   */\n      sub\n        /* \"#utility.yul\":4893:4895   */\n      0x40\n        /* \"#utility.yul\":4882:4891   */\n      dup4\n        /* \"#utility.yul\":4878:4896   */\n      add\n        /* \"#utility.yul\":4871:4919   */\n      mstore\n        /* \"#utility.yul\":4936:5014   */\n      tag_301\n        /* \"#utility.yul\":5009:5013   */\n      dup2\n        /* \"#utility.yul\":5000:5006   */\n      dup9\n        /* \"#utility.yul\":4936:5014   */\n      tag_195\n      jump\t// in\n    tag_301:\n        /* \"#utility.yul\":4928:5014   */\n      swap1\n      pop\n        /* \"#utility.yul\":5061:5070   */\n      dup2\n        /* \"#utility.yul\":5055:5059   */\n      dup2\n        /* \"#utility.yul\":5051:5071   */\n      sub\n        /* \"#utility.yul\":5046:5048   */\n      0x60\n        /* \"#utility.yul\":5035:5044   */\n      dup4\n        /* \"#utility.yul\":5031:5049   */\n      add\n        /* \"#utility.yul\":5024:5072   */\n      mstore\n        /* \"#utility.yul\":5089:5167   */\n      tag_302\n        /* \"#utility.yul\":5162:5166   */\n      dup2\n        /* \"#utility.yul\":5153:5159   */\n      dup8\n        /* \"#utility.yul\":5089:5167   */\n      tag_195\n      jump\t// in\n    tag_302:\n        /* \"#utility.yul\":5081:5167   */\n      swap1\n      pop\n        /* \"#utility.yul\":5177:5250   */\n      tag_303\n        /* \"#utility.yul\":5245:5248   */\n      0x80\n        /* \"#utility.yul\":5234:5243   */\n      dup4\n        /* \"#utility.yul\":5230:5249   */\n      add\n        /* \"#utility.yul\":5221:5227   */\n      dup7\n        /* \"#utility.yul\":5177:5250   */\n      tag_198\n      jump\t// in\n    tag_303:\n        /* \"#utility.yul\":5298:5307   */\n      dup2\n        /* \"#utility.yul\":5292:5296   */\n      dup2\n        /* \"#utility.yul\":5288:5308   */\n      sub\n        /* \"#utility.yul\":5282:5285   */\n      0xa0\n        /* \"#utility.yul\":5271:5280   */\n      dup4\n        /* \"#utility.yul\":5267:5286   */\n      add\n        /* \"#utility.yul\":5260:5309   */\n      mstore\n        /* \"#utility.yul\":5326:5434   */\n      tag_304\n        /* \"#utility.yul\":5429:5433   */\n      dup2\n        /* \"#utility.yul\":5420:5426   */\n      dup6\n        /* \"#utility.yul\":5326:5434   */\n      tag_205\n      jump\t// in\n    tag_304:\n        /* \"#utility.yul\":5318:5434   */\n      swap1\n      pop\n        /* \"#utility.yul\":5482:5491   */\n      dup2\n        /* \"#utility.yul\":5476:5480   */\n      dup2\n        /* \"#utility.yul\":5472:5492   */\n      sub\n        /* \"#utility.yul\":5466:5469   */\n      0xc0\n        /* \"#utility.yul\":5455:5464   */\n      dup4\n        /* \"#utility.yul\":5451:5470   */\n      add\n        /* \"#utility.yul\":5444:5493   */\n      mstore\n        /* \"#utility.yul\":5510:5618   */\n      tag_305\n        /* \"#utility.yul\":5613:5617   */\n      dup2\n        /* \"#utility.yul\":5604:5610   */\n      dup5\n        /* \"#utility.yul\":5510:5618   */\n      tag_205\n      jump\t// in\n    tag_305:\n        /* \"#utility.yul\":5502:5618   */\n      swap1\n      pop\n        /* \"#utility.yul\":4164:5625   */\n      swap9\n      swap8\n      pop\n      pop\n      pop\n      pop\n      pop\n      pop\n      pop\n      pop\n      jump\t// out\n        /* \"#utility.yul\":5631:5748   */\n    tag_206:\n        /* \"#utility.yul\":5740:5741   */\n      0x00\n        /* \"#utility.yul\":5737:5738   */\n      dup1\n        /* \"#utility.yul\":5730:5742   */\n      revert\n        /* \"#utility.yul\":5754:5871   */\n    tag_207:\n        /* \"#utility.yul\":5863:5864   */\n      0x00\n        /* \"#utility.yul\":5860:5861   */\n      dup1\n        /* \"#utility.yul\":5853:5865   */\n      revert\n        /* \"#utility.yul\":5877:6057   */\n    tag_51:\n        /* \"#utility.yul\":5925:6002   */\n      0x4e487b7100000000000000000000000000000000000000000000000000000000\n        /* \"#utility.yul\":5922:5923   */\n      0x00\n        /* \"#utility.yul\":5915:6003   */\n      mstore\n        /* \"#utility.yul\":6022:6026   */\n      0x41\n        /* \"#utility.yul\":6019:6020   */\n      0x04\n        /* \"#utility.yul\":6012:6027   */\n      mstore\n        /* \"#utility.yul\":6046:6050   */\n      0x24\n        /* \"#utility.yul\":6043:6044   */\n      0x00\n        /* \"#utility.yul\":6036:6051   */\n      revert\n        /* \"#utility.yul\":6063:6344   */\n    tag_208:\n        /* \"#utility.yul\":6146:6173   */\n      tag_310\n        /* \"#utility.yul\":6168:6172   */\n      dup3\n        /* \"#utility.yul\":6146:6173   */\n      tag_194\n      jump\t// in\n    tag_310:\n        /* \"#utility.yul\":6138:6144   */\n      dup2\n        /* \"#utility.yul\":6134:6174   */\n      add\n        /* \"#utility.yul\":6276:6282   */\n      dup2\n        /* \"#utility.yul\":6264:6274   */\n      dup2\n        /* \"#utility.yul\":6261:6283   */\n      lt\n        /* \"#utility.yul\":6240:6258   */\n      0xffffffffffffffff\n        /* \"#utility.yul\":6228:6238   */\n      dup3\n        /* \"#utility.yul\":6225:6259   */\n      gt\n        /* \"#utility.yul\":6222:6284   */\n      or\n        /* \"#utility.yul\":6219:6307   */\n      iszero\n      tag_311\n      jumpi\n        /* \"#utility.yul\":6287:6305   */\n      tag_312\n      tag_51\n      jump\t// in\n    tag_312:\n        /* \"#utility.yul\":6219:6307   */\n    tag_311:\n        /* \"#utility.yul\":6327:6337   */\n      dup1\n        /* \"#utility.yul\":6323:6325   */\n      0x40\n        /* \"#utility.yul\":6316:6338   */\n      mstore\n        /* \"#utility.yul\":6106:6344   */\n      pop\n        /* \"#utility.yul\":6063:6344   */\n      pop\n      pop\n      jump\t// out\n        /* \"#utility.yul\":6350:6479   */\n    tag_209:\n        /* \"#utility.yul\":6384:6390   */\n      0x00\n        /* \"#utility.yul\":6411:6431   */\n      tag_314\n      tag_184\n      jump\t// in\n    tag_314:\n        /* \"#utility.yul\":6401:6431   */\n      swap1\n      pop\n        /* \"#utility.yul\":6440:6473   */\n      tag_315\n        /* \"#utility.yul\":6468:6472   */\n      dup3\n        /* \"#utility.yul\":6460:6466   */\n      dup3\n        /* \"#utility.yul\":6440:6473   */\n      tag_208\n      jump\t// in\n    tag_315:\n        /* \"#utility.yul\":6350:6479   */\n      swap2\n      swap1\n      pop\n      jump\t// out\n        /* \"#utility.yul\":6485:6793   */\n    tag_210:\n        /* \"#utility.yul\":6547:6551   */\n      0x00\n        /* \"#utility.yul\":6637:6655   */\n      0xffffffffffffffff\n        /* \"#utility.yul\":6629:6635   */\n      dup3\n        /* \"#utility.yul\":6626:6656   */\n      gt\n        /* \"#utility.yul\":6623:6679   */\n      iszero\n      tag_317\n      jumpi\n        /* \"#utility.yul\":6659:6677   */\n      tag_318\n      tag_51\n      jump\t// in\n    tag_318:\n        /* \"#utility.yul\":6623:6679   */\n    tag_317:\n        /* \"#utility.yul\":6697:6726   */\n      tag_319\n        /* \"#utility.yul\":6719:6725   */\n      dup3\n        /* \"#utility.yul\":6697:6726   */\n      tag_194\n      jump\t// in\n    tag_319:\n        /* \"#utility.yul\":6689:6726   */\n      swap1\n      pop\n        /* \"#utility.yul\":6781:6785   */\n      0x20\n        /* \"#utility.yul\":6775:6779   */\n      dup2\n        /* \"#utility.yul\":6771:6786   */\n      add\n        /* \"#utility.yul\":6763:6786   */\n      swap1\n      pop\n        /* \"#utility.yul\":6485:6793   */\n      swap2\n      swap1\n      pop\n      jump\t// out\n        /* \"#utility.yul\":6799:6945   */\n    tag_211:\n        /* \"#utility.yul\":6896:6902   */\n      dup3\n        /* \"#utility.yul\":6891:6894   */\n      dup2\n        /* \"#utility.yul\":6886:6889   */\n      dup4\n        /* \"#utility.yul\":6873:6903   */\n      calldatacopy\n        /* \"#utility.yul\":6937:6938   */\n      0x00\n        /* \"#utility.yul\":6928:6934   */\n      dup4\n        /* \"#utility.yul\":6923:6926   */\n      dup4\n        /* \"#utility.yul\":6919:6935   */\n      add\n        /* \"#utility.yul\":6912:6939   */\n      mstore\n        /* \"#utility.yul\":6799:6945   */\n      pop\n      pop\n      pop\n      jump\t// out\n        /* \"#utility.yul\":6951:7376   */\n    tag_212:\n        /* \"#utility.yul\":7029:7034   */\n      0x00\n        /* \"#utility.yul\":7054:7120   */\n      tag_322\n        /* \"#utility.yul\":7070:7119   */\n      tag_323\n        /* \"#utility.yul\":7112:7118   */\n      dup5\n        /* \"#utility.yul\":7070:7119   */\n      tag_210\n      jump\t// in\n    tag_323:\n        /* \"#utility.yul\":7054:7120   */\n      tag_209\n      jump\t// in\n    tag_322:\n        /* \"#utility.yul\":7045:7120   */\n      swap1\n      pop\n        /* \"#utility.yul\":7143:7149   */\n      dup3\n        /* \"#utility.yul\":7136:7141   */\n      dup2\n        /* \"#utility.yul\":7129:7150   */\n      mstore\n        /* \"#utility.yul\":7181:7185   */\n      0x20\n        /* \"#utility.yul\":7174:7179   */\n      dup2\n        /* \"#utility.yul\":7170:7186   */\n      add\n        /* \"#utility.yul\":7219:7222   */\n      dup5\n        /* \"#utility.yul\":7210:7216   */\n      dup5\n        /* \"#utility.yul\":7205:7208   */\n      dup5\n        /* \"#utility.yul\":7201:7217   */\n      add\n        /* \"#utility.yul\":7198:7223   */\n      gt\n        /* \"#utility.yul\":7195:7307   */\n      iszero\n      tag_324\n      jumpi\n        /* \"#utility.yul\":7226:7305   */\n      tag_325\n      tag_207\n      jump\t// in\n    tag_325:\n        /* \"#utility.yul\":7195:7307   */\n    tag_324:\n        /* \"#utility.yul\":7316:7370   */\n      tag_326\n        /* \"#utility.yul\":7363:7369   */\n      dup5\n        /* \"#utility.yul\":7358:7361   */\n      dup3\n        /* \"#utility.yul\":7353:7356   */\n      dup6\n        /* \"#utility.yul\":7316:7370   */\n      tag_211\n      jump\t// in\n    tag_326:\n        /* \"#utility.yul\":7035:7376   */\n      pop\n        /* \"#utility.yul\":6951:7376   */\n      swap4\n      swap3\n      pop\n      pop\n      pop\n      jump\t// out\n        /* \"#utility.yul\":7396:7736   */\n    tag_213:\n        /* \"#utility.yul\":7452:7457   */\n      0x00\n        /* \"#utility.yul\":7501:7504   */\n      dup3\n        /* \"#utility.yul\":7494:7498   */\n      0x1f\n        /* \"#utility.yul\":7486:7492   */\n      dup4\n        /* \"#utility.yul\":7482:7499   */\n      add\n        /* \"#utility.yul\":7478:7505   */\n      slt\n        /* \"#utility.yul\":7468:7590   */\n      tag_328\n      jumpi\n        /* \"#utility.yul\":7509:7588   */\n      tag_329\n      tag_206\n      jump\t// in\n    tag_329:\n        /* \"#utility.yul\":7468:7590   */\n    tag_328:\n        /* \"#utility.yul\":7626:7632   */\n      dup2\n        /* \"#utility.yul\":7613:7633   */\n      calldataload\n        /* \"#utility.yul\":7651:7730   */\n      tag_330\n        /* \"#utility.yul\":7726:7729   */\n      dup5\n        /* \"#utility.yul\":7718:7724   */\n      dup3\n        /* \"#utility.yul\":7711:7715   */\n      0x20\n        /* \"#utility.yul\":7703:7709   */\n      dup7\n        /* \"#utility.yul\":7699:7716   */\n      add\n        /* \"#utility.yul\":7651:7730   */\n      tag_212\n      jump\t// in\n    tag_330:\n        /* \"#utility.yul\":7642:7730   */\n      swap2\n      pop\n        /* \"#utility.yul\":7458:7736   */\n      pop\n        /* \"#utility.yul\":7396:7736   */\n      swap3\n      swap2\n      pop\n      pop\n      jump\t// out\n        /* \"#utility.yul\":7742:8053   */\n    tag_214:\n        /* \"#utility.yul\":7819:7823   */\n      0x00\n        /* \"#utility.yul\":7909:7927   */\n      0xffffffffffffffff\n        /* \"#utility.yul\":7901:7907   */\n      dup3\n        /* \"#utility.yul\":7898:7928   */\n      gt\n        /* \"#utility.yul\":7895:7951   */\n      iszero\n      tag_332\n      jumpi\n        /* \"#utility.yul\":7931:7949   */\n      tag_333\n      tag_51\n      jump\t// in\n    tag_333:\n        /* \"#utility.yul\":7895:7951   */\n    tag_332:\n        /* \"#utility.yul\":7981:7985   */\n      0x20\n        /* \"#utility.yul\":7973:7979   */\n      dup3\n        /* \"#utility.yul\":7969:7986   */\n      mul\n        /* \"#utility.yul\":7961:7986   */\n      swap1\n      pop\n        /* \"#utility.yul\":8041:8045   */\n      0x20\n        /* \"#utility.yul\":8035:8039   */\n      dup2\n        /* \"#utility.yul\":8031:8046   */\n      add\n        /* \"#utility.yul\":8023:8046   */\n      swap1\n      pop\n        /* \"#utility.yul\":7742:8053   */\n      swap2\n      swap1\n      pop\n      jump\t// out\n        /* \"#utility.yul\":8059:8176   */\n    tag_215:\n        /* \"#utility.yul\":8168:8169   */\n      0x00\n        /* \"#utility.yul\":8165:8166   */\n      dup1\n        /* \"#utility.yul\":8158:8170   */\n      revert\n        /* \"#utility.yul\":8199:8909   */\n    tag_216:\n        /* \"#utility.yul\":8295:8300   */\n      0x00\n        /* \"#utility.yul\":8320:8401   */\n      tag_336\n        /* \"#utility.yul\":8336:8400   */\n      tag_337\n        /* \"#utility.yul\":8393:8399   */\n      dup5\n        /* \"#utility.yul\":8336:8400   */\n      tag_214\n      jump\t// in\n    tag_337:\n        /* \"#utility.yul\":8320:8401   */\n      tag_209\n      jump\t// in\n    tag_336:\n        /* \"#utility.yul\":8311:8401   */\n      swap1\n      pop\n        /* \"#utility.yul\":8421:8426   */\n      dup1\n        /* \"#utility.yul\":8450:8456   */\n      dup4\n        /* \"#utility.yul\":8443:8448   */\n      dup3\n        /* \"#utility.yul\":8436:8457   */\n      mstore\n        /* \"#utility.yul\":8484:8488   */\n      0x20\n        /* \"#utility.yul\":8477:8482   */\n      dup3\n        /* \"#utility.yul\":8473:8489   */\n      add\n        /* \"#utility.yul\":8466:8489   */\n      swap1\n      pop\n        /* \"#utility.yul\":8537:8541   */\n      0x20\n        /* \"#utility.yul\":8529:8535   */\n      dup5\n        /* \"#utility.yul\":8525:8542   */\n      mul\n        /* \"#utility.yul\":8517:8523   */\n      dup4\n        /* \"#utility.yul\":8513:8543   */\n      add\n        /* \"#utility.yul\":8566:8569   */\n      dup6\n        /* \"#utility.yul\":8558:8564   */\n      dup2\n        /* \"#utility.yul\":8555:8570   */\n      gt\n        /* \"#utility.yul\":8552:8674   */\n      iszero\n      tag_338\n      jumpi\n        /* \"#utility.yul\":8585:8664   */\n      tag_339\n      tag_215\n      jump\t// in\n    tag_339:\n        /* \"#utility.yul\":8552:8674   */\n    tag_338:\n        /* \"#utility.yul\":8700:8706   */\n      dup4\n        /* \"#utility.yul\":8683:8903   */\n    tag_340:\n        /* \"#utility.yul\":8717:8723   */\n      dup2\n        /* \"#utility.yul\":8712:8715   */\n      dup2\n        /* \"#utility.yul\":8709:8724   */\n      lt\n        /* \"#utility.yul\":8683:8903   */\n      iszero\n      tag_342\n      jumpi\n        /* \"#utility.yul\":8792:8795   */\n      dup1\n        /* \"#utility.yul\":8821:8858   */\n      tag_343\n        /* \"#utility.yul\":8854:8857   */\n      dup9\n        /* \"#utility.yul\":8842:8852   */\n      dup3\n        /* \"#utility.yul\":8821:8858   */\n      tag_189\n      jump\t// in\n    tag_343:\n        /* \"#utility.yul\":8816:8819   */\n      dup5\n        /* \"#utility.yul\":8809:8859   */\n      mstore\n        /* \"#utility.yul\":8888:8892   */\n      0x20\n        /* \"#utility.yul\":8883:8886   */\n      dup5\n        /* \"#utility.yul\":8879:8893   */\n      add\n        /* \"#utility.yul\":8872:8893   */\n      swap4\n      pop\n        /* \"#utility.yul\":8759:8903   */\n      pop\n        /* \"#utility.yul\":8743:8747   */\n      0x20\n        /* \"#utility.yul\":8738:8741   */\n      dup2\n        /* \"#utility.yul\":8734:8748   */\n      add\n        /* \"#utility.yul\":8727:8748   */\n      swap1\n      pop\n        /* \"#utility.yul\":8683:8903   */\n      jump(tag_340)\n    tag_342:\n        /* \"#utility.yul\":8687:8708   */\n      pop\n        /* \"#utility.yul\":8301:8909   */\n      pop\n      pop\n        /* \"#utility.yul\":8199:8909   */\n      swap4\n      swap3\n      pop\n      pop\n      pop\n      jump\t// out\n        /* \"#utility.yul\":8932:9302   */\n    tag_217:\n        /* \"#utility.yul\":9003:9008   */\n      0x00\n        /* \"#utility.yul\":9052:9055   */\n      dup3\n        /* \"#utility.yul\":9045:9049   */\n      0x1f\n        /* \"#utility.yul\":9037:9043   */\n      dup4\n        /* \"#utility.yul\":9033:9050   */\n      add\n        /* \"#utility.yul\":9029:9056   */\n      slt\n        /* \"#utility.yul\":9019:9141   */\n      tag_345\n      jumpi\n        /* \"#utility.yul\":9060:9139   */\n      tag_346\n      tag_206\n      jump\t// in\n    tag_346:\n        /* \"#utility.yul\":9019:9141   */\n    tag_345:\n        /* \"#utility.yul\":9177:9183   */\n      dup2\n        /* \"#utility.yul\":9164:9184   */\n      calldataload\n        /* \"#utility.yul\":9202:9296   */\n      tag_347\n        /* \"#utility.yul\":9292:9295   */\n      dup5\n        /* \"#utility.yul\":9284:9290   */\n      dup3\n        /* \"#utility.yul\":9277:9281   */\n      0x20\n        /* \"#utility.yul\":9269:9275   */\n      dup7\n        /* \"#utility.yul\":9265:9282   */\n      add\n        /* \"#utility.yul\":9202:9296   */\n      tag_216\n      jump\t// in\n    tag_347:\n        /* \"#utility.yul\":9193:9296   */\n      swap2\n      pop\n        /* \"#utility.yul\":9009:9302   */\n      pop\n        /* \"#utility.yul\":8932:9302   */\n      swap3\n      swap2\n      pop\n      pop\n      jump\t// out\n        /* \"#utility.yul\":9308:11179   */\n    tag_14:\n        /* \"#utility.yul\":9483:9489   */\n      0x00\n        /* \"#utility.yul\":9491:9497   */\n      dup1\n        /* \"#utility.yul\":9499:9505   */\n      0x00\n        /* \"#utility.yul\":9507:9513   */\n      dup1\n        /* \"#utility.yul\":9515:9521   */\n      0x00\n        /* \"#utility.yul\":9564:9567   */\n      0xa0\n        /* \"#utility.yul\":9552:9561   */\n      dup7\n        /* \"#utility.yul\":9543:9550   */\n      dup9\n        /* \"#utility.yul\":9539:9562   */\n      sub\n        /* \"#utility.yul\":9535:9568   */\n      slt\n        /* \"#utility.yul\":9532:9652   */\n      iszero\n      tag_349\n      jumpi\n        /* \"#utility.yul\":9571:9650   */\n      tag_350\n      tag_185\n      jump\t// in\n    tag_350:\n        /* \"#utility.yul\":9532:9652   */\n    tag_349:\n        /* \"#utility.yul\":9719:9720   */\n      0x00\n        /* \"#utility.yul\":9708:9717   */\n      dup7\n        /* \"#utility.yul\":9704:9721   */\n      add\n        /* \"#utility.yul\":9691:9722   */\n      calldataload\n        /* \"#utility.yul\":9749:9767   */\n      0xffffffffffffffff\n        /* \"#utility.yul\":9741:9747   */\n      dup2\n        /* \"#utility.yul\":9738:9768   */\n      gt\n        /* \"#utility.yul\":9735:9852   */\n      iszero\n      tag_351\n      jumpi\n        /* \"#utility.yul\":9771:9850   */\n      tag_352\n      tag_186\n      jump\t// in\n    tag_352:\n        /* \"#utility.yul\":9735:9852   */\n    tag_351:\n        /* \"#utility.yul\":9876:9939   */\n      tag_353\n        /* \"#utility.yul\":9931:9938   */\n      dup9\n        /* \"#utility.yul\":9922:9928   */\n      dup3\n        /* \"#utility.yul\":9911:9920   */\n      dup10\n        /* \"#utility.yul\":9907:9929   */\n      add\n        /* \"#utility.yul\":9876:9939   */\n      tag_213\n      jump\t// in\n    tag_353:\n        /* \"#utility.yul\":9866:9939   */\n      swap6\n      pop\n        /* \"#utility.yul\":9662:9949   */\n      pop\n        /* \"#utility.yul\":10016:10018   */\n      0x20\n        /* \"#utility.yul\":10005:10014   */\n      dup7\n        /* \"#utility.yul\":10001:10019   */\n      add\n        /* \"#utility.yul\":9988:10020   */\n      calldataload\n        /* \"#utility.yul\":10047:10065   */\n      0xffffffffffffffff\n        /* \"#utility.yul\":10039:10045   */\n      dup2\n        /* \"#utility.yul\":10036:10066   */\n      gt\n        /* \"#utility.yul\":10033:10150   */\n      iszero\n      tag_354\n      jumpi\n        /* \"#utility.yul\":10069:10148   */\n      tag_355\n      tag_186\n      jump\t// in\n    tag_355:\n        /* \"#utility.yul\":10033:10150   */\n    tag_354:\n        /* \"#utility.yul\":10174:10237   */\n      tag_356\n        /* \"#utility.yul\":10229:10236   */\n      dup9\n        /* \"#utility.yul\":10220:10226   */\n      dup3\n        /* \"#utility.yul\":10209:10218   */\n      dup10\n        /* \"#utility.yul\":10205:10227   */\n      add\n        /* \"#utility.yul\":10174:10237   */\n      tag_213\n      jump\t// in\n    tag_356:\n        /* \"#utility.yul\":10164:10237   */\n      swap5\n      pop\n        /* \"#utility.yul\":9959:10247   */\n      pop\n        /* \"#utility.yul\":10314:10316   */\n      0x40\n        /* \"#utility.yul\":10303:10312   */\n      dup7\n        /* \"#utility.yul\":10299:10317   */\n      add\n        /* \"#utility.yul\":10286:10318   */\n      calldataload\n        /* \"#utility.yul\":10345:10363   */\n      0xffffffffffffffff\n        /* \"#utility.yul\":10337:10343   */\n      dup2\n        /* \"#utility.yul\":10334:10364   */\n      gt\n        /* \"#utility.yul\":10331:10448   */\n      iszero\n      tag_357\n      jumpi\n        /* \"#utility.yul\":10367:10446   */\n      tag_358\n      tag_186\n      jump\t// in\n    tag_358:\n        /* \"#utility.yul\":10331:10448   */\n    tag_357:\n        /* \"#utility.yul\":10472:10535   */\n      tag_359\n        /* \"#utility.yul\":10527:10534   */\n      dup9\n        /* \"#utility.yul\":10518:10524   */\n      dup3\n        /* \"#utility.yul\":10507:10516   */\n      dup10\n        /* \"#utility.yul\":10503:10525   */\n      add\n        /* \"#utility.yul\":10472:10535   */\n      tag_213\n      jump\t// in\n    tag_359:\n        /* \"#utility.yul\":10462:10535   */\n      swap4\n      pop\n        /* \"#utility.yul\":10257:10545   */\n      pop\n        /* \"#utility.yul\":10612:10614   */\n      0x60\n        /* \"#utility.yul\":10601:10610   */\n      dup7\n        /* \"#utility.yul\":10597:10615   */\n      add\n        /* \"#utility.yul\":10584:10616   */\n      calldataload\n        /* \"#utility.yul\":10643:10661   */\n      0xffffffffffffffff\n        /* \"#utility.yul\":10635:10641   */\n      dup2\n        /* \"#utility.yul\":10632:10662   */\n      gt\n        /* \"#utility.yul\":10629:10746   */\n      iszero\n      tag_360\n      jumpi\n        /* \"#utility.yul\":10665:10744   */\n      tag_361\n      tag_186\n      jump\t// in\n    tag_361:\n        /* \"#utility.yul\":10629:10746   */\n    tag_360:\n        /* \"#utility.yul\":10770:10848   */\n      tag_362\n        /* \"#utility.yul\":10840:10847   */\n      dup9\n        /* \"#utility.yul\":10831:10837   */\n      dup3\n        /* \"#utility.yul\":10820:10829   */\n      dup10\n        /* \"#utility.yul\":10816:10838   */\n      add\n        /* \"#utility.yul\":10770:10848   */\n      tag_217\n      jump\t// in\n    tag_362:\n        /* \"#utility.yul\":10760:10848   */\n      swap3\n      pop\n        /* \"#utility.yul\":10555:10858   */\n      pop\n        /* \"#utility.yul\":10925:10928   */\n      0x80\n        /* \"#utility.yul\":10914:10923   */\n      dup7\n        /* \"#utility.yul\":10910:10929   */\n      add\n        /* \"#utility.yul\":10897:10930   */\n      calldataload\n        /* \"#utility.yul\":10957:10975   */\n      0xffffffffffffffff\n        /* \"#utility.yul\":10949:10955   */\n      dup2\n        /* \"#utility.yul\":10946:10976   */\n      gt\n        /* \"#utility.yul\":10943:11060   */\n      iszero\n      tag_363\n      jumpi\n        /* \"#utility.yul\":10979:11058   */\n      tag_364\n      tag_186\n      jump\t// in\n    tag_364:\n        /* \"#utility.yul\":10943:11060   */\n    tag_363:\n        /* \"#utility.yul\":11084:11162   */\n      tag_365\n        /* \"#utility.yul\":11154:11161   */\n      dup9\n        /* \"#utility.yul\":11145:11151   */\n      dup3\n        /* \"#utility.yul\":11134:11143   */\n      dup10\n        /* \"#utility.yul\":11130:11152   */\n      add\n        /* \"#utility.yul\":11084:11162   */\n      tag_217\n      jump\t// in\n    tag_365:\n        /* \"#utility.yul\":11074:11162   */\n      swap2\n      pop\n        /* \"#utility.yul\":10868:11172   */\n      pop\n        /* \"#utility.yul\":9308:11179   */\n      swap3\n      swap6\n      pop\n      swap3\n      swap6\n      swap1\n      swap4\n      pop\n      jump\t// out\n        /* \"#utility.yul\":11185:12122   */\n    tag_20:\n        /* \"#utility.yul\":11450:11454   */\n      0x00\n        /* \"#utility.yul\":11488:11491   */\n      0xa0\n        /* \"#utility.yul\":11477:11486   */\n      dup3\n        /* \"#utility.yul\":11473:11492   */\n      add\n        /* \"#utility.yul\":11465:11492   */\n      swap1\n      pop\n        /* \"#utility.yul\":11502:11573   */\n      tag_367\n        /* \"#utility.yul\":11570:11571   */\n      0x00\n        /* \"#utility.yul\":11559:11568   */\n      dup4\n        /* \"#utility.yul\":11555:11572   */\n      add\n        /* \"#utility.yul\":11546:11552   */\n      dup9\n        /* \"#utility.yul\":11502:11573   */\n      tag_190\n      jump\t// in\n    tag_367:\n        /* \"#utility.yul\":11620:11629   */\n      dup2\n        /* \"#utility.yul\":11614:11618   */\n      dup2\n        /* \"#utility.yul\":11610:11630   */\n      sub\n        /* \"#utility.yul\":11605:11607   */\n      0x20\n        /* \"#utility.yul\":11594:11603   */\n      dup4\n        /* \"#utility.yul\":11590:11608   */\n      add\n        /* \"#utility.yul\":11583:11631   */\n      mstore\n        /* \"#utility.yul\":11648:11726   */\n      tag_368\n        /* \"#utility.yul\":11721:11725   */\n      dup2\n        /* \"#utility.yul\":11712:11718   */\n      dup8\n        /* \"#utility.yul\":11648:11726   */\n      tag_195\n      jump\t// in\n    tag_368:\n        /* \"#utility.yul\":11640:11726   */\n      swap1\n      pop\n        /* \"#utility.yul\":11773:11782   */\n      dup2\n        /* \"#utility.yul\":11767:11771   */\n      dup2\n        /* \"#utility.yul\":11763:11783   */\n      sub\n        /* \"#utility.yul\":11758:11760   */\n      0x40\n        /* \"#utility.yul\":11747:11756   */\n      dup4\n        /* \"#utility.yul\":11743:11761   */\n      add\n        /* \"#utility.yul\":11736:11784   */\n      mstore\n        /* \"#utility.yul\":11801:11879   */\n      tag_369\n        /* \"#utility.yul\":11874:11878   */\n      dup2\n        /* \"#utility.yul\":11865:11871   */\n      dup7\n        /* \"#utility.yul\":11801:11879   */\n      tag_195\n      jump\t// in\n    tag_369:\n        /* \"#utility.yul\":11793:11879   */\n      swap1\n      pop\n        /* \"#utility.yul\":11926:11935   */\n      dup2\n        /* \"#utility.yul\":11920:11924   */\n      dup2\n        /* \"#utility.yul\":11916:11936   */\n      sub\n        /* \"#utility.yul\":11911:11913   */\n      0x60\n        /* \"#utility.yul\":11900:11909   */\n      dup4\n        /* \"#utility.yul\":11896:11914   */\n      add\n        /* \"#utility.yul\":11889:11937   */\n      mstore\n        /* \"#utility.yul\":11954:12032   */\n      tag_370\n        /* \"#utility.yul\":12027:12031   */\n      dup2\n        /* \"#utility.yul\":12018:12024   */\n      dup6\n        /* \"#utility.yul\":11954:12032   */\n      tag_195\n      jump\t// in\n    tag_370:\n        /* \"#utility.yul\":11946:12032   */\n      swap1\n      pop\n        /* \"#utility.yul\":12042:12115   */\n      tag_371\n        /* \"#utility.yul\":12110:12113   */\n      0x80\n        /* \"#utility.yul\":12099:12108   */\n      dup4\n        /* \"#utility.yul\":12095:12114   */\n      add\n        /* \"#utility.yul\":12086:12092   */\n      dup5\n        /* \"#utility.yul\":12042:12115   */\n      tag_198\n      jump\t// in\n    tag_371:\n        /* \"#utility.yul\":11185:12122   */\n      swap7\n      swap6\n      pop\n      pop\n      pop\n      pop\n      pop\n      pop\n      jump\t// out\n        /* \"#utility.yul\":12128:12296   */\n    tag_218:\n        /* \"#utility.yul\":12268:12288   */\n      0x496e76616c69642061727469636c652049440000000000000000000000000000\n        /* \"#utility.yul\":12264:12265   */\n      0x00\n        /* \"#utility.yul\":12256:12262   */\n      dup3\n        /* \"#utility.yul\":12252:12266   */\n      add\n        /* \"#utility.yul\":12245:12289   */\n      mstore\n        /* \"#utility.yul\":12128:12296   */\n      pop\n      jump\t// out\n        /* \"#utility.yul\":12302:12668   */\n    tag_219:\n        /* \"#utility.yul\":12444:12447   */\n      0x00\n        /* \"#utility.yul\":12465:12532   */\n      tag_374\n        /* \"#utility.yul\":12529:12531   */\n      0x12\n        /* \"#utility.yul\":12524:12527   */\n      dup4\n        /* \"#utility.yul\":12465:12532   */\n      tag_192\n      jump\t// in\n    tag_374:\n        /* \"#utility.yul\":12458:12532   */\n      swap2\n      pop\n        /* \"#utility.yul\":12541:12634   */\n      tag_375\n        /* \"#utility.yul\":12630:12633   */\n      dup3\n        /* \"#utility.yul\":12541:12634   */\n      tag_218\n      jump\t// in\n    tag_375:\n        /* \"#utility.yul\":12659:12661   */\n      0x20\n        /* \"#utility.yul\":12654:12657   */\n      dup3\n        /* \"#utility.yul\":12650:12662   */\n      add\n        /* \"#utility.yul\":12643:12662   */\n      swap1\n      pop\n        /* \"#utility.yul\":12302:12668   */\n      swap2\n      swap1\n      pop\n      jump\t// out\n        /* \"#utility.yul\":12674:13093   */\n    tag_24:\n        /* \"#utility.yul\":12840:12844   */\n      0x00\n        /* \"#utility.yul\":12878:12880   */\n      0x20\n        /* \"#utility.yul\":12867:12876   */\n      dup3\n        /* \"#utility.yul\":12863:12881   */\n      add\n        /* \"#utility.yul\":12855:12881   */\n      swap1\n      pop\n        /* \"#utility.yul\":12927:12936   */\n      dup2\n        /* \"#utility.yul\":12921:12925   */\n      dup2\n        /* \"#utility.yul\":12917:12937   */\n      sub\n        /* \"#utility.yul\":12913:12914   */\n      0x00\n        /* \"#utility.yul\":12902:12911   */\n      dup4\n        /* \"#utility.yul\":12898:12915   */\n      add\n        /* \"#utility.yul\":12891:12938   */\n      mstore\n        /* \"#utility.yul\":12955:13086   */\n      tag_377\n        /* \"#utility.yul\":13081:13085   */\n      dup2\n        /* \"#utility.yul\":12955:13086   */\n      tag_219\n      jump\t// in\n    tag_377:\n        /* \"#utility.yul\":12947:13086   */\n      swap1\n      pop\n        /* \"#utility.yul\":12674:13093   */\n      swap2\n      swap1\n      pop\n      jump\t// out\n        /* \"#utility.yul\":13099:13279   */\n    tag_27:\n        /* \"#utility.yul\":13147:13224   */\n      0x4e487b7100000000000000000000000000000000000000000000000000000000\n        /* \"#utility.yul\":13144:13145   */\n      0x00\n        /* \"#utility.yul\":13137:13225   */\n      mstore\n        /* \"#utility.yul\":13244:13248   */\n      0x32\n        /* \"#utility.yul\":13241:13242   */\n      0x04\n        /* \"#utility.yul\":13234:13249   */\n      mstore\n        /* \"#utility.yul\":13268:13272   */\n      0x24\n        /* \"#utility.yul\":13265:13266   */\n      0x00\n        /* \"#utility.yul\":13258:13273   */\n      revert\n        /* \"#utility.yul\":13285:13465   */\n    tag_220:\n        /* \"#utility.yul\":13333:13410   */\n      0x4e487b7100000000000000000000000000000000000000000000000000000000\n        /* \"#utility.yul\":13330:13331   */\n      0x00\n        /* \"#utility.yul\":13323:13411   */\n      mstore\n        /* \"#utility.yul\":13430:13434   */\n      0x22\n        /* \"#utility.yul\":13427:13428   */\n      0x04\n        /* \"#utility.yul\":13420:13435   */\n      mstore\n        /* \"#utility.yul\":13454:13458   */\n      0x24\n        /* \"#utility.yul\":13451:13452   */\n      0x00\n        /* \"#utility.yul\":13444:13459   */\n      revert\n        /* \"#utility.yul\":13471:13791   */\n    tag_30:\n        /* \"#utility.yul\":13515:13521   */\n      0x00\n        /* \"#utility.yul\":13552:13553   */\n      0x02\n        /* \"#utility.yul\":13546:13550   */\n      dup3\n        /* \"#utility.yul\":13542:13554   */\n      div\n        /* \"#utility.yul\":13532:13554   */\n      swap1\n      pop\n        /* \"#utility.yul\":13599:13600   */\n      0x01\n        /* \"#utility.yul\":13593:13597   */\n      dup3\n        /* \"#utility.yul\":13589:13601   */\n      and\n        /* \"#utility.yul\":13620:13638   */\n      dup1\n        /* \"#utility.yul\":13610:13691   */\n      tag_381\n      jumpi\n        /* \"#utility.yul\":13676:13680   */\n      0x7f\n        /* \"#utility.yul\":13668:13674   */\n      dup3\n        /* \"#utility.yul\":13664:13681   */\n      and\n        /* \"#utility.yul\":13654:13681   */\n      swap2\n      pop\n        /* \"#utility.yul\":13610:13691   */\n    tag_381:\n        /* \"#utility.yul\":13738:13740   */\n      0x20\n        /* \"#utility.yul\":13730:13736   */\n      dup3\n        /* \"#utility.yul\":13727:13741   */\n      lt\n        /* \"#utility.yul\":13707:13725   */\n      dup2\n        /* \"#utility.yul\":13704:13742   */\n      sub\n        /* \"#utility.yul\":13701:13785   */\n      tag_382\n      jumpi\n        /* \"#utility.yul\":13757:13775   */\n      tag_383\n      tag_220\n      jump\t// in\n    tag_383:\n        /* \"#utility.yul\":13701:13785   */\n    tag_382:\n        /* \"#utility.yul\":13522:13791   */\n      pop\n        /* \"#utility.yul\":13471:13791   */\n      swap2\n      swap1\n      pop\n      jump\t// out\n        /* \"#utility.yul\":13797:13977   */\n    tag_221:\n        /* \"#utility.yul\":13845:13922   */\n      0x4e487b7100000000000000000000000000000000000000000000000000000000\n        /* \"#utility.yul\":13842:13843   */\n      0x00\n        /* \"#utility.yul\":13835:13923   */\n      mstore\n        /* \"#utility.yul\":13942:13946   */\n      0x11\n        /* \"#utility.yul\":13939:13940   */\n      0x04\n        /* \"#utility.yul\":13932:13947   */\n      mstore\n        /* \"#utility.yul\":13966:13970   */\n      0x24\n        /* \"#utility.yul\":13963:13964   */\n      0x00\n        /* \"#utility.yul\":13956:13971   */\n      revert\n        /* \"#utility.yul\":13983:14216   */\n    tag_68:\n        /* \"#utility.yul\":14022:14025   */\n      0x00\n        /* \"#utility.yul\":14045:14069   */\n      tag_386\n        /* \"#utility.yul\":14063:14068   */\n      dup3\n        /* \"#utility.yul\":14045:14069   */\n      tag_187\n      jump\t// in\n    tag_386:\n        /* \"#utility.yul\":14036:14069   */\n      swap2\n      pop\n        /* \"#utility.yul\":14091:14157   */\n      0xffffffffffffffffffffffffffffffffffffffffffffffffffffffffffffffff\n        /* \"#utility.yul\":14084:14089   */\n      dup3\n        /* \"#utility.yul\":14081:14158   */\n      sub\n        /* \"#utility.yul\":14078:14181   */\n      tag_387\n      jumpi\n        /* \"#utility.yul\":14161:14179   */\n      tag_388\n      tag_221\n      jump\t// in\n    tag_388:\n        /* \"#utility.yul\":14078:14181   */\n    tag_387:\n        /* \"#utility.yul\":14208:14209   */\n      0x01\n        /* \"#utility.yul\":14201:14206   */\n      dup3\n        /* \"#utility.yul\":14197:14210   */\n      add\n        /* \"#utility.yul\":14190:14210   */\n      swap1\n      pop\n        /* \"#utility.yul\":13983:14216   */\n      swap2\n      swap1\n      pop\n      jump\t// out\n        /* \"#utility.yul\":14222:14393   */\n    tag_222:\n        /* \"#utility.yul\":14362:14385   */\n      0x5469746c652063616e6e6f7420626520656d7074790000000000000000000000\n        /* \"#utility.yul\":14358:14359   */\n      0x00\n        /* \"#utility.yul\":14350:14356   */\n      dup3\n        /* \"#utility.yul\":14346:14360   */\n      add\n        /* \"#utility.yul\":14339:14386   */\n      mstore\n        /* \"#utility.yul\":14222:14393   */\n      pop\n      jump\t// out\n        /* \"#utility.yul\":14399:14765   */\n    tag_223:\n        /* \"#utility.yul\":14541:14544   */\n      0x00\n        /* \"#utility.yul\":14562:14629   */\n      tag_391\n        /* \"#utility.yul\":14626:14628   */\n      0x15\n        /* \"#utility.yul\":14621:14624   */\n      dup4\n        /* \"#utility.yul\":14562:14629   */\n      tag_192\n      jump\t// in\n    tag_391:\n        /* \"#utility.yul\":14555:14629   */\n      swap2\n      pop\n        /* \"#utility.yul\":14638:14731   */\n      tag_392\n        /* \"#utility.yul\":14727:14730   */\n      dup3\n        /* \"#utility.yul\":14638:14731   */\n      tag_222\n      jump\t// in\n    tag_392:\n        /* \"#utility.yul\":14756:14758   */\n      0x20\n        /* \"#utility.yul\":14751:14754   */\n      dup3\n        /* \"#utility.yul\":14747:14759   */\n      add\n        /* \"#utility.yul\":14740:14759   */\n      swap1\n      pop\n        /* \"#utility.yul\":14399:14765   */\n      swap2\n      swap1\n      pop\n      jump\t// out\n        /* \"#utility.yul\":14771:15190   */\n    tag_72:\n        /* \"#utility.yul\":14937:14941   */\n      0x00\n        /* \"#utility.yul\":14975:14977   */\n      0x20\n        /* \"#utility.yul\":14964:14973   */\n      dup3\n        /* \"#utility.yul\":14960:14978   */\n      add\n        /* \"#utility.yul\":14952:14978   */\n      swap1\n      pop\n        /* \"#utility.yul\":15024:15033   */\n      dup2\n        /* \"#utility.yul\":15018:15022   */\n      dup2\n        /* \"#utility.yul\":15014:15034   */\n      sub\n        /* \"#utility.yul\":15010:15011   */\n      0x00\n        /* \"#utility.yul\":14999:15008   */\n      dup4\n        /* \"#utility.yul\":14995:15012   */\n      add\n        /* \"#utility.yul\":14988:15035   */\n      mstore\n        /* \"#utility.yul\":15052:15183   */\n      tag_394\n        /* \"#utility.yul\":15178:15182   */\n      dup2\n        /* \"#utility.yul\":15052:15183   */\n      tag_223\n      jump\t// in\n    tag_394:\n        /* \"#utility.yul\":15044:15183   */\n      swap1\n      pop\n        /* \"#utility.yul\":14771:15190   */\n      swap2\n      swap1\n      pop\n      jump\t// out\n        /* \"#utility.yul\":15196:15365   */\n    tag_224:\n        /* \"#utility.yul\":15336:15357   */\n      0x55524c2063616e6e6f7420626520656d70747900000000000000000000000000\n        /* \"#utility.yul\":15332:15333   */\n      0x00\n        /* \"#utility.yul\":15324:15330   */\n      dup3\n        /* \"#utility.yul\":15320:15334   */\n      add\n        /* \"#utility.yul\":15313:15358   */\n      mstore\n        /* \"#utility.yul\":15196:15365   */\n      pop\n      jump\t// out\n        /* \"#utility.yul\":15371:15737   */\n    tag_225:\n        /* \"#utility.yul\":15513:15516   */\n      0x00\n        /* \"#utility.yul\":15534:15601   */\n      tag_397\n        /* \"#utility.yul\":15598:15600   */\n      0x13\n        /* \"#utility.yul\":15593:15596   */\n      dup4\n        /* \"#utility.yul\":15534:15601   */\n      tag_192\n      jump\t// in\n    tag_397:\n        /* \"#utility.yul\":15527:15601   */\n      swap2\n      pop\n        /* \"#utility.yul\":15610:15703   */\n      tag_398\n        /* \"#utility.yul\":15699:15702   */\n      dup3\n        /* \"#utility.yul\":15610:15703   */\n      tag_224\n      jump\t// in\n    tag_398:\n        /* \"#utility.yul\":15728:15730   */\n      0x20\n        /* \"#utility.yul\":15723:15726   */\n      dup3\n        /* \"#utility.yul\":15719:15731   */\n      add\n        /* \"#utility.yul\":15712:15731   */\n      swap1\n      pop\n        /* \"#utility.yul\":15371:15737   */\n      swap2\n      swap1\n      pop\n      jump\t// out\n        /* \"#utility.yul\":15743:16162   */\n    tag_75:\n        /* \"#utility.yul\":15909:15913   */\n      0x00\n        /* \"#utility.yul\":15947:15949   */\n      0x20\n        /* \"#utility.yul\":15936:15945   */\n      dup3\n        /* \"#utility.yul\":15932:15950   */\n      add\n        /* \"#utility.yul\":15924:15950   */\n      swap1\n      pop\n        /* \"#utility.yul\":15996:16005   */\n      dup2\n        /* \"#utility.yul\":15990:15994   */\n      dup2\n        /* \"#utility.yul\":15986:16006   */\n      sub\n        /* \"#utility.yul\":15982:15983   */\n      0x00\n        /* \"#utility.yul\":15971:15980   */\n      dup4\n        /* \"#utility.yul\":15967:15984   */\n      add\n        /* \"#utility.yul\":15960:16007   */\n      mstore\n        /* \"#utility.yul\":16024:16155   */\n      tag_400\n        /* \"#utility.yul\":16150:16154   */\n      dup2\n        /* \"#utility.yul\":16024:16155   */\n      tag_225\n      jump\t// in\n    tag_400:\n        /* \"#utility.yul\":16016:16155   */\n      swap1\n      pop\n        /* \"#utility.yul\":15743:16162   */\n      swap2\n      swap1\n      pop\n      jump\t// out\n        /* \"#utility.yul\":16168:16345   */\n    tag_226:\n        /* \"#utility.yul\":16308:16337   */\n      0x417574686f72206e616d652063616e6e6f7420626520656d7074790000000000\n        /* \"#utility.yul\":16304:16305   */\n      0x00\n        /* \"#utility.yul\":16296:16302   */\n      dup3\n        /* \"#utility.yul\":16292:16306   */\n      add\n        /* \"#utility.yul\":16285:16338   */\n      mstore\n        /* \"#utility.yul\":16168:16345   */\n      pop\n      jump\t// out\n        /* \"#utility.yul\":16351:16717   */\n    tag_227:\n        /* \"#utility.yul\":16493:16496   */\n      0x00\n        /* \"#utility.yul\":16514:16581   */\n      tag_403\n        /* \"#utility.yul\":16578:16580   */\n      0x1b\n        /* \"#utility.yul\":16573:16576   */\n      dup4\n        /* \"#utility.yul\":16514:16581   */\n      tag_192\n      jump\t// in\n    tag_403:\n        /* \"#utility.yul\":16507:16581   */\n      swap2\n      pop\n        /* \"#utility.yul\":16590:16683   */\n      tag_404\n        /* \"#utility.yul\":16679:16682   */\n      dup3\n        /* \"#utility.yul\":16590:16683   */\n      tag_226\n      jump\t// in\n    tag_404:\n        /* \"#utility.yul\":16708:16710   */\n      0x20\n        /* \"#utility.yul\":16703:16706   */\n      dup3\n        /* \"#utility.yul\":16699:16711   */\n      add\n        /* \"#utility.yul\":16692:16711   */\n      swap1\n      pop\n        /* \"#utility.yul\":16351:16717   */\n      swap2\n      swap1\n      pop\n      jump\t// out\n        /* \"#utility.yul\":16723:17142   */\n    tag_78:\n        /* \"#utility.yul\":16889:16893   */\n      0x00\n        /* \"#utility.yul\":16927:16929   */\n      0x20\n        /* \"#utility.yul\":16916:16925   */\n      dup3\n        /* \"#utility.yul\":16912:16930   */\n      add\n        /* \"#utility.yul\":16904:16930   */\n      swap1\n      pop\n        /* \"#utility.yul\":16976:16985   */\n      dup2\n        /* \"#utility.yul\":16970:16974   */\n      dup2\n        /* \"#utility.yul\":16966:16986   */\n      sub\n        /* \"#utility.yul\":16962:16963   */\n      0x00\n        /* \"#utility.yul\":16951:16960   */\n      dup4\n        /* \"#utility.yul\":16947:16964   */\n      add\n        /* \"#utility.yul\":16940:16987   */\n      mstore\n        /* \"#utility.yul\":17004:17135   */\n      tag_406\n        /* \"#utility.yul\":17130:17134   */\n      dup2\n        /* \"#utility.yul\":17004:17135   */\n      tag_227\n      jump\t// in\n    tag_406:\n        /* \"#utility.yul\":16996:17135   */\n      swap1\n      pop\n        /* \"#utility.yul\":16723:17142   */\n      swap2\n      swap1\n      pop\n      jump\t// out\n        /* \"#utility.yul\":17148:17317   */\n    tag_228:\n        /* \"#utility.yul\":17288:17309   */\n      0x496e76616c6964206369746174696f6e20494400000000000000000000000000\n        /* \"#utility.yul\":17284:17285   */\n      0x00\n        /* \"#utility.yul\":17276:17282   */\n      dup3\n        /* \"#utility.yul\":17272:17286   */\n      add\n        /* \"#utility.yul\":17265:17310   */\n      mstore\n        /* \"#utility.yul\":17148:17317   */\n      pop\n      jump\t// out\n        /* \"#utility.yul\":17323:17689   */\n    tag_229:\n        /* \"#utility.yul\":17465:17468   */\n      0x00\n        /* \"#utility.yul\":17486:17553   */\n      tag_409\n        /* \"#utility.yul\":17550:17552   */\n      0x13\n        /* \"#utility.yul\":17545:17548   */\n      dup4\n        /* \"#utility.yul\":17486:17553   */\n      tag_192\n      jump\t// in\n    tag_409:\n        /* \"#utility.yul\":17479:17553   */\n      swap2\n      pop\n        /* \"#utility.yul\":17562:17655   */\n      tag_410\n        /* \"#utility.yul\":17651:17654   */\n      dup3\n        /* \"#utility.yul\":17562:17655   */\n      tag_228\n      jump\t// in\n    tag_410:\n        /* \"#utility.yul\":17680:17682   */\n      0x20\n        /* \"#utility.yul\":17675:17678   */\n      dup3\n        /* \"#utility.yul\":17671:17683   */\n      add\n        /* \"#utility.yul\":17664:17683   */\n      swap1\n      pop\n        /* \"#utility.yul\":17323:17689   */\n      swap2\n      swap1\n      pop\n      jump\t// out\n        /* \"#utility.yul\":17695:18114   */\n    tag_92:\n        /* \"#utility.yul\":17861:17865   */\n      0x00\n        /* \"#utility.yul\":17899:17901   */\n      0x20\n        /* \"#utility.yul\":17888:17897   */\n      dup3\n        /* \"#utility.yul\":17884:17902   */\n      add\n        /* \"#utility.yul\":17876:17902   */\n      swap1\n      pop\n        /* \"#utility.yul\":17948:17957   */\n      dup2\n        /* \"#utility.yul\":17942:17946   */\n      dup2\n        /* \"#utility.yul\":17938:17958   */\n      sub\n        /* \"#utility.yul\":17934:17935   */\n      0x00\n        /* \"#utility.yul\":17923:17932   */\n      dup4\n        /* \"#utility.yul\":17919:17936   */\n      add\n        /* \"#utility.yul\":17912:17959   */\n      mstore\n        /* \"#utility.yul\":17976:18107   */\n      tag_412\n        /* \"#utility.yul\":18102:18106   */\n      dup2\n        /* \"#utility.yul\":17976:18107   */\n      tag_229\n      jump\t// in\n    tag_412:\n        /* \"#utility.yul\":17968:18107   */\n      swap1\n      pop\n        /* \"#utility.yul\":17695:18114   */\n      swap2\n      swap1\n      pop\n      jump\t// out\n        /* \"#utility.yul\":18120:18302   */\n    tag_230:\n        /* \"#utility.yul\":18260:18294   */\n      0x576569676874206d757374206265206265747765656e203020616e6420313030\n        /* \"#utility.yul\":18256:18257   */\n      0x00\n        /* \"#utility.yul\":18248:18254   */\n      dup3\n        /* \"#utility.yul\":18244:18258   */\n      add\n        /* \"#utility.yul\":18237:18295   */\n      mstore\n        /* \"#utility.yul\":18120:18302   */\n      pop\n      jump\t// out\n        /* \"#utility.yul\":18308:18674   */\n    tag_231:\n        /* \"#utility.yul\":18450:18453   */\n      0x00\n        /* \"#utility.yul\":18471:18538   */\n      tag_415\n        /* \"#utility.yul\":18535:18537   */\n      0x20\n        /* \"#utility.yul\":18530:18533   */\n      dup4\n        /* \"#utility.yul\":18471:18538   */\n      tag_192\n      jump\t// in\n    tag_415:\n        /* \"#utility.yul\":18464:18538   */\n      swap2\n      pop\n        /* \"#utility.yul\":18547:18640   */\n      tag_416\n        /* \"#utility.yul\":18636:18639   */\n      dup3\n        /* \"#utility.yul\":18547:18640   */\n      tag_230\n      jump\t// in\n    tag_416:\n        /* \"#utility.yul\":18665:18667   */\n      0x20\n        /* \"#utility.yul\":18660:18663   */\n      dup3\n        /* \"#utility.yul\":18656:18668   */\n      add\n        /* \"#utility.yul\":18649:18668   */\n      swap1\n      pop\n        /* \"#utility.yul\":18308:18674   */\n      swap2\n      swap1\n      pop\n      jump\t// out\n        /* \"#utility.yul\":18680:19099   */\n    tag_100:\n        /* \"#utility.yul\":18846:18850   */\n      0x00\n        /* \"#utility.yul\":18884:18886   */\n      0x20\n        /* \"#utility.yul\":18873:18882   */\n      dup3\n        /* \"#utility.yul\":18869:18887   */\n      add\n        /* \"#utility.yul\":18861:18887   */\n      swap1\n      pop\n        /* \"#utility.yul\":18933:18942   */\n      dup2\n        /* \"#utility.yul\":18927:18931   */\n      dup2\n        /* \"#utility.yul\":18923:18943   */\n      sub\n        /* \"#utility.yul\":18919:18920   */\n      0x00\n        /* \"#utility.yul\":18908:18917   */\n      dup4\n        /* \"#utility.yul\":18904:18921   */\n      add\n        /* \"#utility.yul\":18897:18944   */\n      mstore\n        /* \"#utility.yul\":18961:19092   */\n      tag_418\n        /* \"#utility.yul\":19087:19091   */\n      dup2\n        /* \"#utility.yul\":18961:19092   */\n      tag_231\n      jump\t// in\n    tag_418:\n        /* \"#utility.yul\":18953:19092   */\n      swap1\n      pop\n        /* \"#utility.yul\":18680:19099   */\n      swap2\n      swap1\n      pop\n      jump\t// out\n        /* \"#utility.yul\":19105:19296   */\n    tag_112:\n        /* \"#utility.yul\":19145:19148   */\n      0x00\n        /* \"#utility.yul\":19164:19184   */\n      tag_420\n        /* \"#utility.yul\":19182:19183   */\n      dup3\n        /* \"#utility.yul\":19164:19184   */\n      tag_187\n      jump\t// in\n    tag_420:\n        /* \"#utility.yul\":19159:19184   */\n      swap2\n      pop\n        /* \"#utility.yul\":19198:19218   */\n      tag_421\n        /* \"#utility.yul\":19216:19217   */\n      dup4\n        /* \"#utility.yul\":19198:19218   */\n      tag_187\n      jump\t// in\n    tag_421:\n        /* \"#utility.yul\":19193:19218   */\n      swap3\n      pop\n        /* \"#utility.yul\":19241:19242   */\n      dup3\n        /* \"#utility.yul\":19238:19239   */\n      dup3\n        /* \"#utility.yul\":19234:19243   */\n      add\n        /* \"#utility.yul\":19227:19243   */\n      swap1\n      pop\n        /* \"#utility.yul\":19262:19265   */\n      dup1\n        /* \"#utility.yul\":19259:19260   */\n      dup3\n        /* \"#utility.yul\":19256:19266   */\n      gt\n        /* \"#utility.yul\":19253:19289   */\n      iszero\n      tag_422\n      jumpi\n        /* \"#utility.yul\":19269:19287   */\n      tag_423\n      tag_221\n      jump\t// in\n    tag_423:\n        /* \"#utility.yul\":19253:19289   */\n    tag_422:\n        /* \"#utility.yul\":19105:19296   */\n      swap3\n      swap2\n      pop\n      pop\n      jump\t// out\n        /* \"#utility.yul\":19302:19712   */\n    tag_121:\n        /* \"#utility.yul\":19342:19349   */\n      0x00\n        /* \"#utility.yul\":19365:19385   */\n      tag_425\n        /* \"#utility.yul\":19383:19384   */\n      dup3\n        /* \"#utility.yul\":19365:19385   */\n      tag_187\n      jump\t// in\n    tag_425:\n        /* \"#utility.yul\":19360:19385   */\n      swap2\n      pop\n        /* \"#utility.yul\":19399:19419   */\n      tag_426\n        /* \"#utility.yul\":19417:19418   */\n      dup4\n        /* \"#utility.yul\":19399:19419   */\n      tag_187\n      jump\t// in\n    tag_426:\n        /* \"#utility.yul\":19394:19419   */\n      swap3\n      pop\n        /* \"#utility.yul\":19454:19455   */\n      dup3\n        /* \"#utility.yul\":19451:19452   */\n      dup3\n        /* \"#utility.yul\":19447:19456   */\n      mul\n        /* \"#utility.yul\":19476:19506   */\n      tag_427\n        /* \"#utility.yul\":19494:19505   */\n      dup2\n        /* \"#utility.yul\":19476:19506   */\n      tag_187\n      jump\t// in\n    tag_427:\n        /* \"#utility.yul\":19465:19506   */\n      swap2\n      pop\n        /* \"#utility.yul\":19655:19656   */\n      dup3\n        /* \"#utility.yul\":19646:19653   */\n      dup3\n        /* \"#utility.yul\":19642:19657   */\n      div\n        /* \"#utility.yul\":19639:19640   */\n      dup5\n        /* \"#utility.yul\":19636:19658   */\n      eq\n        /* \"#utility.yul\":19616:19617   */\n      dup4\n        /* \"#utility.yul\":19609:19618   */\n      iszero\n        /* \"#utility.yul\":19589:19672   */\n      or\n        /* \"#utility.yul\":19566:19705   */\n      tag_428\n      jumpi\n        /* \"#utility.yul\":19685:19703   */\n      tag_429\n      tag_221\n      jump\t// in\n    tag_429:\n        /* \"#utility.yul\":19566:19705   */\n    tag_428:\n        /* \"#utility.yul\":19350:19712   */\n      pop\n        /* \"#utility.yul\":19302:19712   */\n      swap3\n      swap2\n      pop\n      pop\n      jump\t// out\n        /* \"#utility.yul\":19718:19898   */\n    tag_232:\n        /* \"#utility.yul\":19766:19843   */\n      0x4e487b7100000000000000000000000000000000000000000000000000000000\n        /* \"#utility.yul\":19763:19764   */\n      0x00\n        /* \"#utility.yul\":19756:19844   */\n      mstore\n        /* \"#utility.yul\":19863:19867   */\n      0x12\n        /* \"#utility.yul\":19860:19861   */\n      0x04\n        /* \"#utility.yul\":19853:19868   */\n      mstore\n        /* \"#utility.yul\":19887:19891   */\n      0x24\n        /* \"#utility.yul\":19884:19885   */\n      0x00\n        /* \"#utility.yul\":19877:19892   */\n      revert\n        /* \"#utility.yul\":19904:20089   */\n    tag_123:\n        /* \"#utility.yul\":19944:19945   */\n      0x00\n        /* \"#utility.yul\":19961:19981   */\n      tag_432\n        /* \"#utility.yul\":19979:19980   */\n      dup3\n        /* \"#utility.yul\":19961:19981   */\n      tag_187\n      jump\t// in\n    tag_432:\n        /* \"#utility.yul\":19956:19981   */\n      swap2\n      pop\n        /* \"#utility.yul\":19995:20015   */\n      tag_433\n        /* \"#utility.yul\":20013:20014   */\n      dup4\n        /* \"#utility.yul\":19995:20015   */\n      tag_187\n      jump\t// in\n    tag_433:\n        /* \"#utility.yul\":19990:20015   */\n      swap3\n      pop\n        /* \"#utility.yul\":20034:20035   */\n      dup3\n        /* \"#utility.yul\":20024:20059   */\n      tag_434\n      jumpi\n        /* \"#utility.yul\":20039:20057   */\n      tag_435\n      tag_232\n      jump\t// in\n    tag_435:\n        /* \"#utility.yul\":20024:20059   */\n    tag_434:\n        /* \"#utility.yul\":20081:20082   */\n      dup3\n        /* \"#utility.yul\":20078:20079   */\n      dup3\n        /* \"#utility.yul\":20074:20083   */\n      div\n        /* \"#utility.yul\":20069:20083   */\n      swap1\n      pop\n        /* \"#utility.yul\":19904:20089   */\n      swap3\n      swap2\n      pop\n      pop\n      jump\t// out\n        /* \"#utility.yul\":20095:20289   */\n    tag_130:\n        /* \"#utility.yul\":20135:20139   */\n      0x00\n        /* \"#utility.yul\":20155:20175   */\n      tag_437\n        /* \"#utility.yul\":20173:20174   */\n      dup3\n        /* \"#utility.yul\":20155:20175   */\n      tag_187\n      jump\t// in\n    tag_437:\n        /* \"#utility.yul\":20150:20175   */\n      swap2\n      pop\n        /* \"#utility.yul\":20189:20209   */\n      tag_438\n        /* \"#utility.yul\":20207:20208   */\n      dup4\n        /* \"#utility.yul\":20189:20209   */\n      tag_187\n      jump\t// in\n    tag_438:\n        /* \"#utility.yul\":20184:20209   */\n      swap3\n      pop\n        /* \"#utility.yul\":20233:20234   */\n      dup3\n        /* \"#utility.yul\":20230:20231   */\n      dup3\n        /* \"#utility.yul\":20226:20235   */\n      sub\n        /* \"#utility.yul\":20218:20235   */\n      swap1\n      pop\n        /* \"#utility.yul\":20257:20258   */\n      dup2\n        /* \"#utility.yul\":20251:20255   */\n      dup2\n        /* \"#utility.yul\":20248:20259   */\n      gt\n        /* \"#utility.yul\":20245:20282   */\n      iszero\n      tag_439\n      jumpi\n        /* \"#utility.yul\":20262:20280   */\n      tag_440\n      tag_221\n      jump\t// in\n    tag_440:\n        /* \"#utility.yul\":20245:20282   */\n    tag_439:\n        /* \"#utility.yul\":20095:20289   */\n      swap3\n      swap2\n      pop\n      pop\n      jump\t// out\n        /* \"#utility.yul\":20295:20436   */\n    tag_233:\n        /* \"#utility.yul\":20344:20348   */\n      0x00\n        /* \"#utility.yul\":20367:20370   */\n      dup2\n        /* \"#utility.yul\":20359:20370   */\n      swap1\n      pop\n        /* \"#utility.yul\":20390:20393   */\n      dup2\n        /* \"#utility.yul\":20387:20388   */\n      0x00\n        /* \"#utility.yul\":20380:20394   */\n      mstore\n        /* \"#utility.yul\":20424:20428   */\n      0x20\n        /* \"#utility.yul\":20421:20422   */\n      0x00\n        /* \"#utility.yul\":20411:20429   */\n      keccak256\n        /* \"#utility.yul\":20403:20429   */\n      swap1\n      pop\n        /* \"#utility.yul\":20295:20436   */\n      swap2\n      swap1\n      pop\n      jump\t// out\n        /* \"#utility.yul\":20442:20535   */\n    tag_234:\n        /* \"#utility.yul\":20479:20485   */\n      0x00\n        /* \"#utility.yul\":20526:20528   */\n      0x20\n        /* \"#utility.yul\":20521:20523   */\n      0x1f\n        /* \"#utility.yul\":20514:20519   */\n      dup4\n        /* \"#utility.yul\":20510:20524   */\n      add\n        /* \"#utility.yul\":20506:20529   */\n      div\n        /* \"#utility.yul\":20496:20529   */\n      swap1\n      pop\n        /* \"#utility.yul\":20442:20535   */\n      swap2\n      swap1\n      pop\n      jump\t// out\n        /* \"#utility.yul\":20541:20648   */\n    tag_235:\n        /* \"#utility.yul\":20585:20593   */\n      0x00\n        /* \"#utility.yul\":20635:20640   */\n      dup3\n        /* \"#utility.yul\":20629:20633   */\n      dup3\n        /* \"#utility.yul\":20625:20641   */\n      shl\n        /* \"#utility.yul\":20604:20641   */\n      swap1\n      pop\n        /* \"#utility.yul\":20541:20648   */\n      swap3\n      swap2\n      pop\n      pop\n      jump\t// out\n        /* \"#utility.yul\":20654:21047   */\n    tag_236:\n        /* \"#utility.yul\":20723:20729   */\n      0x00\n        /* \"#utility.yul\":20773:20774   */\n      0x08\n        /* \"#utility.yul\":20761:20771   */\n      dup4\n        /* \"#utility.yul\":20757:20775   */\n      mul\n        /* \"#utility.yul\":20796:20893   */\n      tag_445\n        /* \"#utility.yul\":20826:20892   */\n      0xffffffffffffffffffffffffffffffffffffffffffffffffffffffffffffffff\n        /* \"#utility.yul\":20815:20824   */\n      dup3\n        /* \"#utility.yul\":20796:20893   */\n      tag_235\n      jump\t// in\n    tag_445:\n        /* \"#utility.yul\":20914:20953   */\n      tag_446\n        /* \"#utility.yul\":20944:20952   */\n      dup7\n        /* \"#utility.yul\":20933:20942   */\n      dup4\n        /* \"#utility.yul\":20914:20953   */\n      tag_235\n      jump\t// in\n    tag_446:\n        /* \"#utility.yul\":20902:20953   */\n      swap6\n      pop\n        /* \"#utility.yul\":20986:20990   */\n      dup1\n        /* \"#utility.yul\":20982:20991   */\n      not\n        /* \"#utility.yul\":20975:20980   */\n      dup5\n        /* \"#utility.yul\":20971:20992   */\n      and\n        /* \"#utility.yul\":20962:20992   */\n      swap4\n      pop\n        /* \"#utility.yul\":21035:21039   */\n      dup1\n        /* \"#utility.yul\":21025:21033   */\n      dup7\n        /* \"#utility.yul\":21021:21040   */\n      and\n        /* \"#utility.yul\":21014:21019   */\n      dup5\n        /* \"#utility.yul\":21011:21041   */\n      or\n        /* \"#utility.yul\":21001:21041   */\n      swap3\n      pop\n        /* \"#utility.yul\":20730:21047   */\n      pop\n      pop\n        /* \"#utility.yul\":20654:21047   */\n      swap4\n      swap3\n      pop\n      pop\n      pop\n      jump\t// out\n        /* \"#utility.yul\":21053:21113   */\n    tag_237:\n        /* \"#utility.yul\":21081:21084   */\n      0x00\n        /* \"#utility.yul\":21102:21107   */\n      dup2\n        /* \"#utility.yul\":21095:21107   */\n      swap1\n      pop\n        /* \"#utility.yul\":21053:21113   */\n      swap2\n      swap1\n      pop\n      jump\t// out\n        /* \"#utility.yul\":21119:21261   */\n    tag_238:\n        /* \"#utility.yul\":21169:21178   */\n      0x00\n        /* \"#utility.yul\":21202:21255   */\n      tag_449\n        /* \"#utility.yul\":21220:21254   */\n      tag_450\n        /* \"#utility.yul\":21229:21253   */\n      tag_451\n        /* \"#utility.yul\":21247:21252   */\n      dup5\n        /* \"#utility.yul\":21229:21253   */\n      tag_187\n      jump\t// in\n    tag_451:\n        /* \"#utility.yul\":21220:21254   */\n      tag_237\n      jump\t// in\n    tag_450:\n        /* \"#utility.yul\":21202:21255   */\n      tag_187\n      jump\t// in\n    tag_449:\n        /* \"#utility.yul\":21189:21255   */\n      swap1\n      pop\n        /* \"#utility.yul\":21119:21261   */\n      swap2\n      swap1\n      pop\n      jump\t// out\n        /* \"#utility.yul\":21267:21342   */\n    tag_239:\n        /* \"#utility.yul\":21310:21313   */\n      0x00\n        /* \"#utility.yul\":21331:21336   */\n      dup2\n        /* \"#utility.yul\":21324:21336   */\n      swap1\n      pop\n        /* \"#utility.yul\":21267:21342   */\n      swap2\n      swap1\n      pop\n      jump\t// out\n        /* \"#utility.yul\":21348:21617   */\n    tag_240:\n        /* \"#utility.yul\":21458:21497   */\n      tag_454\n        /* \"#utility.yul\":21489:21496   */\n      dup4\n        /* \"#utility.yul\":21458:21497   */\n      tag_238\n      jump\t// in\n    tag_454:\n        /* \"#utility.yul\":21519:21610   */\n      tag_455\n        /* \"#utility.yul\":21568:21609   */\n      tag_456\n        /* \"#utility.yul\":21592:21608   */\n      dup3\n        /* \"#utility.yul\":21568:21609   */\n      tag_239\n      jump\t// in\n    tag_456:\n        /* \"#utility.yul\":21560:21566   */\n      dup5\n        /* \"#utility.yul\":21553:21557   */\n      dup5\n        /* \"#utility.yul\":21547:21558   */\n      sload\n        /* \"#utility.yul\":21519:21610   */\n      tag_236\n      jump\t// in\n    tag_455:\n        /* \"#utility.yul\":21513:21517   */\n      dup3\n        /* \"#utility.yul\":21506:21611   */\n      sstore\n        /* \"#utility.yul\":21424:21617   */\n      pop\n        /* \"#utility.yul\":21348:21617   */\n      pop\n      pop\n      pop\n      jump\t// out\n        /* \"#utility.yul\":21623:21696   */\n    tag_241:\n        /* \"#utility.yul\":21668:21671   */\n      0x00\n        /* \"#utility.yul\":21623:21696   */\n      swap1\n      jump\t// out\n        /* \"#utility.yul\":21702:21891   */\n    tag_242:\n        /* \"#utility.yul\":21779:21811   */\n      tag_459\n      tag_241\n      jump\t// in\n    tag_459:\n        /* \"#utility.yul\":21820:21885   */\n      tag_460\n        /* \"#utility.yul\":21878:21884   */\n      dup2\n        /* \"#utility.yul\":21870:21876   */\n      dup5\n        /* \"#utility.yul\":21864:21868   */\n      dup5\n        /* \"#utility.yul\":21820:21885   */\n      tag_240\n      jump\t// in\n    tag_460:\n        /* \"#utility.yul\":21755:21891   */\n      pop\n        /* \"#utility.yul\":21702:21891   */\n      pop\n      pop\n      jump\t// out\n        /* \"#utility.yul\":21897:22083   */\n    tag_243:\n        /* \"#utility.yul\":21957:22077   */\n    tag_462:\n        /* \"#utility.yul\":21974:21977   */\n      dup2\n        /* \"#utility.yul\":21967:21972   */\n      dup2\n        /* \"#utility.yul\":21964:21978   */\n      lt\n        /* \"#utility.yul\":21957:22077   */\n      iszero\n      tag_464\n      jumpi\n        /* \"#utility.yul\":22028:22067   */\n      tag_465\n        /* \"#utility.yul\":22065:22066   */\n      0x00\n        /* \"#utility.yul\":22058:22063   */\n      dup3\n        /* \"#utility.yul\":22028:22067   */\n      tag_242\n      jump\t// in\n    tag_465:\n        /* \"#utility.yul\":22001:22002   */\n      0x01\n        /* \"#utility.yul\":21994:21999   */\n      dup2\n        /* \"#utility.yul\":21990:22003   */\n      add\n        /* \"#utility.yul\":21981:22003   */\n      swap1\n      pop\n        /* \"#utility.yul\":21957:22077   */\n      jump(tag_462)\n    tag_464:\n        /* \"#utility.yul\":21897:22083   */\n      pop\n      pop\n      jump\t// out\n        /* \"#utility.yul\":22089:22632   */\n    tag_244:\n        /* \"#utility.yul\":22190:22192   */\n      0x1f\n        /* \"#utility.yul\":22185:22188   */\n      dup3\n        /* \"#utility.yul\":22182:22193   */\n      gt\n        /* \"#utility.yul\":22179:22625   */\n      iszero\n      tag_467\n      jumpi\n        /* \"#utility.yul\":22224:22262   */\n      tag_468\n        /* \"#utility.yul\":22256:22261   */\n      dup2\n        /* \"#utility.yul\":22224:22262   */\n      tag_233\n      jump\t// in\n    tag_468:\n        /* \"#utility.yul\":22308:22337   */\n      tag_469\n        /* \"#utility.yul\":22326:22336   */\n      dup5\n        /* \"#utility.yul\":22308:22337   */\n      tag_234\n      jump\t// in\n    tag_469:\n        /* \"#utility.yul\":22298:22306   */\n      dup2\n        /* \"#utility.yul\":22294:22338   */\n      add\n        /* \"#utility.yul\":22491:22493   */\n      0x20\n        /* \"#utility.yul\":22479:22489   */\n      dup6\n        /* \"#utility.yul\":22476:22494   */\n      lt\n        /* \"#utility.yul\":22473:22522   */\n      iszero\n      tag_470\n      jumpi\n        /* \"#utility.yul\":22512:22520   */\n      dup2\n        /* \"#utility.yul\":22497:22520   */\n      swap1\n      pop\n        /* \"#utility.yul\":22473:22522   */\n    tag_470:\n        /* \"#utility.yul\":22535:22615   */\n      tag_471\n        /* \"#utility.yul\":22591:22613   */\n      tag_472\n        /* \"#utility.yul\":22609:22612   */\n      dup6\n        /* \"#utility.yul\":22591:22613   */\n      tag_234\n      jump\t// in\n    tag_472:\n        /* \"#utility.yul\":22581:22589   */\n      dup4\n        /* \"#utility.yul\":22577:22614   */\n      add\n        /* \"#utility.yul\":22564:22575   */\n      dup3\n        /* \"#utility.yul\":22535:22615   */\n      tag_243\n      jump\t// in\n    tag_471:\n        /* \"#utility.yul\":22194:22625   */\n      pop\n      pop\n        /* \"#utility.yul\":22179:22625   */\n    tag_467:\n        /* \"#utility.yul\":22089:22632   */\n      pop\n      pop\n      pop\n      jump\t// out\n        /* \"#utility.yul\":22638:22755   */\n    tag_245:\n        /* \"#utility.yul\":22692:22700   */\n      0x00\n        /* \"#utility.yul\":22742:22747   */\n      dup3\n        /* \"#utility.yul\":22736:22740   */\n      dup3\n        /* \"#utility.yul\":22732:22748   */\n      shr\n        /* \"#utility.yul\":22711:22748   */\n      swap1\n      pop\n        /* \"#utility.yul\":22638:22755   */\n      swap3\n      swap2\n      pop\n      pop\n      jump\t// out\n        /* \"#utility.yul\":22761:22930   */\n    tag_246:\n        /* \"#utility.yul\":22805:22811   */\n      0x00\n        /* \"#utility.yul\":22838:22889   */\n      tag_475\n        /* \"#utility.yul\":22886:22887   */\n      0x00\n        /* \"#utility.yul\":22882:22888   */\n      not\n        /* \"#utility.yul\":22874:22879   */\n      dup5\n        /* \"#utility.yul\":22871:22872   */\n      0x08\n        /* \"#utility.yul\":22867:22880   */\n      mul\n        /* \"#utility.yul\":22838:22889   */\n      tag_245\n      jump\t// in\n    tag_475:\n        /* \"#utility.yul\":22834:22890   */\n      not\n        /* \"#utility.yul\":22919:22923   */\n      dup1\n        /* \"#utility.yul\":22913:22917   */\n      dup4\n        /* \"#utility.yul\":22909:22924   */\n      and\n        /* \"#utility.yul\":22899:22924   */\n      swap2\n      pop\n        /* \"#utility.yul\":22812:22930   */\n      pop\n        /* \"#utility.yul\":22761:22930   */\n      swap3\n      swap2\n      pop\n      pop\n      jump\t// out\n        /* \"#utility.yul\":22935:23230   */\n    tag_247:\n        /* \"#utility.yul\":23011:23015   */\n      0x00\n        /* \"#utility.yul\":23157:23186   */\n      tag_477\n        /* \"#utility.yul\":23182:23185   */\n      dup4\n        /* \"#utility.yul\":23176:23180   */\n      dup4\n        /* \"#utility.yul\":23157:23186   */\n      tag_246\n      jump\t// in\n    tag_477:\n        /* \"#utility.yul\":23149:23186   */\n      swap2\n      pop\n        /* \"#utility.yul\":23219:23222   */\n      dup3\n        /* \"#utility.yul\":23216:23217   */\n      0x02\n        /* \"#utility.yul\":23212:23223   */\n      mul\n        /* \"#utility.yul\":23206:23210   */\n      dup3\n        /* \"#utility.yul\":23203:23224   */\n      or\n        /* \"#utility.yul\":23195:23224   */\n      swap1\n      pop\n        /* \"#utility.yul\":22935:23230   */\n      swap3\n      swap2\n      pop\n      pop\n      jump\t// out\n        /* \"#utility.yul\":23235:24630   */\n    tag_153:\n        /* \"#utility.yul\":23352:23389   */\n      tag_479\n        /* \"#utility.yul\":23385:23388   */\n      dup3\n        /* \"#utility.yul\":23352:23389   */\n      tag_191\n      jump\t// in\n    tag_479:\n        /* \"#utility.yul\":23454:23472   */\n      0xffffffffffffffff\n        /* \"#utility.yul\":23446:23452   */\n      dup2\n        /* \"#utility.yul\":23443:23473   */\n      gt\n        /* \"#utility.yul\":23440:23496   */\n      iszero\n      tag_480\n      jumpi\n        /* \"#utility.yul\":23476:23494   */\n      tag_481\n      tag_51\n      jump\t// in\n    tag_481:\n        /* \"#utility.yul\":23440:23496   */\n    tag_480:\n        /* \"#utility.yul\":23520:23558   */\n      tag_482\n        /* \"#utility.yul\":23552:23556   */\n      dup3\n        /* \"#utility.yul\":23546:23557   */\n      sload\n        /* \"#utility.yul\":23520:23558   */\n      tag_30\n      jump\t// in\n    tag_482:\n        /* \"#utility.yul\":23605:23672   */\n      tag_483\n        /* \"#utility.yul\":23665:23671   */\n      dup3\n        /* \"#utility.yul\":23657:23663   */\n      dup3\n        /* \"#utility.yul\":23651:23655   */\n      dup6\n        /* \"#utility.yul\":23605:23672   */\n      tag_244\n      jump\t// in\n    tag_483:\n        /* \"#utility.yul\":23699:23700   */\n      0x00\n        /* \"#utility.yul\":23723:23727   */\n      0x20\n        /* \"#utility.yul\":23710:23727   */\n      swap1\n      pop\n        /* \"#utility.yul\":23755:23757   */\n      0x1f\n        /* \"#utility.yul\":23747:23753   */\n      dup4\n        /* \"#utility.yul\":23744:23758   */\n      gt\n        /* \"#utility.yul\":23772:23773   */\n      0x01\n        /* \"#utility.yul\":23767:24385   */\n      dup2\n      eq\n      tag_485\n      jumpi\n        /* \"#utility.yul\":24429:24430   */\n      0x00\n        /* \"#utility.yul\":24446:24452   */\n      dup5\n        /* \"#utility.yul\":24443:24520   */\n      iszero\n      tag_486\n      jumpi\n        /* \"#utility.yul\":24495:24504   */\n      dup3\n        /* \"#utility.yul\":24490:24493   */\n      dup8\n        /* \"#utility.yul\":24486:24505   */\n      add\n        /* \"#utility.yul\":24480:24506   */\n      mload\n        /* \"#utility.yul\":24471:24506   */\n      swap1\n      pop\n        /* \"#utility.yul\":24443:24520   */\n    tag_486:\n        /* \"#utility.yul\":24546:24613   */\n      tag_487\n        /* \"#utility.yul\":24606:24612   */\n      dup6\n        /* \"#utility.yul\":24599:24604   */\n      dup3\n        /* \"#utility.yul\":24546:24613   */\n      tag_247\n      jump\t// in\n    tag_487:\n        /* \"#utility.yul\":24540:24544   */\n      dup7\n        /* \"#utility.yul\":24533:24614   */\n      sstore\n        /* \"#utility.yul\":24402:24624   */\n      pop\n        /* \"#utility.yul\":23737:24624   */\n      jump(tag_484)\n        /* \"#utility.yul\":23767:24385   */\n    tag_485:\n        /* \"#utility.yul\":23819:23823   */\n      0x1f\n        /* \"#utility.yul\":23815:23824   */\n      not\n        /* \"#utility.yul\":23807:23813   */\n      dup5\n        /* \"#utility.yul\":23803:23825   */\n      and\n        /* \"#utility.yul\":23853:23890   */\n      tag_488\n        /* \"#utility.yul\":23885:23889   */\n      dup7\n        /* \"#utility.yul\":23853:23890   */\n      tag_233\n      jump\t// in\n    tag_488:\n        /* \"#utility.yul\":23912:23913   */\n      0x00\n        /* \"#utility.yul\":23926:24134   */\n    tag_489:\n        /* \"#utility.yul\":23940:23947   */\n      dup3\n        /* \"#utility.yul\":23937:23938   */\n      dup2\n        /* \"#utility.yul\":23934:23948   */\n      lt\n        /* \"#utility.yul\":23926:24134   */\n      iszero\n      tag_491\n      jumpi\n        /* \"#utility.yul\":24019:24028   */\n      dup5\n        /* \"#utility.yul\":24014:24017   */\n      dup10\n        /* \"#utility.yul\":24010:24029   */\n      add\n        /* \"#utility.yul\":24004:24030   */\n      mload\n        /* \"#utility.yul\":23996:24002   */\n      dup3\n        /* \"#utility.yul\":23989:24031   */\n      sstore\n        /* \"#utility.yul\":24070:24071   */\n      0x01\n        /* \"#utility.yul\":24062:24068   */\n      dup3\n        /* \"#utility.yul\":24058:24072   */\n      add\n        /* \"#utility.yul\":24048:24072   */\n      swap2\n      pop\n        /* \"#utility.yul\":24117:24119   */\n      0x20\n        /* \"#utility.yul\":24106:24115   */\n      dup6\n        /* \"#utility.yul\":24102:24120   */\n      add\n        /* \"#utility.yul\":24089:24120   */\n      swap5\n      pop\n        /* \"#utility.yul\":23963:23967   */\n      0x20\n        /* \"#utility.yul\":23960:23961   */\n      dup2\n        /* \"#utility.yul\":23956:23968   */\n      add\n        /* \"#utility.yul\":23951:23968   */\n      swap1\n      pop\n        /* \"#utility.yul\":23926:24134   */\n      jump(tag_489)\n    tag_491:\n        /* \"#utility.yul\":24162:24168   */\n      dup7\n        /* \"#utility.yul\":24153:24160   */\n      dup4\n        /* \"#utility.yul\":24150:24169   */\n      lt\n        /* \"#utility.yul\":24147:24326   */\n      iszero\n      tag_492\n      jumpi\n        /* \"#utility.yul\":24220:24229   */\n      dup5\n        /* \"#utility.yul\":24215:24218   */\n      dup10\n        /* \"#utility.yul\":24211:24230   */\n      add\n        /* \"#utility.yul\":24205:24231   */\n      mload\n        /* \"#utility.yul\":24263:24311   */\n      tag_493\n        /* \"#utility.yul\":24305:24309   */\n      0x1f\n        /* \"#utility.yul\":24297:24303   */\n      dup10\n        /* \"#utility.yul\":24293:24310   */\n      and\n        /* \"#utility.yul\":24282:24291   */\n      dup3\n        /* \"#utility.yul\":24263:24311   */\n      tag_246\n      jump\t// in\n    tag_493:\n        /* \"#utility.yul\":24255:24261   */\n      dup4\n        /* \"#utility.yul\":24248:24312   */\n      sstore\n        /* \"#utility.yul\":24170:24326   */\n      pop\n        /* \"#utility.yul\":24147:24326   */\n    tag_492:\n        /* \"#utility.yul\":24372:24373   */\n      0x01\n        /* \"#utility.yul\":24368:24369   */\n      0x02\n        /* \"#utility.yul\":24360:24366   */\n      dup9\n        /* \"#utility.yul\":24356:24370   */\n      mul\n        /* \"#utility.yul\":24352:24374   */\n      add\n        /* \"#utility.yul\":24346:24350   */\n      dup9\n        /* \"#utility.yul\":24339:24375   */\n      sstore\n        /* \"#utility.yul\":23774:24385   */\n      pop\n      pop\n      pop\n        /* \"#utility.yul\":23737:24624   */\n    tag_484:\n      pop\n        /* \"#utility.yul\":23327:24630   */\n      pop\n      pop\n      pop\n        /* \"#utility.yul\":23235:24630   */\n      pop\n      pop\n      jump\t// out\n\n    auxdata: 0xa2646970667358221220fa64e9cee9aee3249354e8f606f5797a864b0780fb111828c9d3349013197bff64736f6c63430008120033\n}\n",
				"bytecode": {
					"linkReferences": {},
					"object": "608060405234801561001057600080fd5b50611bae806100206000396000f3fe608060405234801561001057600080fd5b50600436106100415760003560e01c8063bd85d86714610046578063c8f3c5b51461007c578063edcfafe614610098575b600080fd5b610060600480360381019061005b9190610e99565b6100cc565b6040516100739796959493929190611064565b60405180910390f35b610096600480360381019061009191906112f3565b610584565b005b6100b260048036038101906100ad9190610e99565b610be7565b6040516100c39594939291906113fa565b60405180910390f35b600060608060606000606080600080549050881061011f576040517f08c379a0000000000000000000000000000000000000000000000000000000008152600401610116906114ae565b60405180910390fd5b6000808981548110610134576101336114ce565b5b90600052602060002090600702016040518060e0016040529081600082015481526020016001820180546101679061152c565b80601f01602080910402602001604051908101604052809291908181526020018280546101939061152c565b80156101e05780601f106101b5576101008083540402835291602001916101e0565b820191906000526020600020905b8154815290600101906020018083116101c357829003601f168201915b505050505081526020016002820180546101f99061152c565b80601f01602080910402602001604051908101604052809291908181526020018280546102259061152c565b80156102725780601f1061024757610100808354040283529160200191610272565b820191906000526020600020905b81548152906001019060200180831161025557829003601f168201915b5050505050815260200160038201805461028b9061152c565b80601f01602080910402602001604051908101604052809291908181526020018280546102b79061152c565b80156103045780601f106102d957610100808354040283529160200191610304565b820191906000526020600020905b8154815290600101906020018083116102e757829003601f168201915b505050505081526020016004820160009054906101000a900473ffffffffffffffffffffffffffffffffffffffff1673ffffffffffffffffffffffffffffffffffffffff1673ffffffffffffffffffffffffffffffffffffffff168152602001600582018054806020026020016040519081016040528092919081815260200182805480156103b257602002820191906000526020600020905b81548152602001906001019080831161039e575b505050505081526020016006820180548060200260200160405190810160405280929190818152602001828054801561040a57602002820191906000526020600020905b8154815260200190600101908083116103f6575b50505050508152505090508060a001515167ffffffffffffffff81111561043457610433611100565b5b6040519080825280602002602001820160405280156104625781602001602082028036833780820191505090505b5092508060c001515167ffffffffffffffff81111561048457610483611100565b5b6040519080825280602002602001820160405280156104b25781602001602082028036833780820191505090505b50915060005b8160a0015151811015610554578160a0015181815181106104dc576104db6114ce565b5b60200260200101518482815181106104f7576104f66114ce565b5b6020026020010181815250508160c00151818151811061051a576105196114ce565b5b6020026020010151838281518110610535576105346114ce565b5b602002602001018181525050808061054c9061158c565b9150506104b8565b50806000015197508060200151965080604001519550806060015194508060800151935050919395979092949650565b60008551116105c8576040517f08c379a00000000000000000000000000000000000000000000000000000000081526004016105bf90611620565b60405180910390fd5b600084511161060c576040517f08c379a00000000000000000000000000000000000000000000000000000000081526004016106039061168c565b60405180910390fd5b6000835111610650576040517f08c379a0000000000000000000000000000000000000000000000000000000008152600401610647906116f8565b60405180910390fd5b6000825167ffffffffffffffff81111561066d5761066c611100565b5b60405190808252806020026020018201604052801561069b5781602001602082028036833780820191505090505b5090506000825167ffffffffffffffff8111156106bb576106ba611100565b5b6040519080825280602002602001820160405280156106e95781602001602082028036833780820191505090505b5090506000805b855181101561088a57600086828151811061070e5761070d6114ce565b5b602002602001015103610756576040517f08c379a000000000000000000000000000000000000000000000000000000000815260040161074d90611764565b60405180910390fd5b600085828151811061076b5761076a6114ce565b5b60200260200101511015801561079c57506064858281518110610791576107906114ce565b5b602002602001015111155b6107db576040517f08c379a00000000000000000000000000000000000000000000000000000000081526004016107d2906117d0565b60405180910390fd5b8581815181106107ee576107ed6114ce565b5b6020026020010151848281518110610809576108086114ce565b5b602002602001018181525050848181518110610828576108276114ce565b5b6020026020010151838281518110610843576108426114ce565b5b602002602001018181525050848181518110610862576108616114ce565b5b60200260200101518261087591906117f0565b915080806108829061158c565b9150506106f0565b50606481111561090a5760005b825181101561090457818382815181106108b4576108b36114ce565b5b602002602001015160646108c89190611824565b6108d29190611895565b8382815181106108e5576108e46114ce565b5b60200260200101818152505080806108fc9061158c565b915050610897565b50610a4d565b6064811015610a4c57600081606461092291906118c6565b905060006001845161093491906117f0565b67ffffffffffffffff81111561094d5761094c611100565b5b60405190808252806020026020018201604052801561097b5781602001602082028036833780820191505090505b50905060005b8451811015610a2457600084606461099991906118c6565b8683815181106109ac576109ab6114ce565b5b6020026020010151856109bf9190611824565b6109c99190611895565b9050808683815181106109df576109de6114ce565b5b60200260200101516109f191906117f0565b838381518110610a0457610a036114ce565b5b602002602001018181525050508080610a1c9061158c565b915050610981565b508181855181518110610a3a57610a396114ce565b5b60200260200101818152505080935050505b5b60008080549050905060006040518060e001604052808381526020018b81526020018a81526020018981526020013373ffffffffffffffffffffffffffffffffffffffff168152602001868152602001858152509080600181540180825580915050600190039060005260206000209060070201600090919091909150600082015181600001556020820151816001019081610ae99190611aa6565b506040820151816002019081610aff9190611aa6565b506060820151816003019081610b159190611aa6565b5060808201518160040160006101000a81548173ffffffffffffffffffffffffffffffffffffffff021916908373ffffffffffffffffffffffffffffffffffffffff16021790555060a0820151816005019080519060200190610b79929190610de5565b5060c0820151816006019080519060200190610b96929190610de5565b5050507f99429b8e317a4d8f2440d759396b8c690cbb878aa34ea914a8687db9d7a226f6818a8a8a338989604051610bd49796959493929190611064565b60405180910390a1505050505050505050565b60008181548110610bf757600080fd5b9060005260206000209060070201600091509050806000015490806001018054610c209061152c565b80601f0160208091040260200160405190810160405280929190818152602001828054610c4c9061152c565b8015610c995780601f10610c6e57610100808354040283529160200191610c99565b820191906000526020600020905b815481529060010190602001808311610c7c57829003601f168201915b505050505090806002018054610cae9061152c565b80601f0160208091040260200160405190810160405280929190818152602001828054610cda9061152c565b8015610d275780601f10610cfc57610100808354040283529160200191610d27565b820191906000526020600020905b815481529060010190602001808311610d0a57829003601f168201915b505050505090806003018054610d3c9061152c565b80601f0160208091040260200160405190810160405280929190818152602001828054610d689061152c565b8015610db55780601f10610d8a57610100808354040283529160200191610db5565b820191906000526020600020905b815481529060010190602001808311610d9857829003601f168201915b5050505050908060040160009054906101000a900473ffffffffffffffffffffffffffffffffffffffff16905085565b828054828255906000526020600020908101928215610e21579160200282015b82811115610e20578251825591602001919060010190610e05565b5b509050610e2e9190610e32565b5090565b5b80821115610e4b576000816000905550600101610e33565b5090565b6000604051905090565b600080fd5b600080fd5b6000819050919050565b610e7681610e63565b8114610e8157600080fd5b50565b600081359050610e9381610e6d565b92915050565b600060208284031215610eaf57610eae610e59565b5b6000610ebd84828501610e84565b91505092915050565b610ecf81610e63565b82525050565b600081519050919050565b600082825260208201905092915050565b60005b83811015610f0f578082015181840152602081019050610ef4565b60008484015250505050565b6000601f19601f8301169050919050565b6000610f3782610ed5565b610f418185610ee0565b9350610f51818560208601610ef1565b610f5a81610f1b565b840191505092915050565b600073ffffffffffffffffffffffffffffffffffffffff82169050919050565b6000610f9082610f65565b9050919050565b610fa081610f85565b82525050565b600081519050919050565b600082825260208201905092915050565b6000819050602082019050919050565b610fdb81610e63565b82525050565b6000610fed8383610fd2565b60208301905092915050565b6000602082019050919050565b600061101182610fa6565b61101b8185610fb1565b935061102683610fc2565b8060005b8381101561105757815161103e8882610fe1565b975061104983610ff9565b92505060018101905061102a565b5085935050505092915050565b600060e082019050611079600083018a610ec6565b818103602083015261108b8189610f2c565b9050818103604083015261109f8188610f2c565b905081810360608301526110b38187610f2c565b90506110c26080830186610f97565b81810360a08301526110d48185611006565b905081810360c08301526110e88184611006565b905098975050505050505050565b600080fd5b600080fd5b7f4e487b7100000000000000000000000000000000000000000000000000000000600052604160045260246000fd5b61113882610f1b565b810181811067ffffffffffffffff8211171561115757611156611100565b5b80604052505050565b600061116a610e4f565b9050611176828261112f565b919050565b600067ffffffffffffffff82111561119657611195611100565b5b61119f82610f1b565b9050602081019050919050565b82818337600083830152505050565b60006111ce6111c98461117b565b611160565b9050828152602081018484840111156111ea576111e96110fb565b5b6111f58482856111ac565b509392505050565b600082601f830112611212576112116110f6565b5b81356112228482602086016111bb565b91505092915050565b600067ffffffffffffffff82111561124657611245611100565b5b602082029050602081019050919050565b600080fd5b600061126f61126a8461122b565b611160565b9050808382526020820190506020840283018581111561129257611291611257565b5b835b818110156112bb57806112a78882610e84565b845260208401935050602081019050611294565b5050509392505050565b600082601f8301126112da576112d96110f6565b5b81356112ea84826020860161125c565b91505092915050565b600080600080600060a0868803121561130f5761130e610e59565b5b600086013567ffffffffffffffff81111561132d5761132c610e5e565b5b611339888289016111fd565b955050602086013567ffffffffffffffff81111561135a57611359610e5e565b5b611366888289016111fd565b945050604086013567ffffffffffffffff81111561138757611386610e5e565b5b611393888289016111fd565b935050606086013567ffffffffffffffff8111156113b4576113b3610e5e565b5b6113c0888289016112c5565b925050608086013567ffffffffffffffff8111156113e1576113e0610e5e565b5b6113ed888289016112c5565b9150509295509295909350565b600060a08201905061140f6000830188610ec6565b81810360208301526114218187610f2c565b905081810360408301526114358186610f2c565b905081810360608301526114498185610f2c565b90506114586080830184610f97565b9695505050505050565b7f496e76616c69642061727469636c652049440000000000000000000000000000600082015250565b6000611498601283610ee0565b91506114a382611462565b602082019050919050565b600060208201905081810360008301526114c78161148b565b9050919050565b7f4e487b7100000000000000000000000000000000000000000000000000000000600052603260045260246000fd5b7f4e487b7100000000000000000000000000000000000000000000000000000000600052602260045260246000fd5b6000600282049050600182168061154457607f821691505b602082108103611557576115566114fd565b5b50919050565b7f4e487b7100000000000000000000000000000000000000000000000000000000600052601160045260246000fd5b600061159782610e63565b91507fffffffffffffffffffffffffffffffffffffffffffffffffffffffffffffffff82036115c9576115c861155d565b5b600182019050919050565b7f5469746c652063616e6e6f7420626520656d7074790000000000000000000000600082015250565b600061160a601583610ee0565b9150611615826115d4565b602082019050919050565b60006020820190508181036000830152611639816115fd565b9050919050565b7f55524c2063616e6e6f7420626520656d70747900000000000000000000000000600082015250565b6000611676601383610ee0565b915061168182611640565b602082019050919050565b600060208201905081810360008301526116a581611669565b9050919050565b7f417574686f72206e616d652063616e6e6f7420626520656d7074790000000000600082015250565b60006116e2601b83610ee0565b91506116ed826116ac565b602082019050919050565b60006020820190508181036000830152611711816116d5565b9050919050565b7f496e76616c6964206369746174696f6e20494400000000000000000000000000600082015250565b600061174e601383610ee0565b915061175982611718565b602082019050919050565b6000602082019050818103600083015261177d81611741565b9050919050565b7f576569676874206d757374206265206265747765656e203020616e6420313030600082015250565b60006117ba602083610ee0565b91506117c582611784565b602082019050919050565b600060208201905081810360008301526117e9816117ad565b9050919050565b60006117fb82610e63565b915061180683610e63565b925082820190508082111561181e5761181d61155d565b5b92915050565b600061182f82610e63565b915061183a83610e63565b925082820261184881610e63565b9150828204841483151761185f5761185e61155d565b5b5092915050565b7f4e487b7100000000000000000000000000000000000000000000000000000000600052601260045260246000fd5b60006118a082610e63565b91506118ab83610e63565b9250826118bb576118ba611866565b5b828204905092915050565b60006118d182610e63565b91506118dc83610e63565b92508282039050818111156118f4576118f361155d565b5b92915050565b60008190508160005260206000209050919050565b60006020601f8301049050919050565b600082821b905092915050565b60006008830261195c7fffffffffffffffffffffffffffffffffffffffffffffffffffffffffffffffff8261191f565b611966868361191f565b95508019841693508086168417925050509392505050565b6000819050919050565b60006119a361199e61199984610e63565b61197e565b610e63565b9050919050565b6000819050919050565b6119bd83611988565b6119d16119c9826119aa565b84845461192c565b825550505050565b600090565b6119e66119d9565b6119f18184846119b4565b505050565b5b81811015611a1557611a0a6000826119de565b6001810190506119f7565b5050565b601f821115611a5a57611a2b816118fa565b611a348461190f565b81016020851015611a43578190505b611a57611a4f8561190f565b8301826119f6565b50505b505050565b600082821c905092915050565b6000611a7d60001984600802611a5f565b1980831691505092915050565b6000611a968383611a6c565b9150826002028217905092915050565b611aaf82610ed5565b67ffffffffffffffff811115611ac857611ac7611100565b5b611ad2825461152c565b611add828285611a19565b600060209050601f831160018114611b105760008415611afe578287015190505b611b088582611a8a565b865550611b70565b601f198416611b1e866118fa565b60005b82811015611b4657848901518255600182019150602085019450602081019050611b21565b86831015611b635784890151611b5f601f891682611a6c565b8355505b6001600288020188555050505b50505050505056fea2646970667358221220fa64e9cee9aee3249354e8f606f5797a864b0780fb111828c9d3349013197bff64736f6c63430008120033",
					"opcodes": "PUSH1 0x80 PUSH1 0x40 MSTORE CALLVALUE DUP1 ISZERO PUSH2 0x10 JUMPI PUSH1 0x0 DUP1 REVERT JUMPDEST POP PUSH2 0x1BAE DUP1 PUSH2 0x20 PUSH1 0x0 CODECOPY PUSH1 0x0 RETURN INVALID PUSH1 0x80 PUSH1 0x40 MSTORE CALLVALUE DUP1 ISZERO PUSH2 0x10 JUMPI PUSH1 0x0 DUP1 REVERT JUMPDEST POP PUSH1 0x4 CALLDATASIZE LT PUSH2 0x41 JUMPI PUSH1 0x0 CALLDATALOAD PUSH1 0xE0 SHR DUP1 PUSH4 0xBD85D867 EQ PUSH2 0x46 JUMPI DUP1 PUSH4 0xC8F3C5B5 EQ PUSH2 0x7C JUMPI DUP1 PUSH4 0xEDCFAFE6 EQ PUSH2 0x98 JUMPI JUMPDEST PUSH1 0x0 DUP1 REVERT JUMPDEST PUSH2 0x60 PUSH1 0x4 DUP1 CALLDATASIZE SUB DUP2 ADD SWAP1 PUSH2 0x5B SWAP2 SWAP1 PUSH2 0xE99 JUMP JUMPDEST PUSH2 0xCC JUMP JUMPDEST PUSH1 0x40 MLOAD PUSH2 0x73 SWAP8 SWAP7 SWAP6 SWAP5 SWAP4 SWAP3 SWAP2 SWAP1 PUSH2 0x1064 JUMP JUMPDEST PUSH1 0x40 MLOAD DUP1 SWAP2 SUB SWAP1 RETURN JUMPDEST PUSH2 0x96 PUSH1 0x4 DUP1 CALLDATASIZE SUB DUP2 ADD SWAP1 PUSH2 0x91 SWAP2 SWAP1 PUSH2 0x12F3 JUMP JUMPDEST PUSH2 0x584 JUMP JUMPDEST STOP JUMPDEST PUSH2 0xB2 PUSH1 0x4 DUP1 CALLDATASIZE SUB DUP2 ADD SWAP1 PUSH2 0xAD SWAP2 SWAP1 PUSH2 0xE99 JUMP JUMPDEST PUSH2 0xBE7 JUMP JUMPDEST PUSH1 0x40 MLOAD PUSH2 0xC3 SWAP6 SWAP5 SWAP4 SWAP3 SWAP2 SWAP1 PUSH2 0x13FA JUMP JUMPDEST PUSH1 0x40 MLOAD DUP1 SWAP2 SUB SWAP1 RETURN JUMPDEST PUSH1 0x0 PUSH1 0x60 DUP1 PUSH1 0x60 PUSH1 0x0 PUSH1 0x60 DUP1 PUSH1 0x0 DUP1 SLOAD SWAP1 POP DUP9 LT PUSH2 0x11F JUMPI PUSH1 0x40 MLOAD PUSH32 0x8C379A000000000000000000000000000000000000000000000000000000000 DUP2 MSTORE PUSH1 0x4 ADD PUSH2 0x116 SWAP1 PUSH2 0x14AE JUMP JUMPDEST PUSH1 0x40 MLOAD DUP1 SWAP2 SUB SWAP1 REVERT JUMPDEST PUSH1 0x0 DUP1 DUP10 DUP2 SLOAD DUP2 LT PUSH2 0x134 JUMPI PUSH2 0x133 PUSH2 0x14CE JUMP JUMPDEST JUMPDEST SWAP1 PUSH1 0x0 MSTORE PUSH1 0x20 PUSH1 0x0 KECCAK256 SWAP1 PUSH1 0x7 MUL ADD PUSH1 0x40 MLOAD DUP1 PUSH1 0xE0 ADD PUSH1 0x40 MSTORE SWAP1 DUP2 PUSH1 0x0 DUP3 ADD SLOAD DUP2 MSTORE PUSH1 0x20 ADD PUSH1 0x1 DUP3 ADD DUP1 SLOAD PUSH2 0x167 SWAP1 PUSH2 0x152C JUMP JUMPDEST DUP1 PUSH1 0x1F ADD PUSH1 0x20 DUP1 SWAP2 DIV MUL PUSH1 0x20 ADD PUSH1 0x40 MLOAD SWAP1 DUP2 ADD PUSH1 0x40 MSTORE DUP1 SWAP3 SWAP2 SWAP1 DUP2 DUP2 MSTORE PUSH1 0x20 ADD DUP3 DUP1 SLOAD PUSH2 0x193 SWAP1 PUSH2 0x152C JUMP JUMPDEST DUP1 ISZERO PUSH2 0x1E0 JUMPI DUP1 PUSH1 0x1F LT PUSH2 0x1B5 JUMPI PUSH2 0x100 DUP1 DUP4 SLOAD DIV MUL DUP4 MSTORE SWAP2 PUSH1 0x20 ADD SWAP2 PUSH2 0x1E0 JUMP JUMPDEST DUP3 ADD SWAP2 SWAP1 PUSH1 0x0 MSTORE PUSH1 0x20 PUSH1 0x0 KECCAK256 SWAP1 JUMPDEST DUP2 SLOAD DUP2 MSTORE SWAP1 PUSH1 0x1 ADD SWAP1 PUSH1 0x20 ADD DUP1 DUP4 GT PUSH2 0x1C3 JUMPI DUP3 SWAP1 SUB PUSH1 0x1F AND DUP3 ADD SWAP2 JUMPDEST POP POP POP POP POP DUP2 MSTORE PUSH1 0x20 ADD PUSH1 0x2 DUP3 ADD DUP1 SLOAD PUSH2 0x1F9 SWAP1 PUSH2 0x152C JUMP JUMPDEST DUP1 PUSH1 0x1F ADD PUSH1 0x20 DUP1 SWAP2 DIV MUL PUSH1 0x20 ADD PUSH1 0x40 MLOAD SWAP1 DUP2 ADD PUSH1 0x40 MSTORE DUP1 SWAP3 SWAP2 SWAP1 DUP2 DUP2 MSTORE PUSH1 0x20 ADD DUP3 DUP1 SLOAD PUSH2 0x225 SWAP1 PUSH2 0x152C JUMP JUMPDEST DUP1 ISZERO PUSH2 0x272 JUMPI DUP1 PUSH1 0x1F LT PUSH2 0x247 JUMPI PUSH2 0x100 DUP1 DUP4 SLOAD DIV MUL DUP4 MSTORE SWAP2 PUSH1 0x20 ADD SWAP2 PUSH2 0x272 JUMP JUMPDEST DUP3 ADD SWAP2 SWAP1 PUSH1 0x0 MSTORE PUSH1 0x20 PUSH1 0x0 KECCAK256 SWAP1 JUMPDEST DUP2 SLOAD DUP2 MSTORE SWAP1 PUSH1 0x1 ADD SWAP1 PUSH1 0x20 ADD DUP1 DUP4 GT PUSH2 0x255 JUMPI DUP3 SWAP1 SUB PUSH1 0x1F AND DUP3 ADD SWAP2 JUMPDEST POP POP POP POP POP DUP2 MSTORE PUSH1 0x20 ADD PUSH1 0x3 DUP3 ADD DUP1 SLOAD PUSH2 0x28B SWAP1 PUSH2 0x152C JUMP JUMPDEST DUP1 PUSH1 0x1F ADD PUSH1 0x20 DUP1 SWAP2 DIV MUL PUSH1 0x20 ADD PUSH1 0x40 MLOAD SWAP1 DUP2 ADD PUSH1 0x40 MSTORE DUP1 SWAP3 SWAP2 SWAP1 DUP2 DUP2 MSTORE PUSH1 0x20 ADD DUP3 DUP1 SLOAD PUSH2 0x2B7 SWAP1 PUSH2 0x152C JUMP JUMPDEST DUP1 ISZERO PUSH2 0x304 JUMPI DUP1 PUSH1 0x1F LT PUSH2 0x2D9 JUMPI PUSH2 0x100 DUP1 DUP4 SLOAD DIV MUL DUP4 MSTORE SWAP2 PUSH1 0x20 ADD SWAP2 PUSH2 0x304 JUMP JUMPDEST DUP3 ADD SWAP2 SWAP1 PUSH1 0x0 MSTORE PUSH1 0x20 PUSH1 0x0 KECCAK256 SWAP1 JUMPDEST DUP2 SLOAD DUP2 MSTORE SWAP1 PUSH1 0x1 ADD SWAP1 PUSH1 0x20 ADD DUP1 DUP4 GT PUSH2 0x2E7 JUMPI DUP3 SWAP1 SUB PUSH1 0x1F AND DUP3 ADD SWAP2 JUMPDEST POP POP POP POP POP DUP2 MSTORE PUSH1 0x20 ADD PUSH1 0x4 DUP3 ADD PUSH1 0x0 SWAP1 SLOAD SWAP1 PUSH2 0x100 EXP SWAP1 DIV PUSH20 0xFFFFFFFFFFFFFFFFFFFFFFFFFFFFFFFFFFFFFFFF AND PUSH20 0xFFFFFFFFFFFFFFFFFFFFFFFFFFFFFFFFFFFFFFFF AND PUSH20 0xFFFFFFFFFFFFFFFFFFFFFFFFFFFFFFFFFFFFFFFF AND DUP2 MSTORE PUSH1 0x20 ADD PUSH1 0x5 DUP3 ADD DUP1 SLOAD DUP1 PUSH1 0x20 MUL PUSH1 0x20 ADD PUSH1 0x40 MLOAD SWAP1 DUP2 ADD PUSH1 0x40 MSTORE DUP1 SWAP3 SWAP2 SWAP1 DUP2 DUP2 MSTORE PUSH1 0x20 ADD DUP3 DUP1 SLOAD DUP1 ISZERO PUSH2 0x3B2 JUMPI PUSH1 0x20 MUL DUP3 ADD SWAP2 SWAP1 PUSH1 0x0 MSTORE PUSH1 0x20 PUSH1 0x0 KECCAK256 SWAP1 JUMPDEST DUP2 SLOAD DUP2 MSTORE PUSH1 0x20 ADD SWAP1 PUSH1 0x1 ADD SWAP1 DUP1 DUP4 GT PUSH2 0x39E JUMPI JUMPDEST POP POP POP POP POP DUP2 MSTORE PUSH1 0x20 ADD PUSH1 0x6 DUP3 ADD DUP1 SLOAD DUP1 PUSH1 0x20 MUL PUSH1 0x20 ADD PUSH1 0x40 MLOAD SWAP1 DUP2 ADD PUSH1 0x40 MSTORE DUP1 SWAP3 SWAP2 SWAP1 DUP2 DUP2 MSTORE PUSH1 0x20 ADD DUP3 DUP1 SLOAD DUP1 ISZERO PUSH2 0x40A JUMPI PUSH1 0x20 MUL DUP3 ADD SWAP2 SWAP1 PUSH1 0x0 MSTORE PUSH1 0x20 PUSH1 0x0 KECCAK256 SWAP1 JUMPDEST DUP2 SLOAD DUP2 MSTORE PUSH1 0x20 ADD SWAP1 PUSH1 0x1 ADD SWAP1 DUP1 DUP4 GT PUSH2 0x3F6 JUMPI JUMPDEST POP POP POP POP POP DUP2 MSTORE POP POP SWAP1 POP DUP1 PUSH1 0xA0 ADD MLOAD MLOAD PUSH8 0xFFFFFFFFFFFFFFFF DUP2 GT ISZERO PUSH2 0x434 JUMPI PUSH2 0x433 PUSH2 0x1100 JUMP JUMPDEST JUMPDEST PUSH1 0x40 MLOAD SWAP1 DUP1 DUP3 MSTORE DUP1 PUSH1 0x20 MUL PUSH1 0x20 ADD DUP3 ADD PUSH1 0x40 MSTORE DUP1 ISZERO PUSH2 0x462 JUMPI DUP2 PUSH1 0x20 ADD PUSH1 0x20 DUP3 MUL DUP1 CALLDATASIZE DUP4 CALLDATACOPY DUP1 DUP3 ADD SWAP2 POP POP SWAP1 POP JUMPDEST POP SWAP3 POP DUP1 PUSH1 0xC0 ADD MLOAD MLOAD PUSH8 0xFFFFFFFFFFFFFFFF DUP2 GT ISZERO PUSH2 0x484 JUMPI PUSH2 0x483 PUSH2 0x1100 JUMP JUMPDEST JUMPDEST PUSH1 0x40 MLOAD SWAP1 DUP1 DUP3 MSTORE DUP1 PUSH1 0x20 MUL PUSH1 0x20 ADD DUP3 ADD PUSH1 0x40 MSTORE DUP1 ISZERO PUSH2 0x4B2 JUMPI DUP2 PUSH1 0x20 ADD PUSH1 0x20 DUP3 MUL DUP1 CALLDATASIZE DUP4 CALLDATACOPY DUP1 DUP3 ADD SWAP2 POP POP SWAP1 POP JUMPDEST POP SWAP2 POP PUSH1 0x0 JUMPDEST DUP2 PUSH1 0xA0 ADD MLOAD MLOAD DUP2 LT ISZERO PUSH2 0x554 JUMPI DUP2 PUSH1 0xA0 ADD MLOAD DUP2 DUP2 MLOAD DUP2 LT PUSH2 0x4DC JUMPI PUSH2 0x4DB PUSH2 0x14CE JUMP JUMPDEST JUMPDEST PUSH1 0x20 MUL PUSH1 0x20 ADD ADD MLOAD DUP5 DUP3 DUP2 MLOAD DUP2 LT PUSH2 0x4F7 JUMPI PUSH2 0x4F6 PUSH2 0x14CE JUMP JUMPDEST JUMPDEST PUSH1 0x20 MUL PUSH1 0x20 ADD ADD DUP2 DUP2 MSTORE POP POP DUP2 PUSH1 0xC0 ADD MLOAD DUP2 DUP2 MLOAD DUP2 LT PUSH2 0x51A JUMPI PUSH2 0x519 PUSH2 0x14CE JUMP JUMPDEST JUMPDEST PUSH1 0x20 MUL PUSH1 0x20 ADD ADD MLOAD DUP4 DUP3 DUP2 MLOAD DUP2 LT PUSH2 0x535 JUMPI PUSH2 0x534 PUSH2 0x14CE JUMP JUMPDEST JUMPDEST PUSH1 0x20 MUL PUSH1 0x20 ADD ADD DUP2 DUP2 MSTORE POP POP DUP1 DUP1 PUSH2 0x54C SWAP1 PUSH2 0x158C JUMP JUMPDEST SWAP2 POP POP PUSH2 0x4B8 JUMP JUMPDEST POP DUP1 PUSH1 0x0 ADD MLOAD SWAP8 POP DUP1 PUSH1 0x20 ADD MLOAD SWAP7 POP DUP1 PUSH1 0x40 ADD MLOAD SWAP6 POP DUP1 PUSH1 0x60 ADD MLOAD SWAP5 POP DUP1 PUSH1 0x80 ADD MLOAD SWAP4 POP POP SWAP2 SWAP4 SWAP6 SWAP8 SWAP1 SWAP3 SWAP5 SWAP7 POP JUMP JUMPDEST PUSH1 0x0 DUP6 MLOAD GT PUSH2 0x5C8 JUMPI PUSH1 0x40 MLOAD PUSH32 0x8C379A000000000000000000000000000000000000000000000000000000000 DUP2 MSTORE PUSH1 0x4 ADD PUSH2 0x5BF SWAP1 PUSH2 0x1620 JUMP JUMPDEST PUSH1 0x40 MLOAD DUP1 SWAP2 SUB SWAP1 REVERT JUMPDEST PUSH1 0x0 DUP5 MLOAD GT PUSH2 0x60C JUMPI PUSH1 0x40 MLOAD PUSH32 0x8C379A000000000000000000000000000000000000000000000000000000000 DUP2 MSTORE PUSH1 0x4 ADD PUSH2 0x603 SWAP1 PUSH2 0x168C JUMP JUMPDEST PUSH1 0x40 MLOAD DUP1 SWAP2 SUB SWAP1 REVERT JUMPDEST PUSH1 0x0 DUP4 MLOAD GT PUSH2 0x650 JUMPI PUSH1 0x40 MLOAD PUSH32 0x8C379A000000000000000000000000000000000000000000000000000000000 DUP2 MSTORE PUSH1 0x4 ADD PUSH2 0x647 SWAP1 PUSH2 0x16F8 JUMP JUMPDEST PUSH1 0x40 MLOAD DUP1 SWAP2 SUB SWAP1 REVERT JUMPDEST PUSH1 0x0 DUP3 MLOAD PUSH8 0xFFFFFFFFFFFFFFFF DUP2 GT ISZERO PUSH2 0x66D JUMPI PUSH2 0x66C PUSH2 0x1100 JUMP JUMPDEST JUMPDEST PUSH1 0x40 MLOAD SWAP1 DUP1 DUP3 MSTORE DUP1 PUSH1 0x20 MUL PUSH1 0x20 ADD DUP3 ADD PUSH1 0x40 MSTORE DUP1 ISZERO PUSH2 0x69B JUMPI DUP2 PUSH1 0x20 ADD PUSH1 0x20 DUP3 MUL DUP1 CALLDATASIZE DUP4 CALLDATACOPY DUP1 DUP3 ADD SWAP2 POP POP SWAP1 POP JUMPDEST POP SWAP1 POP PUSH1 0x0 DUP3 MLOAD PUSH8 0xFFFFFFFFFFFFFFFF DUP2 GT ISZERO PUSH2 0x6BB JUMPI PUSH2 0x6BA PUSH2 0x1100 JUMP JUMPDEST JUMPDEST PUSH1 0x40 MLOAD SWAP1 DUP1 DUP3 MSTORE DUP1 PUSH1 0x20 MUL PUSH1 0x20 ADD DUP3 ADD PUSH1 0x40 MSTORE DUP1 ISZERO PUSH2 0x6E9 JUMPI DUP2 PUSH1 0x20 ADD PUSH1 0x20 DUP3 MUL DUP1 CALLDATASIZE DUP4 CALLDATACOPY DUP1 DUP3 ADD SWAP2 POP POP SWAP1 POP JUMPDEST POP SWAP1 POP PUSH1 0x0 DUP1 JUMPDEST DUP6 MLOAD DUP2 LT ISZERO PUSH2 0x88A JUMPI PUSH1 0x0 DUP7 DUP3 DUP2 MLOAD DUP2 LT PUSH2 0x70E JUMPI PUSH2 0x70D PUSH2 0x14CE JUMP JUMPDEST JUMPDEST PUSH1 0x20 MUL PUSH1 0x20 ADD ADD MLOAD SUB PUSH2 0x756 JUMPI PUSH1 0x40 MLOAD PUSH32 0x8C379A000000000000000000000000000000000000000000000000000000000 DUP2 MSTORE PUSH1 0x4 ADD PUSH2 0x74D SWAP1 PUSH2 0x1764 JUMP JUMPDEST PUSH1 0x40 MLOAD DUP1 SWAP2 SUB SWAP1 REVERT JUMPDEST PUSH1 0x0 DUP6 DUP3 DUP2 MLOAD DUP2 LT PUSH2 0x76B JUMPI PUSH2 0x76A PUSH2 0x14CE JUMP JUMPDEST JUMPDEST PUSH1 0x20 MUL PUSH1 0x20 ADD ADD MLOAD LT ISZERO DUP1 ISZERO PUSH2 0x79C JUMPI POP PUSH1 0x64 DUP6 DUP3 DUP2 MLOAD DUP2 LT PUSH2 0x791 JUMPI PUSH2 0x790 PUSH2 0x14CE JUMP JUMPDEST JUMPDEST PUSH1 0x20 MUL PUSH1 0x20 ADD ADD MLOAD GT ISZERO JUMPDEST PUSH2 0x7DB JUMPI PUSH1 0x40 MLOAD PUSH32 0x8C379A000000000000000000000000000000000000000000000000000000000 DUP2 MSTORE PUSH1 0x4 ADD PUSH2 0x7D2 SWAP1 PUSH2 0x17D0 JUMP JUMPDEST PUSH1 0x40 MLOAD DUP1 SWAP2 SUB SWAP1 REVERT JUMPDEST DUP6 DUP2 DUP2 MLOAD DUP2 LT PUSH2 0x7EE JUMPI PUSH2 0x7ED PUSH2 0x14CE JUMP JUMPDEST JUMPDEST PUSH1 0x20 MUL PUSH1 0x20 ADD ADD MLOAD DUP5 DUP3 DUP2 MLOAD DUP2 LT PUSH2 0x809 JUMPI PUSH2 0x808 PUSH2 0x14CE JUMP JUMPDEST JUMPDEST PUSH1 0x20 MUL PUSH1 0x20 ADD ADD DUP2 DUP2 MSTORE POP POP DUP5 DUP2 DUP2 MLOAD DUP2 LT PUSH2 0x828 JUMPI PUSH2 0x827 PUSH2 0x14CE JUMP JUMPDEST JUMPDEST PUSH1 0x20 MUL PUSH1 0x20 ADD ADD MLOAD DUP4 DUP3 DUP2 MLOAD DUP2 LT PUSH2 0x843 JUMPI PUSH2 0x842 PUSH2 0x14CE JUMP JUMPDEST JUMPDEST PUSH1 0x20 MUL PUSH1 0x20 ADD ADD DUP2 DUP2 MSTORE POP POP DUP5 DUP2 DUP2 MLOAD DUP2 LT PUSH2 0x862 JUMPI PUSH2 0x861 PUSH2 0x14CE JUMP JUMPDEST JUMPDEST PUSH1 0x20 MUL PUSH1 0x20 ADD ADD MLOAD DUP3 PUSH2 0x875 SWAP2 SWAP1 PUSH2 0x17F0 JUMP JUMPDEST SWAP2 POP DUP1 DUP1 PUSH2 0x882 SWAP1 PUSH2 0x158C JUMP JUMPDEST SWAP2 POP POP PUSH2 0x6F0 JUMP JUMPDEST POP PUSH1 0x64 DUP2 GT ISZERO PUSH2 0x90A JUMPI PUSH1 0x0 JUMPDEST DUP3 MLOAD DUP2 LT ISZERO PUSH2 0x904 JUMPI DUP2 DUP4 DUP3 DUP2 MLOAD DUP2 LT PUSH2 0x8B4 JUMPI PUSH2 0x8B3 PUSH2 0x14CE JUMP JUMPDEST JUMPDEST PUSH1 0x20 MUL PUSH1 0x20 ADD ADD MLOAD PUSH1 0x64 PUSH2 0x8C8 SWAP2 SWAP1 PUSH2 0x1824 JUMP JUMPDEST PUSH2 0x8D2 SWAP2 SWAP1 PUSH2 0x1895 JUMP JUMPDEST DUP4 DUP3 DUP2 MLOAD DUP2 LT PUSH2 0x8E5 JUMPI PUSH2 0x8E4 PUSH2 0x14CE JUMP JUMPDEST JUMPDEST PUSH1 0x20 MUL PUSH1 0x20 ADD ADD DUP2 DUP2 MSTORE POP POP DUP1 DUP1 PUSH2 0x8FC SWAP1 PUSH2 0x158C JUMP JUMPDEST SWAP2 POP POP PUSH2 0x897 JUMP JUMPDEST POP PUSH2 0xA4D JUMP JUMPDEST PUSH1 0x64 DUP2 LT ISZERO PUSH2 0xA4C JUMPI PUSH1 0x0 DUP2 PUSH1 0x64 PUSH2 0x922 SWAP2 SWAP1 PUSH2 0x18C6 JUMP JUMPDEST SWAP1 POP PUSH1 0x0 PUSH1 0x1 DUP5 MLOAD PUSH2 0x934 SWAP2 SWAP1 PUSH2 0x17F0 JUMP JUMPDEST PUSH8 0xFFFFFFFFFFFFFFFF DUP2 GT ISZERO PUSH2 0x94D JUMPI PUSH2 0x94C PUSH2 0x1100 JUMP JUMPDEST JUMPDEST PUSH1 0x40 MLOAD SWAP1 DUP1 DUP3 MSTORE DUP1 PUSH1 0x20 MUL PUSH1 0x20 ADD DUP3 ADD PUSH1 0x40 MSTORE DUP1 ISZERO PUSH2 0x97B JUMPI DUP2 PUSH1 0x20 ADD PUSH1 0x20 DUP3 MUL DUP1 CALLDATASIZE DUP4 CALLDATACOPY DUP1 DUP3 ADD SWAP2 POP POP SWAP1 POP JUMPDEST POP SWAP1 POP PUSH1 0x0 JUMPDEST DUP5 MLOAD DUP2 LT ISZERO PUSH2 0xA24 JUMPI PUSH1 0x0 DUP5 PUSH1 0x64 PUSH2 0x999 SWAP2 SWAP1 PUSH2 0x18C6 JUMP JUMPDEST DUP7 DUP4 DUP2 MLOAD DUP2 LT PUSH2 0x9AC JUMPI PUSH2 0x9AB PUSH2 0x14CE JUMP JUMPDEST JUMPDEST PUSH1 0x20 MUL PUSH1 0x20 ADD ADD MLOAD DUP6 PUSH2 0x9BF SWAP2 SWAP1 PUSH2 0x1824 JUMP JUMPDEST PUSH2 0x9C9 SWAP2 SWAP1 PUSH2 0x1895 JUMP JUMPDEST SWAP1 POP DUP1 DUP7 DUP4 DUP2 MLOAD DUP2 LT PUSH2 0x9DF JUMPI PUSH2 0x9DE PUSH2 0x14CE JUMP JUMPDEST JUMPDEST PUSH1 0x20 MUL PUSH1 0x20 ADD ADD MLOAD PUSH2 0x9F1 SWAP2 SWAP1 PUSH2 0x17F0 JUMP JUMPDEST DUP4 DUP4 DUP2 MLOAD DUP2 LT PUSH2 0xA04 JUMPI PUSH2 0xA03 PUSH2 0x14CE JUMP JUMPDEST JUMPDEST PUSH1 0x20 MUL PUSH1 0x20 ADD ADD DUP2 DUP2 MSTORE POP POP POP DUP1 DUP1 PUSH2 0xA1C SWAP1 PUSH2 0x158C JUMP JUMPDEST SWAP2 POP POP PUSH2 0x981 JUMP JUMPDEST POP DUP2 DUP2 DUP6 MLOAD DUP2 MLOAD DUP2 LT PUSH2 0xA3A JUMPI PUSH2 0xA39 PUSH2 0x14CE JUMP JUMPDEST JUMPDEST PUSH1 0x20 MUL PUSH1 0x20 ADD ADD DUP2 DUP2 MSTORE POP POP DUP1 SWAP4 POP POP POP JUMPDEST JUMPDEST PUSH1 0x0 DUP1 DUP1 SLOAD SWAP1 POP SWAP1 POP PUSH1 0x0 PUSH1 0x40 MLOAD DUP1 PUSH1 0xE0 ADD PUSH1 0x40 MSTORE DUP1 DUP4 DUP2 MSTORE PUSH1 0x20 ADD DUP12 DUP2 MSTORE PUSH1 0x20 ADD DUP11 DUP2 MSTORE PUSH1 0x20 ADD DUP10 DUP2 MSTORE PUSH1 0x20 ADD CALLER PUSH20 0xFFFFFFFFFFFFFFFFFFFFFFFFFFFFFFFFFFFFFFFF AND DUP2 MSTORE PUSH1 0x20 ADD DUP7 DUP2 MSTORE PUSH1 0x20 ADD DUP6 DUP2 MSTORE POP SWAP1 DUP1 PUSH1 0x1 DUP2 SLOAD ADD DUP1 DUP3 SSTORE DUP1 SWAP2 POP POP PUSH1 0x1 SWAP1 SUB SWAP1 PUSH1 0x0 MSTORE PUSH1 0x20 PUSH1 0x0 KECCAK256 SWAP1 PUSH1 0x7 MUL ADD PUSH1 0x0 SWAP1 SWAP2 SWAP1 SWAP2 SWAP1 SWAP2 POP PUSH1 0x0 DUP3 ADD MLOAD DUP2 PUSH1 0x0 ADD SSTORE PUSH1 0x20 DUP3 ADD MLOAD DUP2 PUSH1 0x1 ADD SWAP1 DUP2 PUSH2 0xAE9 SWAP2 SWAP1 PUSH2 0x1AA6 JUMP JUMPDEST POP PUSH1 0x40 DUP3 ADD MLOAD DUP2 PUSH1 0x2 ADD SWAP1 DUP2 PUSH2 0xAFF SWAP2 SWAP1 PUSH2 0x1AA6 JUMP JUMPDEST POP PUSH1 0x60 DUP3 ADD MLOAD DUP2 PUSH1 0x3 ADD SWAP1 DUP2 PUSH2 0xB15 SWAP2 SWAP1 PUSH2 0x1AA6 JUMP JUMPDEST POP PUSH1 0x80 DUP3 ADD MLOAD DUP2 PUSH1 0x4 ADD PUSH1 0x0 PUSH2 0x100 EXP DUP2 SLOAD DUP2 PUSH20 0xFFFFFFFFFFFFFFFFFFFFFFFFFFFFFFFFFFFFFFFF MUL NOT AND SWAP1 DUP4 PUSH20 0xFFFFFFFFFFFFFFFFFFFFFFFFFFFFFFFFFFFFFFFF AND MUL OR SWAP1 SSTORE POP PUSH1 0xA0 DUP3 ADD MLOAD DUP2 PUSH1 0x5 ADD SWAP1 DUP1 MLOAD SWAP1 PUSH1 0x20 ADD SWAP1 PUSH2 0xB79 SWAP3 SWAP2 SWAP1 PUSH2 0xDE5 JUMP JUMPDEST POP PUSH1 0xC0 DUP3 ADD MLOAD DUP2 PUSH1 0x6 ADD SWAP1 DUP1 MLOAD SWAP1 PUSH1 0x20 ADD SWAP1 PUSH2 0xB96 SWAP3 SWAP2 SWAP1 PUSH2 0xDE5 JUMP JUMPDEST POP POP POP PUSH32 0x99429B8E317A4D8F2440D759396B8C690CBB878AA34EA914A8687DB9D7A226F6 DUP2 DUP11 DUP11 DUP11 CALLER DUP10 DUP10 PUSH1 0x40 MLOAD PUSH2 0xBD4 SWAP8 SWAP7 SWAP6 SWAP5 SWAP4 SWAP3 SWAP2 SWAP1 PUSH2 0x1064 JUMP JUMPDEST PUSH1 0x40 MLOAD DUP1 SWAP2 SUB SWAP1 LOG1 POP POP POP POP POP POP POP POP POP JUMP JUMPDEST PUSH1 0x0 DUP2 DUP2 SLOAD DUP2 LT PUSH2 0xBF7 JUMPI PUSH1 0x0 DUP1 REVERT JUMPDEST SWAP1 PUSH1 0x0 MSTORE PUSH1 0x20 PUSH1 0x0 KECCAK256 SWAP1 PUSH1 0x7 MUL ADD PUSH1 0x0 SWAP2 POP SWAP1 POP DUP1 PUSH1 0x0 ADD SLOAD SWAP1 DUP1 PUSH1 0x1 ADD DUP1 SLOAD PUSH2 0xC20 SWAP1 PUSH2 0x152C JUMP JUMPDEST DUP1 PUSH1 0x1F ADD PUSH1 0x20 DUP1 SWAP2 DIV MUL PUSH1 0x20 ADD PUSH1 0x40 MLOAD SWAP1 DUP2 ADD PUSH1 0x40 MSTORE DUP1 SWAP3 SWAP2 SWAP1 DUP2 DUP2 MSTORE PUSH1 0x20 ADD DUP3 DUP1 SLOAD PUSH2 0xC4C SWAP1 PUSH2 0x152C JUMP JUMPDEST DUP1 ISZERO PUSH2 0xC99 JUMPI DUP1 PUSH1 0x1F LT PUSH2 0xC6E JUMPI PUSH2 0x100 DUP1 DUP4 SLOAD DIV MUL DUP4 MSTORE SWAP2 PUSH1 0x20 ADD SWAP2 PUSH2 0xC99 JUMP JUMPDEST DUP3 ADD SWAP2 SWAP1 PUSH1 0x0 MSTORE PUSH1 0x20 PUSH1 0x0 KECCAK256 SWAP1 JUMPDEST DUP2 SLOAD DUP2 MSTORE SWAP1 PUSH1 0x1 ADD SWAP1 PUSH1 0x20 ADD DUP1 DUP4 GT PUSH2 0xC7C JUMPI DUP3 SWAP1 SUB PUSH1 0x1F AND DUP3 ADD SWAP2 JUMPDEST POP POP POP POP POP SWAP1 DUP1 PUSH1 0x2 ADD DUP1 SLOAD PUSH2 0xCAE SWAP1 PUSH2 0x152C JUMP JUMPDEST DUP1 PUSH1 0x1F ADD PUSH1 0x20 DUP1 SWAP2 DIV MUL PUSH1 0x20 ADD PUSH1 0x40 MLOAD SWAP1 DUP2 ADD PUSH1 0x40 MSTORE DUP1 SWAP3 SWAP2 SWAP1 DUP2 DUP2 MSTORE PUSH1 0x20 ADD DUP3 DUP1 SLOAD PUSH2 0xCDA SWAP1 PUSH2 0x152C JUMP JUMPDEST DUP1 ISZERO PUSH2 0xD27 JUMPI DUP1 PUSH1 0x1F LT PUSH2 0xCFC JUMPI PUSH2 0x100 DUP1 DUP4 SLOAD DIV MUL DUP4 MSTORE SWAP2 PUSH1 0x20 ADD SWAP2 PUSH2 0xD27 JUMP JUMPDEST DUP3 ADD SWAP2 SWAP1 PUSH1 0x0 MSTORE PUSH1 0x20 PUSH1 0x0 KECCAK256 SWAP1 JUMPDEST DUP2 SLOAD DUP2 MSTORE SWAP1 PUSH1 0x1 ADD SWAP1 PUSH1 0x20 ADD DUP1 DUP4 GT PUSH2 0xD0A JUMPI DUP3 SWAP1 SUB PUSH1 0x1F AND DUP3 ADD SWAP2 JUMPDEST POP POP POP POP POP SWAP1 DUP1 PUSH1 0x3 ADD DUP1 SLOAD PUSH2 0xD3C SWAP1 PUSH2 0x152C JUMP JUMPDEST DUP1 PUSH1 0x1F ADD PUSH1 0x20 DUP1 SWAP2 DIV MUL PUSH1 0x20 ADD PUSH1 0x40 MLOAD SWAP1 DUP2 ADD PUSH1 0x40 MSTORE DUP1 SWAP3 SWAP2 SWAP1 DUP2 DUP2 MSTORE PUSH1 0x20 ADD DUP3 DUP1 SLOAD PUSH2 0xD68 SWAP1 PUSH2 0x152C JUMP JUMPDEST DUP1 ISZERO PUSH2 0xDB5 JUMPI DUP1 PUSH1 0x1F LT PUSH2 0xD8A JUMPI PUSH2 0x100 DUP1 DUP4 SLOAD DIV MUL DUP4 MSTORE SWAP2 PUSH1 0x20 ADD SWAP2 PUSH2 0xDB5 JUMP JUMPDEST DUP3 ADD SWAP2 SWAP1 PUSH1 0x0 MSTORE PUSH1 0x20 PUSH1 0x0 KECCAK256 SWAP1 JUMPDEST DUP2 SLOAD DUP2 MSTORE SWAP1 PUSH1 0x1 ADD SWAP1 PUSH1 0x20 ADD DUP1 DUP4 GT PUSH2 0xD98 JUMPI DUP3 SWAP1 SUB PUSH1 0x1F AND DUP3 ADD SWAP2 JUMPDEST POP POP POP POP POP SWAP1 DUP1 PUSH1 0x4 ADD PUSH1 0x0 SWAP1 SLOAD SWAP1 PUSH2 0x100 EXP SWAP1 DIV PUSH20 0xFFFFFFFFFFFFFFFFFFFFFFFFFFFFFFFFFFFFFFFF AND SWAP1 POP DUP6 JUMP JUMPDEST DUP3 DUP1 SLOAD DUP3 DUP3 SSTORE SWAP1 PUSH1 0x0 MSTORE PUSH1 0x20 PUSH1 0x0 KECCAK256 SWAP1 DUP2 ADD SWAP3 DUP3 ISZERO PUSH2 0xE21 JUMPI SWAP2 PUSH1 0x20 MUL DUP3 ADD JUMPDEST DUP3 DUP2 GT ISZERO PUSH2 0xE20 JUMPI DUP3 MLOAD DUP3 SSTORE SWAP2 PUSH1 0x20 ADD SWAP2 SWAP1 PUSH1 0x1 ADD SWAP1 PUSH2 0xE05 JUMP JUMPDEST JUMPDEST POP SWAP1 POP PUSH2 0xE2E SWAP2 SWAP1 PUSH2 0xE32 JUMP JUMPDEST POP SWAP1 JUMP JUMPDEST JUMPDEST DUP1 DUP3 GT ISZERO PUSH2 0xE4B JUMPI PUSH1 0x0 DUP2 PUSH1 0x0 SWAP1 SSTORE POP PUSH1 0x1 ADD PUSH2 0xE33 JUMP JUMPDEST POP SWAP1 JUMP JUMPDEST PUSH1 0x0 PUSH1 0x40 MLOAD SWAP1 POP SWAP1 JUMP JUMPDEST PUSH1 0x0 DUP1 REVERT JUMPDEST PUSH1 0x0 DUP1 REVERT JUMPDEST PUSH1 0x0 DUP2 SWAP1 POP SWAP2 SWAP1 POP JUMP JUMPDEST PUSH2 0xE76 DUP2 PUSH2 0xE63 JUMP JUMPDEST DUP2 EQ PUSH2 0xE81 JUMPI PUSH1 0x0 DUP1 REVERT JUMPDEST POP JUMP JUMPDEST PUSH1 0x0 DUP2 CALLDATALOAD SWAP1 POP PUSH2 0xE93 DUP2 PUSH2 0xE6D JUMP JUMPDEST SWAP3 SWAP2 POP POP JUMP JUMPDEST PUSH1 0x0 PUSH1 0x20 DUP3 DUP5 SUB SLT ISZERO PUSH2 0xEAF JUMPI PUSH2 0xEAE PUSH2 0xE59 JUMP JUMPDEST JUMPDEST PUSH1 0x0 PUSH2 0xEBD DUP5 DUP3 DUP6 ADD PUSH2 0xE84 JUMP JUMPDEST SWAP2 POP POP SWAP3 SWAP2 POP POP JUMP JUMPDEST PUSH2 0xECF DUP2 PUSH2 0xE63 JUMP JUMPDEST DUP3 MSTORE POP POP JUMP JUMPDEST PUSH1 0x0 DUP2 MLOAD SWAP1 POP SWAP2 SWAP1 POP JUMP JUMPDEST PUSH1 0x0 DUP3 DUP3 MSTORE PUSH1 0x20 DUP3 ADD SWAP1 POP SWAP3 SWAP2 POP POP JUMP JUMPDEST PUSH1 0x0 JUMPDEST DUP4 DUP2 LT ISZERO PUSH2 0xF0F JUMPI DUP1 DUP3 ADD MLOAD DUP2 DUP5 ADD MSTORE PUSH1 0x20 DUP2 ADD SWAP1 POP PUSH2 0xEF4 JUMP JUMPDEST PUSH1 0x0 DUP5 DUP5 ADD MSTORE POP POP POP POP JUMP JUMPDEST PUSH1 0x0 PUSH1 0x1F NOT PUSH1 0x1F DUP4 ADD AND SWAP1 POP SWAP2 SWAP1 POP JUMP JUMPDEST PUSH1 0x0 PUSH2 0xF37 DUP3 PUSH2 0xED5 JUMP JUMPDEST PUSH2 0xF41 DUP2 DUP6 PUSH2 0xEE0 JUMP JUMPDEST SWAP4 POP PUSH2 0xF51 DUP2 DUP6 PUSH1 0x20 DUP7 ADD PUSH2 0xEF1 JUMP JUMPDEST PUSH2 0xF5A DUP2 PUSH2 0xF1B JUMP JUMPDEST DUP5 ADD SWAP2 POP POP SWAP3 SWAP2 POP POP JUMP JUMPDEST PUSH1 0x0 PUSH20 0xFFFFFFFFFFFFFFFFFFFFFFFFFFFFFFFFFFFFFFFF DUP3 AND SWAP1 POP SWAP2 SWAP1 POP JUMP JUMPDEST PUSH1 0x0 PUSH2 0xF90 DUP3 PUSH2 0xF65 JUMP JUMPDEST SWAP1 POP SWAP2 SWAP1 POP JUMP JUMPDEST PUSH2 0xFA0 DUP2 PUSH2 0xF85 JUMP JUMPDEST DUP3 MSTORE POP POP JUMP JUMPDEST PUSH1 0x0 DUP2 MLOAD SWAP1 POP SWAP2 SWAP1 POP JUMP JUMPDEST PUSH1 0x0 DUP3 DUP3 MSTORE PUSH1 0x20 DUP3 ADD SWAP1 POP SWAP3 SWAP2 POP POP JUMP JUMPDEST PUSH1 0x0 DUP2 SWAP1 POP PUSH1 0x20 DUP3 ADD SWAP1 POP SWAP2 SWAP1 POP JUMP JUMPDEST PUSH2 0xFDB DUP2 PUSH2 0xE63 JUMP JUMPDEST DUP3 MSTORE POP POP JUMP JUMPDEST PUSH1 0x0 PUSH2 0xFED DUP4 DUP4 PUSH2 0xFD2 JUMP JUMPDEST PUSH1 0x20 DUP4 ADD SWAP1 POP SWAP3 SWAP2 POP POP JUMP JUMPDEST PUSH1 0x0 PUSH1 0x20 DUP3 ADD SWAP1 POP SWAP2 SWAP1 POP JUMP JUMPDEST PUSH1 0x0 PUSH2 0x1011 DUP3 PUSH2 0xFA6 JUMP JUMPDEST PUSH2 0x101B DUP2 DUP6 PUSH2 0xFB1 JUMP JUMPDEST SWAP4 POP PUSH2 0x1026 DUP4 PUSH2 0xFC2 JUMP JUMPDEST DUP1 PUSH1 0x0 JUMPDEST DUP4 DUP2 LT ISZERO PUSH2 0x1057 JUMPI DUP2 MLOAD PUSH2 0x103E DUP9 DUP3 PUSH2 0xFE1 JUMP JUMPDEST SWAP8 POP PUSH2 0x1049 DUP4 PUSH2 0xFF9 JUMP JUMPDEST SWAP3 POP POP PUSH1 0x1 DUP2 ADD SWAP1 POP PUSH2 0x102A JUMP JUMPDEST POP DUP6 SWAP4 POP POP POP POP SWAP3 SWAP2 POP POP JUMP JUMPDEST PUSH1 0x0 PUSH1 0xE0 DUP3 ADD SWAP1 POP PUSH2 0x1079 PUSH1 0x0 DUP4 ADD DUP11 PUSH2 0xEC6 JUMP JUMPDEST DUP2 DUP2 SUB PUSH1 0x20 DUP4 ADD MSTORE PUSH2 0x108B DUP2 DUP10 PUSH2 0xF2C JUMP JUMPDEST SWAP1 POP DUP2 DUP2 SUB PUSH1 0x40 DUP4 ADD MSTORE PUSH2 0x109F DUP2 DUP9 PUSH2 0xF2C JUMP JUMPDEST SWAP1 POP DUP2 DUP2 SUB PUSH1 0x60 DUP4 ADD MSTORE PUSH2 0x10B3 DUP2 DUP8 PUSH2 0xF2C JUMP JUMPDEST SWAP1 POP PUSH2 0x10C2 PUSH1 0x80 DUP4 ADD DUP7 PUSH2 0xF97 JUMP JUMPDEST DUP2 DUP2 SUB PUSH1 0xA0 DUP4 ADD MSTORE PUSH2 0x10D4 DUP2 DUP6 PUSH2 0x1006 JUMP JUMPDEST SWAP1 POP DUP2 DUP2 SUB PUSH1 0xC0 DUP4 ADD MSTORE PUSH2 0x10E8 DUP2 DUP5 PUSH2 0x1006 JUMP JUMPDEST SWAP1 POP SWAP9 SWAP8 POP POP POP POP POP POP POP POP JUMP JUMPDEST PUSH1 0x0 DUP1 REVERT JUMPDEST PUSH1 0x0 DUP1 REVERT JUMPDEST PUSH32 0x4E487B7100000000000000000000000000000000000000000000000000000000 PUSH1 0x0 MSTORE PUSH1 0x41 PUSH1 0x4 MSTORE PUSH1 0x24 PUSH1 0x0 REVERT JUMPDEST PUSH2 0x1138 DUP3 PUSH2 0xF1B JUMP JUMPDEST DUP2 ADD DUP2 DUP2 LT PUSH8 0xFFFFFFFFFFFFFFFF DUP3 GT OR ISZERO PUSH2 0x1157 JUMPI PUSH2 0x1156 PUSH2 0x1100 JUMP JUMPDEST JUMPDEST DUP1 PUSH1 0x40 MSTORE POP POP POP JUMP JUMPDEST PUSH1 0x0 PUSH2 0x116A PUSH2 0xE4F JUMP JUMPDEST SWAP1 POP PUSH2 0x1176 DUP3 DUP3 PUSH2 0x112F JUMP JUMPDEST SWAP2 SWAP1 POP JUMP JUMPDEST PUSH1 0x0 PUSH8 0xFFFFFFFFFFFFFFFF DUP3 GT ISZERO PUSH2 0x1196 JUMPI PUSH2 0x1195 PUSH2 0x1100 JUMP JUMPDEST JUMPDEST PUSH2 0x119F DUP3 PUSH2 0xF1B JUMP JUMPDEST SWAP1 POP PUSH1 0x20 DUP2 ADD SWAP1 POP SWAP2 SWAP1 POP JUMP JUMPDEST DUP3 DUP2 DUP4 CALLDATACOPY PUSH1 0x0 DUP4 DUP4 ADD MSTORE POP POP POP JUMP JUMPDEST PUSH1 0x0 PUSH2 0x11CE PUSH2 0x11C9 DUP5 PUSH2 0x117B JUMP JUMPDEST PUSH2 0x1160 JUMP JUMPDEST SWAP1 POP DUP3 DUP2 MSTORE PUSH1 0x20 DUP2 ADD DUP5 DUP5 DUP5 ADD GT ISZERO PUSH2 0x11EA JUMPI PUSH2 0x11E9 PUSH2 0x10FB JUMP JUMPDEST JUMPDEST PUSH2 0x11F5 DUP5 DUP3 DUP6 PUSH2 0x11AC JUMP JUMPDEST POP SWAP4 SWAP3 POP POP POP JUMP JUMPDEST PUSH1 0x0 DUP3 PUSH1 0x1F DUP4 ADD SLT PUSH2 0x1212 JUMPI PUSH2 0x1211 PUSH2 0x10F6 JUMP JUMPDEST JUMPDEST DUP2 CALLDATALOAD PUSH2 0x1222 DUP5 DUP3 PUSH1 0x20 DUP7 ADD PUSH2 0x11BB JUMP JUMPDEST SWAP2 POP POP SWAP3 SWAP2 POP POP JUMP JUMPDEST PUSH1 0x0 PUSH8 0xFFFFFFFFFFFFFFFF DUP3 GT ISZERO PUSH2 0x1246 JUMPI PUSH2 0x1245 PUSH2 0x1100 JUMP JUMPDEST JUMPDEST PUSH1 0x20 DUP3 MUL SWAP1 POP PUSH1 0x20 DUP2 ADD SWAP1 POP SWAP2 SWAP1 POP JUMP JUMPDEST PUSH1 0x0 DUP1 REVERT JUMPDEST PUSH1 0x0 PUSH2 0x126F PUSH2 0x126A DUP5 PUSH2 0x122B JUMP JUMPDEST PUSH2 0x1160 JUMP JUMPDEST SWAP1 POP DUP1 DUP4 DUP3 MSTORE PUSH1 0x20 DUP3 ADD SWAP1 POP PUSH1 0x20 DUP5 MUL DUP4 ADD DUP6 DUP2 GT ISZERO PUSH2 0x1292 JUMPI PUSH2 0x1291 PUSH2 0x1257 JUMP JUMPDEST JUMPDEST DUP4 JUMPDEST DUP2 DUP2 LT ISZERO PUSH2 0x12BB JUMPI DUP1 PUSH2 0x12A7 DUP9 DUP3 PUSH2 0xE84 JUMP JUMPDEST DUP5 MSTORE PUSH1 0x20 DUP5 ADD SWAP4 POP POP PUSH1 0x20 DUP2 ADD SWAP1 POP PUSH2 0x1294 JUMP JUMPDEST POP POP POP SWAP4 SWAP3 POP POP POP JUMP JUMPDEST PUSH1 0x0 DUP3 PUSH1 0x1F DUP4 ADD SLT PUSH2 0x12DA JUMPI PUSH2 0x12D9 PUSH2 0x10F6 JUMP JUMPDEST JUMPDEST DUP2 CALLDATALOAD PUSH2 0x12EA DUP5 DUP3 PUSH1 0x20 DUP7 ADD PUSH2 0x125C JUMP JUMPDEST SWAP2 POP POP SWAP3 SWAP2 POP POP JUMP JUMPDEST PUSH1 0x0 DUP1 PUSH1 0x0 DUP1 PUSH1 0x0 PUSH1 0xA0 DUP7 DUP9 SUB SLT ISZERO PUSH2 0x130F JUMPI PUSH2 0x130E PUSH2 0xE59 JUMP JUMPDEST JUMPDEST PUSH1 0x0 DUP7 ADD CALLDATALOAD PUSH8 0xFFFFFFFFFFFFFFFF DUP2 GT ISZERO PUSH2 0x132D JUMPI PUSH2 0x132C PUSH2 0xE5E JUMP JUMPDEST JUMPDEST PUSH2 0x1339 DUP9 DUP3 DUP10 ADD PUSH2 0x11FD JUMP JUMPDEST SWAP6 POP POP PUSH1 0x20 DUP7 ADD CALLDATALOAD PUSH8 0xFFFFFFFFFFFFFFFF DUP2 GT ISZERO PUSH2 0x135A JUMPI PUSH2 0x1359 PUSH2 0xE5E JUMP JUMPDEST JUMPDEST PUSH2 0x1366 DUP9 DUP3 DUP10 ADD PUSH2 0x11FD JUMP JUMPDEST SWAP5 POP POP PUSH1 0x40 DUP7 ADD CALLDATALOAD PUSH8 0xFFFFFFFFFFFFFFFF DUP2 GT ISZERO PUSH2 0x1387 JUMPI PUSH2 0x1386 PUSH2 0xE5E JUMP JUMPDEST JUMPDEST PUSH2 0x1393 DUP9 DUP3 DUP10 ADD PUSH2 0x11FD JUMP JUMPDEST SWAP4 POP POP PUSH1 0x60 DUP7 ADD CALLDATALOAD PUSH8 0xFFFFFFFFFFFFFFFF DUP2 GT ISZERO PUSH2 0x13B4 JUMPI PUSH2 0x13B3 PUSH2 0xE5E JUMP JUMPDEST JUMPDEST PUSH2 0x13C0 DUP9 DUP3 DUP10 ADD PUSH2 0x12C5 JUMP JUMPDEST SWAP3 POP POP PUSH1 0x80 DUP7 ADD CALLDATALOAD PUSH8 0xFFFFFFFFFFFFFFFF DUP2 GT ISZERO PUSH2 0x13E1 JUMPI PUSH2 0x13E0 PUSH2 0xE5E JUMP JUMPDEST JUMPDEST PUSH2 0x13ED DUP9 DUP3 DUP10 ADD PUSH2 0x12C5 JUMP JUMPDEST SWAP2 POP POP SWAP3 SWAP6 POP SWAP3 SWAP6 SWAP1 SWAP4 POP JUMP JUMPDEST PUSH1 0x0 PUSH1 0xA0 DUP3 ADD SWAP1 POP PUSH2 0x140F PUSH1 0x0 DUP4 ADD DUP9 PUSH2 0xEC6 JUMP JUMPDEST DUP2 DUP2 SUB PUSH1 0x20 DUP4 ADD MSTORE PUSH2 0x1421 DUP2 DUP8 PUSH2 0xF2C JUMP JUMPDEST SWAP1 POP DUP2 DUP2 SUB PUSH1 0x40 DUP4 ADD MSTORE PUSH2 0x1435 DUP2 DUP7 PUSH2 0xF2C JUMP JUMPDEST SWAP1 POP DUP2 DUP2 SUB PUSH1 0x60 DUP4 ADD MSTORE PUSH2 0x1449 DUP2 DUP6 PUSH2 0xF2C JUMP JUMPDEST SWAP1 POP PUSH2 0x1458 PUSH1 0x80 DUP4 ADD DUP5 PUSH2 0xF97 JUMP JUMPDEST SWAP7 SWAP6 POP POP POP POP POP POP JUMP JUMPDEST PUSH32 0x496E76616C69642061727469636C652049440000000000000000000000000000 PUSH1 0x0 DUP3 ADD MSTORE POP JUMP JUMPDEST PUSH1 0x0 PUSH2 0x1498 PUSH1 0x12 DUP4 PUSH2 0xEE0 JUMP JUMPDEST SWAP2 POP PUSH2 0x14A3 DUP3 PUSH2 0x1462 JUMP JUMPDEST PUSH1 0x20 DUP3 ADD SWAP1 POP SWAP2 SWAP1 POP JUMP JUMPDEST PUSH1 0x0 PUSH1 0x20 DUP3 ADD SWAP1 POP DUP2 DUP2 SUB PUSH1 0x0 DUP4 ADD MSTORE PUSH2 0x14C7 DUP2 PUSH2 0x148B JUMP JUMPDEST SWAP1 POP SWAP2 SWAP1 POP JUMP JUMPDEST PUSH32 0x4E487B7100000000000000000000000000000000000000000000000000000000 PUSH1 0x0 MSTORE PUSH1 0x32 PUSH1 0x4 MSTORE PUSH1 0x24 PUSH1 0x0 REVERT JUMPDEST PUSH32 0x4E487B7100000000000000000000000000000000000000000000000000000000 PUSH1 0x0 MSTORE PUSH1 0x22 PUSH1 0x4 MSTORE PUSH1 0x24 PUSH1 0x0 REVERT JUMPDEST PUSH1 0x0 PUSH1 0x2 DUP3 DIV SWAP1 POP PUSH1 0x1 DUP3 AND DUP1 PUSH2 0x1544 JUMPI PUSH1 0x7F DUP3 AND SWAP2 POP JUMPDEST PUSH1 0x20 DUP3 LT DUP2 SUB PUSH2 0x1557 JUMPI PUSH2 0x1556 PUSH2 0x14FD JUMP JUMPDEST JUMPDEST POP SWAP2 SWAP1 POP JUMP JUMPDEST PUSH32 0x4E487B7100000000000000000000000000000000000000000000000000000000 PUSH1 0x0 MSTORE PUSH1 0x11 PUSH1 0x4 MSTORE PUSH1 0x24 PUSH1 0x0 REVERT JUMPDEST PUSH1 0x0 PUSH2 0x1597 DUP3 PUSH2 0xE63 JUMP JUMPDEST SWAP2 POP PUSH32 0xFFFFFFFFFFFFFFFFFFFFFFFFFFFFFFFFFFFFFFFFFFFFFFFFFFFFFFFFFFFFFFFF DUP3 SUB PUSH2 0x15C9 JUMPI PUSH2 0x15C8 PUSH2 0x155D JUMP JUMPDEST JUMPDEST PUSH1 0x1 DUP3 ADD SWAP1 POP SWAP2 SWAP1 POP JUMP JUMPDEST PUSH32 0x5469746C652063616E6E6F7420626520656D7074790000000000000000000000 PUSH1 0x0 DUP3 ADD MSTORE POP JUMP JUMPDEST PUSH1 0x0 PUSH2 0x160A PUSH1 0x15 DUP4 PUSH2 0xEE0 JUMP JUMPDEST SWAP2 POP PUSH2 0x1615 DUP3 PUSH2 0x15D4 JUMP JUMPDEST PUSH1 0x20 DUP3 ADD SWAP1 POP SWAP2 SWAP1 POP JUMP JUMPDEST PUSH1 0x0 PUSH1 0x20 DUP3 ADD SWAP1 POP DUP2 DUP2 SUB PUSH1 0x0 DUP4 ADD MSTORE PUSH2 0x1639 DUP2 PUSH2 0x15FD JUMP JUMPDEST SWAP1 POP SWAP2 SWAP1 POP JUMP JUMPDEST PUSH32 0x55524C2063616E6E6F7420626520656D70747900000000000000000000000000 PUSH1 0x0 DUP3 ADD MSTORE POP JUMP JUMPDEST PUSH1 0x0 PUSH2 0x1676 PUSH1 0x13 DUP4 PUSH2 0xEE0 JUMP JUMPDEST SWAP2 POP PUSH2 0x1681 DUP3 PUSH2 0x1640 JUMP JUMPDEST PUSH1 0x20 DUP3 ADD SWAP1 POP SWAP2 SWAP1 POP JUMP JUMPDEST PUSH1 0x0 PUSH1 0x20 DUP3 ADD SWAP1 POP DUP2 DUP2 SUB PUSH1 0x0 DUP4 ADD MSTORE PUSH2 0x16A5 DUP2 PUSH2 0x1669 JUMP JUMPDEST SWAP1 POP SWAP2 SWAP1 POP JUMP JUMPDEST PUSH32 0x417574686F72206E616D652063616E6E6F7420626520656D7074790000000000 PUSH1 0x0 DUP3 ADD MSTORE POP JUMP JUMPDEST PUSH1 0x0 PUSH2 0x16E2 PUSH1 0x1B DUP4 PUSH2 0xEE0 JUMP JUMPDEST SWAP2 POP PUSH2 0x16ED DUP3 PUSH2 0x16AC JUMP JUMPDEST PUSH1 0x20 DUP3 ADD SWAP1 POP SWAP2 SWAP1 POP JUMP JUMPDEST PUSH1 0x0 PUSH1 0x20 DUP3 ADD SWAP1 POP DUP2 DUP2 SUB PUSH1 0x0 DUP4 ADD MSTORE PUSH2 0x1711 DUP2 PUSH2 0x16D5 JUMP JUMPDEST SWAP1 POP SWAP2 SWAP1 POP JUMP JUMPDEST PUSH32 0x496E76616C6964206369746174696F6E20494400000000000000000000000000 PUSH1 0x0 DUP3 ADD MSTORE POP JUMP JUMPDEST PUSH1 0x0 PUSH2 0x174E PUSH1 0x13 DUP4 PUSH2 0xEE0 JUMP JUMPDEST SWAP2 POP PUSH2 0x1759 DUP3 PUSH2 0x1718 JUMP JUMPDEST PUSH1 0x20 DUP3 ADD SWAP1 POP SWAP2 SWAP1 POP JUMP JUMPDEST PUSH1 0x0 PUSH1 0x20 DUP3 ADD SWAP1 POP DUP2 DUP2 SUB PUSH1 0x0 DUP4 ADD MSTORE PUSH2 0x177D DUP2 PUSH2 0x1741 JUMP JUMPDEST SWAP1 POP SWAP2 SWAP1 POP JUMP JUMPDEST PUSH32 0x576569676874206D757374206265206265747765656E203020616E6420313030 PUSH1 0x0 DUP3 ADD MSTORE POP JUMP JUMPDEST PUSH1 0x0 PUSH2 0x17BA PUSH1 0x20 DUP4 PUSH2 0xEE0 JUMP JUMPDEST SWAP2 POP PUSH2 0x17C5 DUP3 PUSH2 0x1784 JUMP JUMPDEST PUSH1 0x20 DUP3 ADD SWAP1 POP SWAP2 SWAP1 POP JUMP JUMPDEST PUSH1 0x0 PUSH1 0x20 DUP3 ADD SWAP1 POP DUP2 DUP2 SUB PUSH1 0x0 DUP4 ADD MSTORE PUSH2 0x17E9 DUP2 PUSH2 0x17AD JUMP JUMPDEST SWAP1 POP SWAP2 SWAP1 POP JUMP JUMPDEST PUSH1 0x0 PUSH2 0x17FB DUP3 PUSH2 0xE63 JUMP JUMPDEST SWAP2 POP PUSH2 0x1806 DUP4 PUSH2 0xE63 JUMP JUMPDEST SWAP3 POP DUP3 DUP3 ADD SWAP1 POP DUP1 DUP3 GT ISZERO PUSH2 0x181E JUMPI PUSH2 0x181D PUSH2 0x155D JUMP JUMPDEST JUMPDEST SWAP3 SWAP2 POP POP JUMP JUMPDEST PUSH1 0x0 PUSH2 0x182F DUP3 PUSH2 0xE63 JUMP JUMPDEST SWAP2 POP PUSH2 0x183A DUP4 PUSH2 0xE63 JUMP JUMPDEST SWAP3 POP DUP3 DUP3 MUL PUSH2 0x1848 DUP2 PUSH2 0xE63 JUMP JUMPDEST SWAP2 POP DUP3 DUP3 DIV DUP5 EQ DUP4 ISZERO OR PUSH2 0x185F JUMPI PUSH2 0x185E PUSH2 0x155D JUMP JUMPDEST JUMPDEST POP SWAP3 SWAP2 POP POP JUMP JUMPDEST PUSH32 0x4E487B7100000000000000000000000000000000000000000000000000000000 PUSH1 0x0 MSTORE PUSH1 0x12 PUSH1 0x4 MSTORE PUSH1 0x24 PUSH1 0x0 REVERT JUMPDEST PUSH1 0x0 PUSH2 0x18A0 DUP3 PUSH2 0xE63 JUMP JUMPDEST SWAP2 POP PUSH2 0x18AB DUP4 PUSH2 0xE63 JUMP JUMPDEST SWAP3 POP DUP3 PUSH2 0x18BB JUMPI PUSH2 0x18BA PUSH2 0x1866 JUMP JUMPDEST JUMPDEST DUP3 DUP3 DIV SWAP1 POP SWAP3 SWAP2 POP POP JUMP JUMPDEST PUSH1 0x0 PUSH2 0x18D1 DUP3 PUSH2 0xE63 JUMP JUMPDEST SWAP2 POP PUSH2 0x18DC DUP4 PUSH2 0xE63 JUMP JUMPDEST SWAP3 POP DUP3 DUP3 SUB SWAP1 POP DUP2 DUP2 GT ISZERO PUSH2 0x18F4 JUMPI PUSH2 0x18F3 PUSH2 0x155D JUMP JUMPDEST JUMPDEST SWAP3 SWAP2 POP POP JUMP JUMPDEST PUSH1 0x0 DUP2 SWAP1 POP DUP2 PUSH1 0x0 MSTORE PUSH1 0x20 PUSH1 0x0 KECCAK256 SWAP1 POP SWAP2 SWAP1 POP JUMP JUMPDEST PUSH1 0x0 PUSH1 0x20 PUSH1 0x1F DUP4 ADD DIV SWAP1 POP SWAP2 SWAP1 POP JUMP JUMPDEST PUSH1 0x0 DUP3 DUP3 SHL SWAP1 POP SWAP3 SWAP2 POP POP JUMP JUMPDEST PUSH1 0x0 PUSH1 0x8 DUP4 MUL PUSH2 0x195C PUSH32 0xFFFFFFFFFFFFFFFFFFFFFFFFFFFFFFFFFFFFFFFFFFFFFFFFFFFFFFFFFFFFFFFF DUP3 PUSH2 0x191F JUMP JUMPDEST PUSH2 0x1966 DUP7 DUP4 PUSH2 0x191F JUMP JUMPDEST SWAP6 POP DUP1 NOT DUP5 AND SWAP4 POP DUP1 DUP7 AND DUP5 OR SWAP3 POP POP POP SWAP4 SWAP3 POP POP POP JUMP JUMPDEST PUSH1 0x0 DUP2 SWAP1 POP SWAP2 SWAP1 POP JUMP JUMPDEST PUSH1 0x0 PUSH2 0x19A3 PUSH2 0x199E PUSH2 0x1999 DUP5 PUSH2 0xE63 JUMP JUMPDEST PUSH2 0x197E JUMP JUMPDEST PUSH2 0xE63 JUMP JUMPDEST SWAP1 POP SWAP2 SWAP1 POP JUMP JUMPDEST PUSH1 0x0 DUP2 SWAP1 POP SWAP2 SWAP1 POP JUMP JUMPDEST PUSH2 0x19BD DUP4 PUSH2 0x1988 JUMP JUMPDEST PUSH2 0x19D1 PUSH2 0x19C9 DUP3 PUSH2 0x19AA JUMP JUMPDEST DUP5 DUP5 SLOAD PUSH2 0x192C JUMP JUMPDEST DUP3 SSTORE POP POP POP POP JUMP JUMPDEST PUSH1 0x0 SWAP1 JUMP JUMPDEST PUSH2 0x19E6 PUSH2 0x19D9 JUMP JUMPDEST PUSH2 0x19F1 DUP2 DUP5 DUP5 PUSH2 0x19B4 JUMP JUMPDEST POP POP POP JUMP JUMPDEST JUMPDEST DUP2 DUP2 LT ISZERO PUSH2 0x1A15 JUMPI PUSH2 0x1A0A PUSH1 0x0 DUP3 PUSH2 0x19DE JUMP JUMPDEST PUSH1 0x1 DUP2 ADD SWAP1 POP PUSH2 0x19F7 JUMP JUMPDEST POP POP JUMP JUMPDEST PUSH1 0x1F DUP3 GT ISZERO PUSH2 0x1A5A JUMPI PUSH2 0x1A2B DUP2 PUSH2 0x18FA JUMP JUMPDEST PUSH2 0x1A34 DUP5 PUSH2 0x190F JUMP JUMPDEST DUP2 ADD PUSH1 0x20 DUP6 LT ISZERO PUSH2 0x1A43 JUMPI DUP2 SWAP1 POP JUMPDEST PUSH2 0x1A57 PUSH2 0x1A4F DUP6 PUSH2 0x190F JUMP JUMPDEST DUP4 ADD DUP3 PUSH2 0x19F6 JUMP JUMPDEST POP POP JUMPDEST POP POP POP JUMP JUMPDEST PUSH1 0x0 DUP3 DUP3 SHR SWAP1 POP SWAP3 SWAP2 POP POP JUMP JUMPDEST PUSH1 0x0 PUSH2 0x1A7D PUSH1 0x0 NOT DUP5 PUSH1 0x8 MUL PUSH2 0x1A5F JUMP JUMPDEST NOT DUP1 DUP4 AND SWAP2 POP POP SWAP3 SWAP2 POP POP JUMP JUMPDEST PUSH1 0x0 PUSH2 0x1A96 DUP4 DUP4 PUSH2 0x1A6C JUMP JUMPDEST SWAP2 POP DUP3 PUSH1 0x2 MUL DUP3 OR SWAP1 POP SWAP3 SWAP2 POP POP JUMP JUMPDEST PUSH2 0x1AAF DUP3 PUSH2 0xED5 JUMP JUMPDEST PUSH8 0xFFFFFFFFFFFFFFFF DUP2 GT ISZERO PUSH2 0x1AC8 JUMPI PUSH2 0x1AC7 PUSH2 0x1100 JUMP JUMPDEST JUMPDEST PUSH2 0x1AD2 DUP3 SLOAD PUSH2 0x152C JUMP JUMPDEST PUSH2 0x1ADD DUP3 DUP3 DUP6 PUSH2 0x1A19 JUMP JUMPDEST PUSH1 0x0 PUSH1 0x20 SWAP1 POP PUSH1 0x1F DUP4 GT PUSH1 0x1 DUP2 EQ PUSH2 0x1B10 JUMPI PUSH1 0x0 DUP5 ISZERO PUSH2 0x1AFE JUMPI DUP3 DUP8 ADD MLOAD SWAP1 POP JUMPDEST PUSH2 0x1B08 DUP6 DUP3 PUSH2 0x1A8A JUMP JUMPDEST DUP7 SSTORE POP PUSH2 0x1B70 JUMP JUMPDEST PUSH1 0x1F NOT DUP5 AND PUSH2 0x1B1E DUP7 PUSH2 0x18FA JUMP JUMPDEST PUSH1 0x0 JUMPDEST DUP3 DUP2 LT ISZERO PUSH2 0x1B46 JUMPI DUP5 DUP10 ADD MLOAD DUP3 SSTORE PUSH1 0x1 DUP3 ADD SWAP2 POP PUSH1 0x20 DUP6 ADD SWAP5 POP PUSH1 0x20 DUP2 ADD SWAP1 POP PUSH2 0x1B21 JUMP JUMPDEST DUP7 DUP4 LT ISZERO PUSH2 0x1B63 JUMPI DUP5 DUP10 ADD MLOAD PUSH2 0x1B5F PUSH1 0x1F DUP10 AND DUP3 PUSH2 0x1A6C JUMP JUMPDEST DUP4 SSTORE POP JUMPDEST PUSH1 0x1 PUSH1 0x2 DUP9 MUL ADD DUP9 SSTORE POP POP POP JUMPDEST POP POP POP POP POP POP JUMP INVALID LOG2 PUSH5 0x6970667358 0x22 SLT KECCAK256 STATICCALL PUSH5 0xE9CEE9AEE3 0x24 SWAP4 SLOAD 0xE8 0xF6 MOD CREATE2 PUSH26 0x7A864B0780FB111828C9D3349013197BFF64736F6C6343000812 STOP CALLER "
				},
				"gasEstimates": {
					"creation": {
						"codeDepositCost": "1417200",
						"executionCost": "1479",
						"totalCost": "1418679"
					},
					"external": {
						"articles(uint256)": "infinite",
						"createArticle(string,string,string,uint256[],uint256[])": "infinite",
						"getArticle(uint256)": "infinite"
					}
				},
				"methodIdentifiers": {
					"articles(uint256)": "edcfafe6",
					"createArticle(string,string,string,uint256[],uint256[])": "c8f3c5b5",
					"getArticle(uint256)": "bd85d867"
				}
			},
			"storageLayout": {
				"storage": [
					{
						"astId": 22,
						"contract": "contracts/Article.sol:Article",
						"label": "articles",
						"offset": 0,
						"slot": "0",
						"type": "t_array(t_struct(ArticleData)18_storage)dyn_storage"
					}
				],
				"types": {
					"t_address": {
						"encoding": "inplace",
						"label": "address",
						"numberOfBytes": "20"
					},
					"t_array(t_struct(ArticleData)18_storage)dyn_storage": {
						"base": "t_struct(ArticleData)18_storage",
						"encoding": "dynamic_array",
						"label": "struct Article.ArticleData[]",
						"numberOfBytes": "32"
					},
					"t_array(t_uint256)dyn_storage": {
						"base": "t_uint256",
						"encoding": "dynamic_array",
						"label": "uint256[]",
						"numberOfBytes": "32"
					},
					"t_string_storage": {
						"encoding": "bytes",
						"label": "string",
						"numberOfBytes": "32"
					},
					"t_struct(ArticleData)18_storage": {
						"encoding": "inplace",
						"label": "struct Article.ArticleData",
						"members": [
							{
								"astId": 3,
								"contract": "contracts/Article.sol:Article",
								"label": "id",
								"offset": 0,
								"slot": "0",
								"type": "t_uint256"
							},
							{
								"astId": 5,
								"contract": "contracts/Article.sol:Article",
								"label": "title",
								"offset": 0,
								"slot": "1",
								"type": "t_string_storage"
							},
							{
								"astId": 7,
								"contract": "contracts/Article.sol:Article",
								"label": "url",
								"offset": 0,
								"slot": "2",
								"type": "t_string_storage"
							},
							{
								"astId": 9,
								"contract": "contracts/Article.sol:Article",
								"label": "authorName",
								"offset": 0,
								"slot": "3",
								"type": "t_string_storage"
							},
							{
								"astId": 11,
								"contract": "contracts/Article.sol:Article",
								"label": "authorAddress",
								"offset": 0,
								"slot": "4",
								"type": "t_address"
							},
							{
								"astId": 14,
								"contract": "contracts/Article.sol:Article",
								"label": "citations",
								"offset": 0,
								"slot": "5",
								"type": "t_array(t_uint256)dyn_storage"
							},
							{
								"astId": 17,
								"contract": "contracts/Article.sol:Article",
								"label": "weights",
								"offset": 0,
								"slot": "6",
								"type": "t_array(t_uint256)dyn_storage"
							}
						],
						"numberOfBytes": "224"
					},
					"t_uint256": {
						"encoding": "inplace",
						"label": "uint256",
						"numberOfBytes": "32"
					}
				}
			},
			"userdoc": {
				"kind": "user",
				"methods": {},
				"version": 1
			}
		}
	}
}