{
	"data": {
		"bytecode": {
			"linkReferences": {},
			"object": "608060405234801561001057600080fd5b50611a18806100206000396000f3fe608060405234801561001057600080fd5b50600436106100415760003560e01c8063bd85d86714610046578063c8f3c5b51461007c578063edcfafe614610098575b600080fd5b610060600480360381019061005b9190611115565b6100cc565b6040516100739796959493929190611418565b60405180910390f35b6100966004803603810190610091919061100e565b610584565b005b6100b260048036038101906100ad9190611115565b610bfd565b6040516100c39594939291906113b0565b60405180910390f35b600060608060606000606080600080549050881061011f576040517f08c379a000000000000000000000000000000000000000000000000000000000815260040161011690611390565b60405180910390fd5b60008089815481106101345761013361184d565b5b90600052602060002090600702016040518060e00160405290816000820154815260200160018201805461016790611714565b80601f016020809104026020016040519081016040528092919081815260200182805461019390611714565b80156101e05780601f106101b5576101008083540402835291602001916101e0565b820191906000526020600020905b8154815290600101906020018083116101c357829003601f168201915b505050505081526020016002820180546101f990611714565b80601f016020809104026020016040519081016040528092919081815260200182805461022590611714565b80156102725780601f1061024757610100808354040283529160200191610272565b820191906000526020600020905b81548152906001019060200180831161025557829003601f168201915b5050505050815260200160038201805461028b90611714565b80601f01602080910402602001604051908101604052809291908181526020018280546102b790611714565b80156103045780601f106102d957610100808354040283529160200191610304565b820191906000526020600020905b8154815290600101906020018083116102e757829003601f168201915b505050505081526020016004820160009054906101000a900473ffffffffffffffffffffffffffffffffffffffff1673ffffffffffffffffffffffffffffffffffffffff1673ffffffffffffffffffffffffffffffffffffffff168152602001600582018054806020026020016040519081016040528092919081815260200182805480156103b257602002820191906000526020600020905b81548152602001906001019080831161039e575b505050505081526020016006820180548060200260200160405190810160405280929190818152602001828054801561040a57602002820191906000526020600020905b8154815260200190600101908083116103f6575b50505050508152505090508060a001515167ffffffffffffffff8111156104345761043361187c565b5b6040519080825280602002602001820160405280156104625781602001602082028036833780820191505090505b5092508060c001515167ffffffffffffffff8111156104845761048361187c565b5b6040519080825280602002602001820160405280156104b25781602001602082028036833780820191505090505b50915060005b8160a0015151811015610554578160a0015181815181106104dc576104db61184d565b5b60200260200101518482815181106104f7576104f661184d565b5b6020026020010181815250508160c00151818151811061051a5761051961184d565b5b60200260200101518382815181106105355761053461184d565b5b602002602001018181525050808061054c90611777565b9150506104b8565b50806000015197508060200151965080604001519550806060015194508060800151935050919395979092949650565b60008551116105c8576040517f08c379a00000000000000000000000000000000000000000000000000000000081526004016105bf90611330565b60405180910390fd5b600084511161060c576040517f08c379a0000000000000000000000000000000000000000000000000000000008152600401610603906112f0565b60405180910390fd5b6000835111610650576040517f08c379a000000000000000000000000000000000000000000000000000000000815260040161064790611350565b60405180910390fd5b6000825167ffffffffffffffff81111561066d5761066c61187c565b5b60405190808252806020026020018201604052801561069b5781602001602082028036833780820191505090505b5090506000825167ffffffffffffffff8111156106bb576106ba61187c565b5b6040519080825280602002602001820160405280156106e95781602001602082028036833780820191505090505b5090506000805b855181101561088b57600086828151811061070e5761070d61184d565b5b60200260200101511415610757576040517f08c379a000000000000000000000000000000000000000000000000000000000815260040161074e90611370565b60405180910390fd5b600085828151811061076c5761076b61184d565b5b60200260200101511015801561079d575060648582815181106107925761079161184d565b5b602002602001015111155b6107dc576040517f08c379a00000000000000000000000000000000000000000000000000000000081526004016107d390611310565b60405180910390fd5b8581815181106107ef576107ee61184d565b5b602002602001015184828151811061080a5761080961184d565b5b6020026020010181815250508481815181106108295761082861184d565b5b60200260200101518382815181106108445761084361184d565b5b6020026020010181815250508481815181106108635761086261184d565b5b6020026020010151826108769190611581565b9150808061088390611777565b9150506106f0565b50606481111561090b5760005b825181101561090557818382815181106108b5576108b461184d565b5b602002602001015160646108c99190611608565b6108d391906115d7565b8382815181106108e6576108e561184d565b5b60200260200101818152505080806108fd90611777565b915050610898565b50610a4e565b6064811015610a4d5760008160646109239190611662565b90506000600184516109359190611581565b67ffffffffffffffff81111561094e5761094d61187c565b5b60405190808252806020026020018201604052801561097c5781602001602082028036833780820191505090505b50905060005b8451811015610a2557600084606461099a9190611662565b8683815181106109ad576109ac61184d565b5b6020026020010151856109c09190611608565b6109ca91906115d7565b9050808683815181106109e0576109df61184d565b5b60200260200101516109f29190611581565b838381518110610a0557610a0461184d565b5b602002602001018181525050508080610a1d90611777565b915050610982565b508181855181518110610a3b57610a3a61184d565b5b60200260200101818152505080935050505b5b60008080549050905060006040518060e001604052808381526020018b81526020018a81526020018981526020013373ffffffffffffffffffffffffffffffffffffffff168152602001868152602001858152509080600181540180825580915050600190039060005260206000209060070201600090919091909150600082015181600001556020820151816001019080519060200190610af1929190610dfb565b506040820151816002019080519060200190610b0e929190610dfb565b506060820151816003019080519060200190610b2b929190610dfb565b5060808201518160040160006101000a81548173ffffffffffffffffffffffffffffffffffffffff021916908373ffffffffffffffffffffffffffffffffffffffff16021790555060a0820151816005019080519060200190610b8f929190610e81565b5060c0820151816006019080519060200190610bac929190610e81565b5050507f99429b8e317a4d8f2440d759396b8c690cbb878aa34ea914a8687db9d7a226f6818a8a8a338989604051610bea9796959493929190611418565b60405180910390a1505050505050505050565b60008181548110610c0d57600080fd5b9060005260206000209060070201600091509050806000015490806001018054610c3690611714565b80601f0160208091040260200160405190810160405280929190818152602001828054610c6290611714565b8015610caf5780601f10610c8457610100808354040283529160200191610caf565b820191906000526020600020905b815481529060010190602001808311610c9257829003601f168201915b505050505090806002018054610cc490611714565b80601f0160208091040260200160405190810160405280929190818152602001828054610cf090611714565b8015610d3d5780601f10610d1257610100808354040283529160200191610d3d565b820191906000526020600020905b815481529060010190602001808311610d2057829003601f168201915b505050505090806003018054610d5290611714565b80601f0160208091040260200160405190810160405280929190818152602001828054610d7e90611714565b8015610dcb5780601f10610da057610100808354040283529160200191610dcb565b820191906000526020600020905b815481529060010190602001808311610dae57829003601f168201915b5050505050908060040160009054906101000a900473ffffffffffffffffffffffffffffffffffffffff16905085565b828054610e0790611714565b90600052602060002090601f016020900481019282610e295760008555610e70565b82601f10610e4257805160ff1916838001178555610e70565b82800160010185558215610e70579182015b82811115610e6f578251825591602001919060010190610e54565b5b509050610e7d9190610ece565b5090565b828054828255906000526020600020908101928215610ebd579160200282015b82811115610ebc578251825591602001919060010190610ea1565b5b509050610eca9190610ece565b5090565b5b80821115610ee7576000816000905550600101610ecf565b5090565b6000610efe610ef9846114cf565b6114aa565b90508083825260208201905082856020860282011115610f2157610f206118b0565b5b60005b85811015610f515781610f378882610ff9565b845260208401935060208301925050600181019050610f24565b5050509392505050565b6000610f6e610f69846114fb565b6114aa565b905082815260208101848484011115610f8a57610f896118b5565b5b610f958482856116d2565b509392505050565b600082601f830112610fb257610fb16118ab565b5b8135610fc2848260208601610eeb565b91505092915050565b600082601f830112610fe057610fdf6118ab565b5b8135610ff0848260208601610f5b565b91505092915050565b600081359050611008816119cb565b92915050565b600080600080600060a0868803121561102a576110296118bf565b5b600086013567ffffffffffffffff811115611048576110476118ba565b5b61105488828901610fcb565b955050602086013567ffffffffffffffff811115611075576110746118ba565b5b61108188828901610fcb565b945050604086013567ffffffffffffffff8111156110a2576110a16118ba565b5b6110ae88828901610fcb565b935050606086013567ffffffffffffffff8111156110cf576110ce6118ba565b5b6110db88828901610f9d565b925050608086013567ffffffffffffffff8111156110fc576110fb6118ba565b5b61110888828901610f9d565b9150509295509295909350565b60006020828403121561112b5761112a6118bf565b5b600061113984828501610ff9565b91505092915050565b600061114e83836112d2565b60208301905092915050565b61116381611696565b82525050565b60006111748261153c565b61117e818561155f565b93506111898361152c565b8060005b838110156111ba5781516111a18882611142565b97506111ac83611552565b92505060018101905061118d565b5085935050505092915050565b60006111d282611547565b6111dc8185611570565b93506111ec8185602086016116e1565b6111f5816118c4565b840191505092915050565b600061120d601383611570565b9150611218826118d5565b602082019050919050565b6000611230602083611570565b915061123b826118fe565b602082019050919050565b6000611253601583611570565b915061125e82611927565b602082019050919050565b6000611276601b83611570565b915061128182611950565b602082019050919050565b6000611299601383611570565b91506112a482611979565b602082019050919050565b60006112bc601283611570565b91506112c7826119a2565b602082019050919050565b6112db816116c8565b82525050565b6112ea816116c8565b82525050565b6000602082019050818103600083015261130981611200565b9050919050565b6000602082019050818103600083015261132981611223565b9050919050565b6000602082019050818103600083015261134981611246565b9050919050565b6000602082019050818103600083015261136981611269565b9050919050565b600060208201905081810360008301526113898161128c565b9050919050565b600060208201905081810360008301526113a9816112af565b9050919050565b600060a0820190506113c560008301886112e1565b81810360208301526113d781876111c7565b905081810360408301526113eb81866111c7565b905081810360608301526113ff81856111c7565b905061140e608083018461115a565b9695505050505050565b600060e08201905061142d600083018a6112e1565b818103602083015261143f81896111c7565b9050818103604083015261145381886111c7565b9050818103606083015261146781876111c7565b9050611476608083018661115a565b81810360a08301526114888185611169565b905081810360c083015261149c8184611169565b905098975050505050505050565b60006114b46114c5565b90506114c08282611746565b919050565b6000604051905090565b600067ffffffffffffffff8211156114ea576114e961187c565b5b602082029050602081019050919050565b600067ffffffffffffffff8211156115165761151561187c565b5b61151f826118c4565b9050602081019050919050565b6000819050602082019050919050565b600081519050919050565b600081519050919050565b6000602082019050919050565b600082825260208201905092915050565b600082825260208201905092915050565b600061158c826116c8565b9150611597836116c8565b9250827fffffffffffffffffffffffffffffffffffffffffffffffffffffffffffffffff038211156115cc576115cb6117c0565b5b828201905092915050565b60006115e2826116c8565b91506115ed836116c8565b9250826115fd576115fc6117ef565b5b828204905092915050565b6000611613826116c8565b915061161e836116c8565b9250817fffffffffffffffffffffffffffffffffffffffffffffffffffffffffffffffff0483118215151615611657576116566117c0565b5b828202905092915050565b600061166d826116c8565b9150611678836116c8565b92508282101561168b5761168a6117c0565b5b828203905092915050565b60006116a1826116a8565b9050919050565b600073ffffffffffffffffffffffffffffffffffffffff82169050919050565b6000819050919050565b82818337600083830152505050565b60005b838110156116ff5780820151818401526020810190506116e4565b8381111561170e576000848401525b50505050565b6000600282049050600182168061172c57607f821691505b602082108114156117405761173f61181e565b5b50919050565b61174f826118c4565b810181811067ffffffffffffffff8211171561176e5761176d61187c565b5b80604052505050565b6000611782826116c8565b91507fffffffffffffffffffffffffffffffffffffffffffffffffffffffffffffffff8214156117b5576117b46117c0565b5b600182019050919050565b7f4e487b7100000000000000000000000000000000000000000000000000000000600052601160045260246000fd5b7f4e487b7100000000000000000000000000000000000000000000000000000000600052601260045260246000fd5b7f4e487b7100000000000000000000000000000000000000000000000000000000600052602260045260246000fd5b7f4e487b7100000000000000000000000000000000000000000000000000000000600052603260045260246000fd5b7f4e487b7100000000000000000000000000000000000000000000000000000000600052604160045260246000fd5b600080fd5b600080fd5b600080fd5b600080fd5b600080fd5b6000601f19601f8301169050919050565b7f55524c2063616e6e6f7420626520656d70747900000000000000000000000000600082015250565b7f576569676874206d757374206265206265747765656e203020616e6420313030600082015250565b7f5469746c652063616e6e6f7420626520656d7074790000000000000000000000600082015250565b7f417574686f72206e616d652063616e6e6f7420626520656d7074790000000000600082015250565b7f496e76616c6964206369746174696f6e20494400000000000000000000000000600082015250565b7f496e76616c69642061727469636c652049440000000000000000000000000000600082015250565b6119d4816116c8565b81146119df57600080fd5b5056fea2646970667358221220a203e9b41ec960a865568ee202eb699fe30f9418295c0b2a5efdde282b1d1f8a64736f6c63430008060033",
			"opcodes": "PUSH1 0x80 PUSH1 0x40 MSTORE CALLVALUE DUP1 ISZERO PUSH2 0x10 JUMPI PUSH1 0x0 DUP1 REVERT JUMPDEST POP PUSH2 0x1A18 DUP1 PUSH2 0x20 PUSH1 0x0 CODECOPY PUSH1 0x0 RETURN INVALID PUSH1 0x80 PUSH1 0x40 MSTORE CALLVALUE DUP1 ISZERO PUSH2 0x10 JUMPI PUSH1 0x0 DUP1 REVERT JUMPDEST POP PUSH1 0x4 CALLDATASIZE LT PUSH2 0x41 JUMPI PUSH1 0x0 CALLDATALOAD PUSH1 0xE0 SHR DUP1 PUSH4 0xBD85D867 EQ PUSH2 0x46 JUMPI DUP1 PUSH4 0xC8F3C5B5 EQ PUSH2 0x7C JUMPI DUP1 PUSH4 0xEDCFAFE6 EQ PUSH2 0x98 JUMPI JUMPDEST PUSH1 0x0 DUP1 REVERT JUMPDEST PUSH2 0x60 PUSH1 0x4 DUP1 CALLDATASIZE SUB DUP2 ADD SWAP1 PUSH2 0x5B SWAP2 SWAP1 PUSH2 0x1115 JUMP JUMPDEST PUSH2 0xCC JUMP JUMPDEST PUSH1 0x40 MLOAD PUSH2 0x73 SWAP8 SWAP7 SWAP6 SWAP5 SWAP4 SWAP3 SWAP2 SWAP1 PUSH2 0x1418 JUMP JUMPDEST PUSH1 0x40 MLOAD DUP1 SWAP2 SUB SWAP1 RETURN JUMPDEST PUSH2 0x96 PUSH1 0x4 DUP1 CALLDATASIZE SUB DUP2 ADD SWAP1 PUSH2 0x91 SWAP2 SWAP1 PUSH2 0x100E JUMP JUMPDEST PUSH2 0x584 JUMP JUMPDEST STOP JUMPDEST PUSH2 0xB2 PUSH1 0x4 DUP1 CALLDATASIZE SUB DUP2 ADD SWAP1 PUSH2 0xAD SWAP2 SWAP1 PUSH2 0x1115 JUMP JUMPDEST PUSH2 0xBFD JUMP JUMPDEST PUSH1 0x40 MLOAD PUSH2 0xC3 SWAP6 SWAP5 SWAP4 SWAP3 SWAP2 SWAP1 PUSH2 0x13B0 JUMP JUMPDEST PUSH1 0x40 MLOAD DUP1 SWAP2 SUB SWAP1 RETURN JUMPDEST PUSH1 0x0 PUSH1 0x60 DUP1 PUSH1 0x60 PUSH1 0x0 PUSH1 0x60 DUP1 PUSH1 0x0 DUP1 SLOAD SWAP1 POP DUP9 LT PUSH2 0x11F JUMPI PUSH1 0x40 MLOAD PUSH32 0x8C379A000000000000000000000000000000000000000000000000000000000 DUP2 MSTORE PUSH1 0x4 ADD PUSH2 0x116 SWAP1 PUSH2 0x1390 JUMP JUMPDEST PUSH1 0x40 MLOAD DUP1 SWAP2 SUB SWAP1 REVERT JUMPDEST PUSH1 0x0 DUP1 DUP10 DUP2 SLOAD DUP2 LT PUSH2 0x134 JUMPI PUSH2 0x133 PUSH2 0x184D JUMP JUMPDEST JUMPDEST SWAP1 PUSH1 0x0 MSTORE PUSH1 0x20 PUSH1 0x0 KECCAK256 SWAP1 PUSH1 0x7 MUL ADD PUSH1 0x40 MLOAD DUP1 PUSH1 0xE0 ADD PUSH1 0x40 MSTORE SWAP1 DUP2 PUSH1 0x0 DUP3 ADD SLOAD DUP2 MSTORE PUSH1 0x20 ADD PUSH1 0x1 DUP3 ADD DUP1 SLOAD PUSH2 0x167 SWAP1 PUSH2 0x1714 JUMP JUMPDEST DUP1 PUSH1 0x1F ADD PUSH1 0x20 DUP1 SWAP2 DIV MUL PUSH1 0x20 ADD PUSH1 0x40 MLOAD SWAP1 DUP2 ADD PUSH1 0x40 MSTORE DUP1 SWAP3 SWAP2 SWAP1 DUP2 DUP2 MSTORE PUSH1 0x20 ADD DUP3 DUP1 SLOAD PUSH2 0x193 SWAP1 PUSH2 0x1714 JUMP JUMPDEST DUP1 ISZERO PUSH2 0x1E0 JUMPI DUP1 PUSH1 0x1F LT PUSH2 0x1B5 JUMPI PUSH2 0x100 DUP1 DUP4 SLOAD DIV MUL DUP4 MSTORE SWAP2 PUSH1 0x20 ADD SWAP2 PUSH2 0x1E0 JUMP JUMPDEST DUP3 ADD SWAP2 SWAP1 PUSH1 0x0 MSTORE PUSH1 0x20 PUSH1 0x0 KECCAK256 SWAP1 JUMPDEST DUP2 SLOAD DUP2 MSTORE SWAP1 PUSH1 0x1 ADD SWAP1 PUSH1 0x20 ADD DUP1 DUP4 GT PUSH2 0x1C3 JUMPI DUP3 SWAP1 SUB PUSH1 0x1F AND DUP3 ADD SWAP2 JUMPDEST POP POP POP POP POP DUP2 MSTORE PUSH1 0x20 ADD PUSH1 0x2 DUP3 ADD DUP1 SLOAD PUSH2 0x1F9 SWAP1 PUSH2 0x1714 JUMP JUMPDEST DUP1 PUSH1 0x1F ADD PUSH1 0x20 DUP1 SWAP2 DIV MUL PUSH1 0x20 ADD PUSH1 0x40 MLOAD SWAP1 DUP2 ADD PUSH1 0x40 MSTORE DUP1 SWAP3 SWAP2 SWAP1 DUP2 DUP2 MSTORE PUSH1 0x20 ADD DUP3 DUP1 SLOAD PUSH2 0x225 SWAP1 PUSH2 0x1714 JUMP JUMPDEST DUP1 ISZERO PUSH2 0x272 JUMPI DUP1 PUSH1 0x1F LT PUSH2 0x247 JUMPI PUSH2 0x100 DUP1 DUP4 SLOAD DIV MUL DUP4 MSTORE SWAP2 PUSH1 0x20 ADD SWAP2 PUSH2 0x272 JUMP JUMPDEST DUP3 ADD SWAP2 SWAP1 PUSH1 0x0 MSTORE PUSH1 0x20 PUSH1 0x0 KECCAK256 SWAP1 JUMPDEST DUP2 SLOAD DUP2 MSTORE SWAP1 PUSH1 0x1 ADD SWAP1 PUSH1 0x20 ADD DUP1 DUP4 GT PUSH2 0x255 JUMPI DUP3 SWAP1 SUB PUSH1 0x1F AND DUP3 ADD SWAP2 JUMPDEST POP POP POP POP POP DUP2 MSTORE PUSH1 0x20 ADD PUSH1 0x3 DUP3 ADD DUP1 SLOAD PUSH2 0x28B SWAP1 PUSH2 0x1714 JUMP JUMPDEST DUP1 PUSH1 0x1F ADD PUSH1 0x20 DUP1 SWAP2 DIV MUL PUSH1 0x20 ADD PUSH1 0x40 MLOAD SWAP1 DUP2 ADD PUSH1 0x40 MSTORE DUP1 SWAP3 SWAP2 SWAP1 DUP2 DUP2 MSTORE PUSH1 0x20 ADD DUP3 DUP1 SLOAD PUSH2 0x2B7 SWAP1 PUSH2 0x1714 JUMP JUMPDEST DUP1 ISZERO PUSH2 0x304 JUMPI DUP1 PUSH1 0x1F LT PUSH2 0x2D9 JUMPI PUSH2 0x100 DUP1 DUP4 SLOAD DIV MUL DUP4 MSTORE SWAP2 PUSH1 0x20 ADD SWAP2 PUSH2 0x304 JUMP JUMPDEST DUP3 ADD SWAP2 SWAP1 PUSH1 0x0 MSTORE PUSH1 0x20 PUSH1 0x0 KECCAK256 SWAP1 JUMPDEST DUP2 SLOAD DUP2 MSTORE SWAP1 PUSH1 0x1 ADD SWAP1 PUSH1 0x20 ADD DUP1 DUP4 GT PUSH2 0x2E7 JUMPI DUP3 SWAP1 SUB PUSH1 0x1F AND DUP3 ADD SWAP2 JUMPDEST POP POP POP POP POP DUP2 MSTORE PUSH1 0x20 ADD PUSH1 0x4 DUP3 ADD PUSH1 0x0 SWAP1 SLOAD SWAP1 PUSH2 0x100 EXP SWAP1 DIV PUSH20 0xFFFFFFFFFFFFFFFFFFFFFFFFFFFFFFFFFFFFFFFF AND PUSH20 0xFFFFFFFFFFFFFFFFFFFFFFFFFFFFFFFFFFFFFFFF AND PUSH20 0xFFFFFFFFFFFFFFFFFFFFFFFFFFFFFFFFFFFFFFFF AND DUP2 MSTORE PUSH1 0x20 ADD PUSH1 0x5 DUP3 ADD DUP1 SLOAD DUP1 PUSH1 0x20 MUL PUSH1 0x20 ADD PUSH1 0x40 MLOAD SWAP1 DUP2 ADD PUSH1 0x40 MSTORE DUP1 SWAP3 SWAP2 SWAP1 DUP2 DUP2 MSTORE PUSH1 0x20 ADD DUP3 DUP1 SLOAD DUP1 ISZERO PUSH2 0x3B2 JUMPI PUSH1 0x20 MUL DUP3 ADD SWAP2 SWAP1 PUSH1 0x0 MSTORE PUSH1 0x20 PUSH1 0x0 KECCAK256 SWAP1 JUMPDEST DUP2 SLOAD DUP2 MSTORE PUSH1 0x20 ADD SWAP1 PUSH1 0x1 ADD SWAP1 DUP1 DUP4 GT PUSH2 0x39E JUMPI JUMPDEST POP POP POP POP POP DUP2 MSTORE PUSH1 0x20 ADD PUSH1 0x6 DUP3 ADD DUP1 SLOAD DUP1 PUSH1 0x20 MUL PUSH1 0x20 ADD PUSH1 0x40 MLOAD SWAP1 DUP2 ADD PUSH1 0x40 MSTORE DUP1 SWAP3 SWAP2 SWAP1 DUP2 DUP2 MSTORE PUSH1 0x20 ADD DUP3 DUP1 SLOAD DUP1 ISZERO PUSH2 0x40A JUMPI PUSH1 0x20 MUL DUP3 ADD SWAP2 SWAP1 PUSH1 0x0 MSTORE PUSH1 0x20 PUSH1 0x0 KECCAK256 SWAP1 JUMPDEST DUP2 SLOAD DUP2 MSTORE PUSH1 0x20 ADD SWAP1 PUSH1 0x1 ADD SWAP1 DUP1 DUP4 GT PUSH2 0x3F6 JUMPI JUMPDEST POP POP POP POP POP DUP2 MSTORE POP POP SWAP1 POP DUP1 PUSH1 0xA0 ADD MLOAD MLOAD PUSH8 0xFFFFFFFFFFFFFFFF DUP2 GT ISZERO PUSH2 0x434 JUMPI PUSH2 0x433 PUSH2 0x187C JUMP JUMPDEST JUMPDEST PUSH1 0x40 MLOAD SWAP1 DUP1 DUP3 MSTORE DUP1 PUSH1 0x20 MUL PUSH1 0x20 ADD DUP3 ADD PUSH1 0x40 MSTORE DUP1 ISZERO PUSH2 0x462 JUMPI DUP2 PUSH1 0x20 ADD PUSH1 0x20 DUP3 MUL DUP1 CALLDATASIZE DUP4 CALLDATACOPY DUP1 DUP3 ADD SWAP2 POP POP SWAP1 POP JUMPDEST POP SWAP3 POP DUP1 PUSH1 0xC0 ADD MLOAD MLOAD PUSH8 0xFFFFFFFFFFFFFFFF DUP2 GT ISZERO PUSH2 0x484 JUMPI PUSH2 0x483 PUSH2 0x187C JUMP JUMPDEST JUMPDEST PUSH1 0x40 MLOAD SWAP1 DUP1 DUP3 MSTORE DUP1 PUSH1 0x20 MUL PUSH1 0x20 ADD DUP3 ADD PUSH1 0x40 MSTORE DUP1 ISZERO PUSH2 0x4B2 JUMPI DUP2 PUSH1 0x20 ADD PUSH1 0x20 DUP3 MUL DUP1 CALLDATASIZE DUP4 CALLDATACOPY DUP1 DUP3 ADD SWAP2 POP POP SWAP1 POP JUMPDEST POP SWAP2 POP PUSH1 0x0 JUMPDEST DUP2 PUSH1 0xA0 ADD MLOAD MLOAD DUP2 LT ISZERO PUSH2 0x554 JUMPI DUP2 PUSH1 0xA0 ADD MLOAD DUP2 DUP2 MLOAD DUP2 LT PUSH2 0x4DC JUMPI PUSH2 0x4DB PUSH2 0x184D JUMP JUMPDEST JUMPDEST PUSH1 0x20 MUL PUSH1 0x20 ADD ADD MLOAD DUP5 DUP3 DUP2 MLOAD DUP2 LT PUSH2 0x4F7 JUMPI PUSH2 0x4F6 PUSH2 0x184D JUMP JUMPDEST JUMPDEST PUSH1 0x20 MUL PUSH1 0x20 ADD ADD DUP2 DUP2 MSTORE POP POP DUP2 PUSH1 0xC0 ADD MLOAD DUP2 DUP2 MLOAD DUP2 LT PUSH2 0x51A JUMPI PUSH2 0x519 PUSH2 0x184D JUMP JUMPDEST JUMPDEST PUSH1 0x20 MUL PUSH1 0x20 ADD ADD MLOAD DUP4 DUP3 DUP2 MLOAD DUP2 LT PUSH2 0x535 JUMPI PUSH2 0x534 PUSH2 0x184D JUMP JUMPDEST JUMPDEST PUSH1 0x20 MUL PUSH1 0x20 ADD ADD DUP2 DUP2 MSTORE POP POP DUP1 DUP1 PUSH2 0x54C SWAP1 PUSH2 0x1777 JUMP JUMPDEST SWAP2 POP POP PUSH2 0x4B8 JUMP JUMPDEST POP DUP1 PUSH1 0x0 ADD MLOAD SWAP8 POP DUP1 PUSH1 0x20 ADD MLOAD SWAP7 POP DUP1 PUSH1 0x40 ADD MLOAD SWAP6 POP DUP1 PUSH1 0x60 ADD MLOAD SWAP5 POP DUP1 PUSH1 0x80 ADD MLOAD SWAP4 POP POP SWAP2 SWAP4 SWAP6 SWAP8 SWAP1 SWAP3 SWAP5 SWAP7 POP JUMP JUMPDEST PUSH1 0x0 DUP6 MLOAD GT PUSH2 0x5C8 JUMPI PUSH1 0x40 MLOAD PUSH32 0x8C379A000000000000000000000000000000000000000000000000000000000 DUP2 MSTORE PUSH1 0x4 ADD PUSH2 0x5BF SWAP1 PUSH2 0x1330 JUMP JUMPDEST PUSH1 0x40 MLOAD DUP1 SWAP2 SUB SWAP1 REVERT JUMPDEST PUSH1 0x0 DUP5 MLOAD GT PUSH2 0x60C JUMPI PUSH1 0x40 MLOAD PUSH32 0x8C379A000000000000000000000000000000000000000000000000000000000 DUP2 MSTORE PUSH1 0x4 ADD PUSH2 0x603 SWAP1 PUSH2 0x12F0 JUMP JUMPDEST PUSH1 0x40 MLOAD DUP1 SWAP2 SUB SWAP1 REVERT JUMPDEST PUSH1 0x0 DUP4 MLOAD GT PUSH2 0x650 JUMPI PUSH1 0x40 MLOAD PUSH32 0x8C379A000000000000000000000000000000000000000000000000000000000 DUP2 MSTORE PUSH1 0x4 ADD PUSH2 0x647 SWAP1 PUSH2 0x1350 JUMP JUMPDEST PUSH1 0x40 MLOAD DUP1 SWAP2 SUB SWAP1 REVERT JUMPDEST PUSH1 0x0 DUP3 MLOAD PUSH8 0xFFFFFFFFFFFFFFFF DUP2 GT ISZERO PUSH2 0x66D JUMPI PUSH2 0x66C PUSH2 0x187C JUMP JUMPDEST JUMPDEST PUSH1 0x40 MLOAD SWAP1 DUP1 DUP3 MSTORE DUP1 PUSH1 0x20 MUL PUSH1 0x20 ADD DUP3 ADD PUSH1 0x40 MSTORE DUP1 ISZERO PUSH2 0x69B JUMPI DUP2 PUSH1 0x20 ADD PUSH1 0x20 DUP3 MUL DUP1 CALLDATASIZE DUP4 CALLDATACOPY DUP1 DUP3 ADD SWAP2 POP POP SWAP1 POP JUMPDEST POP SWAP1 POP PUSH1 0x0 DUP3 MLOAD PUSH8 0xFFFFFFFFFFFFFFFF DUP2 GT ISZERO PUSH2 0x6BB JUMPI PUSH2 0x6BA PUSH2 0x187C JUMP JUMPDEST JUMPDEST PUSH1 0x40 MLOAD SWAP1 DUP1 DUP3 MSTORE DUP1 PUSH1 0x20 MUL PUSH1 0x20 ADD DUP3 ADD PUSH1 0x40 MSTORE DUP1 ISZERO PUSH2 0x6E9 JUMPI DUP2 PUSH1 0x20 ADD PUSH1 0x20 DUP3 MUL DUP1 CALLDATASIZE DUP4 CALLDATACOPY DUP1 DUP3 ADD SWAP2 POP POP SWAP1 POP JUMPDEST POP SWAP1 POP PUSH1 0x0 DUP1 JUMPDEST DUP6 MLOAD DUP2 LT ISZERO PUSH2 0x88B JUMPI PUSH1 0x0 DUP7 DUP3 DUP2 MLOAD DUP2 LT PUSH2 0x70E JUMPI PUSH2 0x70D PUSH2 0x184D JUMP JUMPDEST JUMPDEST PUSH1 0x20 MUL PUSH1 0x20 ADD ADD MLOAD EQ ISZERO PUSH2 0x757 JUMPI PUSH1 0x40 MLOAD PUSH32 0x8C379A000000000000000000000000000000000000000000000000000000000 DUP2 MSTORE PUSH1 0x4 ADD PUSH2 0x74E SWAP1 PUSH2 0x1370 JUMP JUMPDEST PUSH1 0x40 MLOAD DUP1 SWAP2 SUB SWAP1 REVERT JUMPDEST PUSH1 0x0 DUP6 DUP3 DUP2 MLOAD DUP2 LT PUSH2 0x76C JUMPI PUSH2 0x76B PUSH2 0x184D JUMP JUMPDEST JUMPDEST PUSH1 0x20 MUL PUSH1 0x20 ADD ADD MLOAD LT ISZERO DUP1 ISZERO PUSH2 0x79D JUMPI POP PUSH1 0x64 DUP6 DUP3 DUP2 MLOAD DUP2 LT PUSH2 0x792 JUMPI PUSH2 0x791 PUSH2 0x184D JUMP JUMPDEST JUMPDEST PUSH1 0x20 MUL PUSH1 0x20 ADD ADD MLOAD GT ISZERO JUMPDEST PUSH2 0x7DC JUMPI PUSH1 0x40 MLOAD PUSH32 0x8C379A000000000000000000000000000000000000000000000000000000000 DUP2 MSTORE PUSH1 0x4 ADD PUSH2 0x7D3 SWAP1 PUSH2 0x1310 JUMP JUMPDEST PUSH1 0x40 MLOAD DUP1 SWAP2 SUB SWAP1 REVERT JUMPDEST DUP6 DUP2 DUP2 MLOAD DUP2 LT PUSH2 0x7EF JUMPI PUSH2 0x7EE PUSH2 0x184D JUMP JUMPDEST JUMPDEST PUSH1 0x20 MUL PUSH1 0x20 ADD ADD MLOAD DUP5 DUP3 DUP2 MLOAD DUP2 LT PUSH2 0x80A JUMPI PUSH2 0x809 PUSH2 0x184D JUMP JUMPDEST JUMPDEST PUSH1 0x20 MUL PUSH1 0x20 ADD ADD DUP2 DUP2 MSTORE POP POP DUP5 DUP2 DUP2 MLOAD DUP2 LT PUSH2 0x829 JUMPI PUSH2 0x828 PUSH2 0x184D JUMP JUMPDEST JUMPDEST PUSH1 0x20 MUL PUSH1 0x20 ADD ADD MLOAD DUP4 DUP3 DUP2 MLOAD DUP2 LT PUSH2 0x844 JUMPI PUSH2 0x843 PUSH2 0x184D JUMP JUMPDEST JUMPDEST PUSH1 0x20 MUL PUSH1 0x20 ADD ADD DUP2 DUP2 MSTORE POP POP DUP5 DUP2 DUP2 MLOAD DUP2 LT PUSH2 0x863 JUMPI PUSH2 0x862 PUSH2 0x184D JUMP JUMPDEST JUMPDEST PUSH1 0x20 MUL PUSH1 0x20 ADD ADD MLOAD DUP3 PUSH2 0x876 SWAP2 SWAP1 PUSH2 0x1581 JUMP JUMPDEST SWAP2 POP DUP1 DUP1 PUSH2 0x883 SWAP1 PUSH2 0x1777 JUMP JUMPDEST SWAP2 POP POP PUSH2 0x6F0 JUMP JUMPDEST POP PUSH1 0x64 DUP2 GT ISZERO PUSH2 0x90B JUMPI PUSH1 0x0 JUMPDEST DUP3 MLOAD DUP2 LT ISZERO PUSH2 0x905 JUMPI DUP2 DUP4 DUP3 DUP2 MLOAD DUP2 LT PUSH2 0x8B5 JUMPI PUSH2 0x8B4 PUSH2 0x184D JUMP JUMPDEST JUMPDEST PUSH1 0x20 MUL PUSH1 0x20 ADD ADD MLOAD PUSH1 0x64 PUSH2 0x8C9 SWAP2 SWAP1 PUSH2 0x1608 JUMP JUMPDEST PUSH2 0x8D3 SWAP2 SWAP1 PUSH2 0x15D7 JUMP JUMPDEST DUP4 DUP3 DUP2 MLOAD DUP2 LT PUSH2 0x8E6 JUMPI PUSH2 0x8E5 PUSH2 0x184D JUMP JUMPDEST JUMPDEST PUSH1 0x20 MUL PUSH1 0x20 ADD ADD DUP2 DUP2 MSTORE POP POP DUP1 DUP1 PUSH2 0x8FD SWAP1 PUSH2 0x1777 JUMP JUMPDEST SWAP2 POP POP PUSH2 0x898 JUMP JUMPDEST POP PUSH2 0xA4E JUMP JUMPDEST PUSH1 0x64 DUP2 LT ISZERO PUSH2 0xA4D JUMPI PUSH1 0x0 DUP2 PUSH1 0x64 PUSH2 0x923 SWAP2 SWAP1 PUSH2 0x1662 JUMP JUMPDEST SWAP1 POP PUSH1 0x0 PUSH1 0x1 DUP5 MLOAD PUSH2 0x935 SWAP2 SWAP1 PUSH2 0x1581 JUMP JUMPDEST PUSH8 0xFFFFFFFFFFFFFFFF DUP2 GT ISZERO PUSH2 0x94E JUMPI PUSH2 0x94D PUSH2 0x187C JUMP JUMPDEST JUMPDEST PUSH1 0x40 MLOAD SWAP1 DUP1 DUP3 MSTORE DUP1 PUSH1 0x20 MUL PUSH1 0x20 ADD DUP3 ADD PUSH1 0x40 MSTORE DUP1 ISZERO PUSH2 0x97C JUMPI DUP2 PUSH1 0x20 ADD PUSH1 0x20 DUP3 MUL DUP1 CALLDATASIZE DUP4 CALLDATACOPY DUP1 DUP3 ADD SWAP2 POP POP SWAP1 POP JUMPDEST POP SWAP1 POP PUSH1 0x0 JUMPDEST DUP5 MLOAD DUP2 LT ISZERO PUSH2 0xA25 JUMPI PUSH1 0x0 DUP5 PUSH1 0x64 PUSH2 0x99A SWAP2 SWAP1 PUSH2 0x1662 JUMP JUMPDEST DUP7 DUP4 DUP2 MLOAD DUP2 LT PUSH2 0x9AD JUMPI PUSH2 0x9AC PUSH2 0x184D JUMP JUMPDEST JUMPDEST PUSH1 0x20 MUL PUSH1 0x20 ADD ADD MLOAD DUP6 PUSH2 0x9C0 SWAP2 SWAP1 PUSH2 0x1608 JUMP JUMPDEST PUSH2 0x9CA SWAP2 SWAP1 PUSH2 0x15D7 JUMP JUMPDEST SWAP1 POP DUP1 DUP7 DUP4 DUP2 MLOAD DUP2 LT PUSH2 0x9E0 JUMPI PUSH2 0x9DF PUSH2 0x184D JUMP JUMPDEST JUMPDEST PUSH1 0x20 MUL PUSH1 0x20 ADD ADD MLOAD PUSH2 0x9F2 SWAP2 SWAP1 PUSH2 0x1581 JUMP JUMPDEST DUP4 DUP4 DUP2 MLOAD DUP2 LT PUSH2 0xA05 JUMPI PUSH2 0xA04 PUSH2 0x184D JUMP JUMPDEST JUMPDEST PUSH1 0x20 MUL PUSH1 0x20 ADD ADD DUP2 DUP2 MSTORE POP POP POP DUP1 DUP1 PUSH2 0xA1D SWAP1 PUSH2 0x1777 JUMP JUMPDEST SWAP2 POP POP PUSH2 0x982 JUMP JUMPDEST POP DUP2 DUP2 DUP6 MLOAD DUP2 MLOAD DUP2 LT PUSH2 0xA3B JUMPI PUSH2 0xA3A PUSH2 0x184D JUMP JUMPDEST JUMPDEST PUSH1 0x20 MUL PUSH1 0x20 ADD ADD DUP2 DUP2 MSTORE POP POP DUP1 SWAP4 POP POP POP JUMPDEST JUMPDEST PUSH1 0x0 DUP1 DUP1 SLOAD SWAP1 POP SWAP1 POP PUSH1 0x0 PUSH1 0x40 MLOAD DUP1 PUSH1 0xE0 ADD PUSH1 0x40 MSTORE DUP1 DUP4 DUP2 MSTORE PUSH1 0x20 ADD DUP12 DUP2 MSTORE PUSH1 0x20 ADD DUP11 DUP2 MSTORE PUSH1 0x20 ADD DUP10 DUP2 MSTORE PUSH1 0x20 ADD CALLER PUSH20 0xFFFFFFFFFFFFFFFFFFFFFFFFFFFFFFFFFFFFFFFF AND DUP2 MSTORE PUSH1 0x20 ADD DUP7 DUP2 MSTORE PUSH1 0x20 ADD DUP6 DUP2 MSTORE POP SWAP1 DUP1 PUSH1 0x1 DUP2 SLOAD ADD DUP1 DUP3 SSTORE DUP1 SWAP2 POP POP PUSH1 0x1 SWAP1 SUB SWAP1 PUSH1 0x0 MSTORE PUSH1 0x20 PUSH1 0x0 KECCAK256 SWAP1 PUSH1 0x7 MUL ADD PUSH1 0x0 SWAP1 SWAP2 SWAP1 SWAP2 SWAP1 SWAP2 POP PUSH1 0x0 DUP3 ADD MLOAD DUP2 PUSH1 0x0 ADD SSTORE PUSH1 0x20 DUP3 ADD MLOAD DUP2 PUSH1 0x1 ADD SWAP1 DUP1 MLOAD SWAP1 PUSH1 0x20 ADD SWAP1 PUSH2 0xAF1 SWAP3 SWAP2 SWAP1 PUSH2 0xDFB JUMP JUMPDEST POP PUSH1 0x40 DUP3 ADD MLOAD DUP2 PUSH1 0x2 ADD SWAP1 DUP1 MLOAD SWAP1 PUSH1 0x20 ADD SWAP1 PUSH2 0xB0E SWAP3 SWAP2 SWAP1 PUSH2 0xDFB JUMP JUMPDEST POP PUSH1 0x60 DUP3 ADD MLOAD DUP2 PUSH1 0x3 ADD SWAP1 DUP1 MLOAD SWAP1 PUSH1 0x20 ADD SWAP1 PUSH2 0xB2B SWAP3 SWAP2 SWAP1 PUSH2 0xDFB JUMP JUMPDEST POP PUSH1 0x80 DUP3 ADD MLOAD DUP2 PUSH1 0x4 ADD PUSH1 0x0 PUSH2 0x100 EXP DUP2 SLOAD DUP2 PUSH20 0xFFFFFFFFFFFFFFFFFFFFFFFFFFFFFFFFFFFFFFFF MUL NOT AND SWAP1 DUP4 PUSH20 0xFFFFFFFFFFFFFFFFFFFFFFFFFFFFFFFFFFFFFFFF AND MUL OR SWAP1 SSTORE POP PUSH1 0xA0 DUP3 ADD MLOAD DUP2 PUSH1 0x5 ADD SWAP1 DUP1 MLOAD SWAP1 PUSH1 0x20 ADD SWAP1 PUSH2 0xB8F SWAP3 SWAP2 SWAP1 PUSH2 0xE81 JUMP JUMPDEST POP PUSH1 0xC0 DUP3 ADD MLOAD DUP2 PUSH1 0x6 ADD SWAP1 DUP1 MLOAD SWAP1 PUSH1 0x20 ADD SWAP1 PUSH2 0xBAC SWAP3 SWAP2 SWAP1 PUSH2 0xE81 JUMP JUMPDEST POP POP POP PUSH32 0x99429B8E317A4D8F2440D759396B8C690CBB878AA34EA914A8687DB9D7A226F6 DUP2 DUP11 DUP11 DUP11 CALLER DUP10 DUP10 PUSH1 0x40 MLOAD PUSH2 0xBEA SWAP8 SWAP7 SWAP6 SWAP5 SWAP4 SWAP3 SWAP2 SWAP1 PUSH2 0x1418 JUMP JUMPDEST PUSH1 0x40 MLOAD DUP1 SWAP2 SUB SWAP1 LOG1 POP POP POP POP POP POP POP POP POP JUMP JUMPDEST PUSH1 0x0 DUP2 DUP2 SLOAD DUP2 LT PUSH2 0xC0D JUMPI PUSH1 0x0 DUP1 REVERT JUMPDEST SWAP1 PUSH1 0x0 MSTORE PUSH1 0x20 PUSH1 0x0 KECCAK256 SWAP1 PUSH1 0x7 MUL ADD PUSH1 0x0 SWAP2 POP SWAP1 POP DUP1 PUSH1 0x0 ADD SLOAD SWAP1 DUP1 PUSH1 0x1 ADD DUP1 SLOAD PUSH2 0xC36 SWAP1 PUSH2 0x1714 JUMP JUMPDEST DUP1 PUSH1 0x1F ADD PUSH1 0x20 DUP1 SWAP2 DIV MUL PUSH1 0x20 ADD PUSH1 0x40 MLOAD SWAP1 DUP2 ADD PUSH1 0x40 MSTORE DUP1 SWAP3 SWAP2 SWAP1 DUP2 DUP2 MSTORE PUSH1 0x20 ADD DUP3 DUP1 SLOAD PUSH2 0xC62 SWAP1 PUSH2 0x1714 JUMP JUMPDEST DUP1 ISZERO PUSH2 0xCAF JUMPI DUP1 PUSH1 0x1F LT PUSH2 0xC84 JUMPI PUSH2 0x100 DUP1 DUP4 SLOAD DIV MUL DUP4 MSTORE SWAP2 PUSH1 0x20 ADD SWAP2 PUSH2 0xCAF JUMP JUMPDEST DUP3 ADD SWAP2 SWAP1 PUSH1 0x0 MSTORE PUSH1 0x20 PUSH1 0x0 KECCAK256 SWAP1 JUMPDEST DUP2 SLOAD DUP2 MSTORE SWAP1 PUSH1 0x1 ADD SWAP1 PUSH1 0x20 ADD DUP1 DUP4 GT PUSH2 0xC92 JUMPI DUP3 SWAP1 SUB PUSH1 0x1F AND DUP3 ADD SWAP2 JUMPDEST POP POP POP POP POP SWAP1 DUP1 PUSH1 0x2 ADD DUP1 SLOAD PUSH2 0xCC4 SWAP1 PUSH2 0x1714 JUMP JUMPDEST DUP1 PUSH1 0x1F ADD PUSH1 0x20 DUP1 SWAP2 DIV MUL PUSH1 0x20 ADD PUSH1 0x40 MLOAD SWAP1 DUP2 ADD PUSH1 0x40 MSTORE DUP1 SWAP3 SWAP2 SWAP1 DUP2 DUP2 MSTORE PUSH1 0x20 ADD DUP3 DUP1 SLOAD PUSH2 0xCF0 SWAP1 PUSH2 0x1714 JUMP JUMPDEST DUP1 ISZERO PUSH2 0xD3D JUMPI DUP1 PUSH1 0x1F LT PUSH2 0xD12 JUMPI PUSH2 0x100 DUP1 DUP4 SLOAD DIV MUL DUP4 MSTORE SWAP2 PUSH1 0x20 ADD SWAP2 PUSH2 0xD3D JUMP JUMPDEST DUP3 ADD SWAP2 SWAP1 PUSH1 0x0 MSTORE PUSH1 0x20 PUSH1 0x0 KECCAK256 SWAP1 JUMPDEST DUP2 SLOAD DUP2 MSTORE SWAP1 PUSH1 0x1 ADD SWAP1 PUSH1 0x20 ADD DUP1 DUP4 GT PUSH2 0xD20 JUMPI DUP3 SWAP1 SUB PUSH1 0x1F AND DUP3 ADD SWAP2 JUMPDEST POP POP POP POP POP SWAP1 DUP1 PUSH1 0x3 ADD DUP1 SLOAD PUSH2 0xD52 SWAP1 PUSH2 0x1714 JUMP JUMPDEST DUP1 PUSH1 0x1F ADD PUSH1 0x20 DUP1 SWAP2 DIV MUL PUSH1 0x20 ADD PUSH1 0x40 MLOAD SWAP1 DUP2 ADD PUSH1 0x40 MSTORE DUP1 SWAP3 SWAP2 SWAP1 DUP2 DUP2 MSTORE PUSH1 0x20 ADD DUP3 DUP1 SLOAD PUSH2 0xD7E SWAP1 PUSH2 0x1714 JUMP JUMPDEST DUP1 ISZERO PUSH2 0xDCB JUMPI DUP1 PUSH1 0x1F LT PUSH2 0xDA0 JUMPI PUSH2 0x100 DUP1 DUP4 SLOAD DIV MUL DUP4 MSTORE SWAP2 PUSH1 0x20 ADD SWAP2 PUSH2 0xDCB JUMP JUMPDEST DUP3 ADD SWAP2 SWAP1 PUSH1 0x0 MSTORE PUSH1 0x20 PUSH1 0x0 KECCAK256 SWAP1 JUMPDEST DUP2 SLOAD DUP2 MSTORE SWAP1 PUSH1 0x1 ADD SWAP1 PUSH1 0x20 ADD DUP1 DUP4 GT PUSH2 0xDAE JUMPI DUP3 SWAP1 SUB PUSH1 0x1F AND DUP3 ADD SWAP2 JUMPDEST POP POP POP POP POP SWAP1 DUP1 PUSH1 0x4 ADD PUSH1 0x0 SWAP1 SLOAD SWAP1 PUSH2 0x100 EXP SWAP1 DIV PUSH20 0xFFFFFFFFFFFFFFFFFFFFFFFFFFFFFFFFFFFFFFFF AND SWAP1 POP DUP6 JUMP JUMPDEST DUP3 DUP1 SLOAD PUSH2 0xE07 SWAP1 PUSH2 0x1714 JUMP JUMPDEST SWAP1 PUSH1 0x0 MSTORE PUSH1 0x20 PUSH1 0x0 KECCAK256 SWAP1 PUSH1 0x1F ADD PUSH1 0x20 SWAP1 DIV DUP2 ADD SWAP3 DUP3 PUSH2 0xE29 JUMPI PUSH1 0x0 DUP6 SSTORE PUSH2 0xE70 JUMP JUMPDEST DUP3 PUSH1 0x1F LT PUSH2 0xE42 JUMPI DUP1 MLOAD PUSH1 0xFF NOT AND DUP4 DUP1 ADD OR DUP6 SSTORE PUSH2 0xE70 JUMP JUMPDEST DUP3 DUP1 ADD PUSH1 0x1 ADD DUP6 SSTORE DUP3 ISZERO PUSH2 0xE70 JUMPI SWAP2 DUP3 ADD JUMPDEST DUP3 DUP2 GT ISZERO PUSH2 0xE6F JUMPI DUP3 MLOAD DUP3 SSTORE SWAP2 PUSH1 0x20 ADD SWAP2 SWAP1 PUSH1 0x1 ADD SWAP1 PUSH2 0xE54 JUMP JUMPDEST JUMPDEST POP SWAP1 POP PUSH2 0xE7D SWAP2 SWAP1 PUSH2 0xECE JUMP JUMPDEST POP SWAP1 JUMP JUMPDEST DUP3 DUP1 SLOAD DUP3 DUP3 SSTORE SWAP1 PUSH1 0x0 MSTORE PUSH1 0x20 PUSH1 0x0 KECCAK256 SWAP1 DUP2 ADD SWAP3 DUP3 ISZERO PUSH2 0xEBD JUMPI SWAP2 PUSH1 0x20 MUL DUP3 ADD JUMPDEST DUP3 DUP2 GT ISZERO PUSH2 0xEBC JUMPI DUP3 MLOAD DUP3 SSTORE SWAP2 PUSH1 0x20 ADD SWAP2 SWAP1 PUSH1 0x1 ADD SWAP1 PUSH2 0xEA1 JUMP JUMPDEST JUMPDEST POP SWAP1 POP PUSH2 0xECA SWAP2 SWAP1 PUSH2 0xECE JUMP JUMPDEST POP SWAP1 JUMP JUMPDEST JUMPDEST DUP1 DUP3 GT ISZERO PUSH2 0xEE7 JUMPI PUSH1 0x0 DUP2 PUSH1 0x0 SWAP1 SSTORE POP PUSH1 0x1 ADD PUSH2 0xECF JUMP JUMPDEST POP SWAP1 JUMP JUMPDEST PUSH1 0x0 PUSH2 0xEFE PUSH2 0xEF9 DUP5 PUSH2 0x14CF JUMP JUMPDEST PUSH2 0x14AA JUMP JUMPDEST SWAP1 POP DUP1 DUP4 DUP3 MSTORE PUSH1 0x20 DUP3 ADD SWAP1 POP DUP3 DUP6 PUSH1 0x20 DUP7 MUL DUP3 ADD GT ISZERO PUSH2 0xF21 JUMPI PUSH2 0xF20 PUSH2 0x18B0 JUMP JUMPDEST JUMPDEST PUSH1 0x0 JUMPDEST DUP6 DUP2 LT ISZERO PUSH2 0xF51 JUMPI DUP2 PUSH2 0xF37 DUP9 DUP3 PUSH2 0xFF9 JUMP JUMPDEST DUP5 MSTORE PUSH1 0x20 DUP5 ADD SWAP4 POP PUSH1 0x20 DUP4 ADD SWAP3 POP POP PUSH1 0x1 DUP2 ADD SWAP1 POP PUSH2 0xF24 JUMP JUMPDEST POP POP POP SWAP4 SWAP3 POP POP POP JUMP JUMPDEST PUSH1 0x0 PUSH2 0xF6E PUSH2 0xF69 DUP5 PUSH2 0x14FB JUMP JUMPDEST PUSH2 0x14AA JUMP JUMPDEST SWAP1 POP DUP3 DUP2 MSTORE PUSH1 0x20 DUP2 ADD DUP5 DUP5 DUP5 ADD GT ISZERO PUSH2 0xF8A JUMPI PUSH2 0xF89 PUSH2 0x18B5 JUMP JUMPDEST JUMPDEST PUSH2 0xF95 DUP5 DUP3 DUP6 PUSH2 0x16D2 JUMP JUMPDEST POP SWAP4 SWAP3 POP POP POP JUMP JUMPDEST PUSH1 0x0 DUP3 PUSH1 0x1F DUP4 ADD SLT PUSH2 0xFB2 JUMPI PUSH2 0xFB1 PUSH2 0x18AB JUMP JUMPDEST JUMPDEST DUP2 CALLDATALOAD PUSH2 0xFC2 DUP5 DUP3 PUSH1 0x20 DUP7 ADD PUSH2 0xEEB JUMP JUMPDEST SWAP2 POP POP SWAP3 SWAP2 POP POP JUMP JUMPDEST PUSH1 0x0 DUP3 PUSH1 0x1F DUP4 ADD SLT PUSH2 0xFE0 JUMPI PUSH2 0xFDF PUSH2 0x18AB JUMP JUMPDEST JUMPDEST DUP2 CALLDATALOAD PUSH2 0xFF0 DUP5 DUP3 PUSH1 0x20 DUP7 ADD PUSH2 0xF5B JUMP JUMPDEST SWAP2 POP POP SWAP3 SWAP2 POP POP JUMP JUMPDEST PUSH1 0x0 DUP2 CALLDATALOAD SWAP1 POP PUSH2 0x1008 DUP2 PUSH2 0x19CB JUMP JUMPDEST SWAP3 SWAP2 POP POP JUMP JUMPDEST PUSH1 0x0 DUP1 PUSH1 0x0 DUP1 PUSH1 0x0 PUSH1 0xA0 DUP7 DUP9 SUB SLT ISZERO PUSH2 0x102A JUMPI PUSH2 0x1029 PUSH2 0x18BF JUMP JUMPDEST JUMPDEST PUSH1 0x0 DUP7 ADD CALLDATALOAD PUSH8 0xFFFFFFFFFFFFFFFF DUP2 GT ISZERO PUSH2 0x1048 JUMPI PUSH2 0x1047 PUSH2 0x18BA JUMP JUMPDEST JUMPDEST PUSH2 0x1054 DUP9 DUP3 DUP10 ADD PUSH2 0xFCB JUMP JUMPDEST SWAP6 POP POP PUSH1 0x20 DUP7 ADD CALLDATALOAD PUSH8 0xFFFFFFFFFFFFFFFF DUP2 GT ISZERO PUSH2 0x1075 JUMPI PUSH2 0x1074 PUSH2 0x18BA JUMP JUMPDEST JUMPDEST PUSH2 0x1081 DUP9 DUP3 DUP10 ADD PUSH2 0xFCB JUMP JUMPDEST SWAP5 POP POP PUSH1 0x40 DUP7 ADD CALLDATALOAD PUSH8 0xFFFFFFFFFFFFFFFF DUP2 GT ISZERO PUSH2 0x10A2 JUMPI PUSH2 0x10A1 PUSH2 0x18BA JUMP JUMPDEST JUMPDEST PUSH2 0x10AE DUP9 DUP3 DUP10 ADD PUSH2 0xFCB JUMP JUMPDEST SWAP4 POP POP PUSH1 0x60 DUP7 ADD CALLDATALOAD PUSH8 0xFFFFFFFFFFFFFFFF DUP2 GT ISZERO PUSH2 0x10CF JUMPI PUSH2 0x10CE PUSH2 0x18BA JUMP JUMPDEST JUMPDEST PUSH2 0x10DB DUP9 DUP3 DUP10 ADD PUSH2 0xF9D JUMP JUMPDEST SWAP3 POP POP PUSH1 0x80 DUP7 ADD CALLDATALOAD PUSH8 0xFFFFFFFFFFFFFFFF DUP2 GT ISZERO PUSH2 0x10FC JUMPI PUSH2 0x10FB PUSH2 0x18BA JUMP JUMPDEST JUMPDEST PUSH2 0x1108 DUP9 DUP3 DUP10 ADD PUSH2 0xF9D JUMP JUMPDEST SWAP2 POP POP SWAP3 SWAP6 POP SWAP3 SWAP6 SWAP1 SWAP4 POP JUMP JUMPDEST PUSH1 0x0 PUSH1 0x20 DUP3 DUP5 SUB SLT ISZERO PUSH2 0x112B JUMPI PUSH2 0x112A PUSH2 0x18BF JUMP JUMPDEST JUMPDEST PUSH1 0x0 PUSH2 0x1139 DUP5 DUP3 DUP6 ADD PUSH2 0xFF9 JUMP JUMPDEST SWAP2 POP POP SWAP3 SWAP2 POP POP JUMP JUMPDEST PUSH1 0x0 PUSH2 0x114E DUP4 DUP4 PUSH2 0x12D2 JUMP JUMPDEST PUSH1 0x20 DUP4 ADD SWAP1 POP SWAP3 SWAP2 POP POP JUMP JUMPDEST PUSH2 0x1163 DUP2 PUSH2 0x1696 JUMP JUMPDEST DUP3 MSTORE POP POP JUMP JUMPDEST PUSH1 0x0 PUSH2 0x1174 DUP3 PUSH2 0x153C JUMP JUMPDEST PUSH2 0x117E DUP2 DUP6 PUSH2 0x155F JUMP JUMPDEST SWAP4 POP PUSH2 0x1189 DUP4 PUSH2 0x152C JUMP JUMPDEST DUP1 PUSH1 0x0 JUMPDEST DUP4 DUP2 LT ISZERO PUSH2 0x11BA JUMPI DUP2 MLOAD PUSH2 0x11A1 DUP9 DUP3 PUSH2 0x1142 JUMP JUMPDEST SWAP8 POP PUSH2 0x11AC DUP4 PUSH2 0x1552 JUMP JUMPDEST SWAP3 POP POP PUSH1 0x1 DUP2 ADD SWAP1 POP PUSH2 0x118D JUMP JUMPDEST POP DUP6 SWAP4 POP POP POP POP SWAP3 SWAP2 POP POP JUMP JUMPDEST PUSH1 0x0 PUSH2 0x11D2 DUP3 PUSH2 0x1547 JUMP JUMPDEST PUSH2 0x11DC DUP2 DUP6 PUSH2 0x1570 JUMP JUMPDEST SWAP4 POP PUSH2 0x11EC DUP2 DUP6 PUSH1 0x20 DUP7 ADD PUSH2 0x16E1 JUMP JUMPDEST PUSH2 0x11F5 DUP2 PUSH2 0x18C4 JUMP JUMPDEST DUP5 ADD SWAP2 POP POP SWAP3 SWAP2 POP POP JUMP JUMPDEST PUSH1 0x0 PUSH2 0x120D PUSH1 0x13 DUP4 PUSH2 0x1570 JUMP JUMPDEST SWAP2 POP PUSH2 0x1218 DUP3 PUSH2 0x18D5 JUMP JUMPDEST PUSH1 0x20 DUP3 ADD SWAP1 POP SWAP2 SWAP1 POP JUMP JUMPDEST PUSH1 0x0 PUSH2 0x1230 PUSH1 0x20 DUP4 PUSH2 0x1570 JUMP JUMPDEST SWAP2 POP PUSH2 0x123B DUP3 PUSH2 0x18FE JUMP JUMPDEST PUSH1 0x20 DUP3 ADD SWAP1 POP SWAP2 SWAP1 POP JUMP JUMPDEST PUSH1 0x0 PUSH2 0x1253 PUSH1 0x15 DUP4 PUSH2 0x1570 JUMP JUMPDEST SWAP2 POP PUSH2 0x125E DUP3 PUSH2 0x1927 JUMP JUMPDEST PUSH1 0x20 DUP3 ADD SWAP1 POP SWAP2 SWAP1 POP JUMP JUMPDEST PUSH1 0x0 PUSH2 0x1276 PUSH1 0x1B DUP4 PUSH2 0x1570 JUMP JUMPDEST SWAP2 POP PUSH2 0x1281 DUP3 PUSH2 0x1950 JUMP JUMPDEST PUSH1 0x20 DUP3 ADD SWAP1 POP SWAP2 SWAP1 POP JUMP JUMPDEST PUSH1 0x0 PUSH2 0x1299 PUSH1 0x13 DUP4 PUSH2 0x1570 JUMP JUMPDEST SWAP2 POP PUSH2 0x12A4 DUP3 PUSH2 0x1979 JUMP JUMPDEST PUSH1 0x20 DUP3 ADD SWAP1 POP SWAP2 SWAP1 POP JUMP JUMPDEST PUSH1 0x0 PUSH2 0x12BC PUSH1 0x12 DUP4 PUSH2 0x1570 JUMP JUMPDEST SWAP2 POP PUSH2 0x12C7 DUP3 PUSH2 0x19A2 JUMP JUMPDEST PUSH1 0x20 DUP3 ADD SWAP1 POP SWAP2 SWAP1 POP JUMP JUMPDEST PUSH2 0x12DB DUP2 PUSH2 0x16C8 JUMP JUMPDEST DUP3 MSTORE POP POP JUMP JUMPDEST PUSH2 0x12EA DUP2 PUSH2 0x16C8 JUMP JUMPDEST DUP3 MSTORE POP POP JUMP JUMPDEST PUSH1 0x0 PUSH1 0x20 DUP3 ADD SWAP1 POP DUP2 DUP2 SUB PUSH1 0x0 DUP4 ADD MSTORE PUSH2 0x1309 DUP2 PUSH2 0x1200 JUMP JUMPDEST SWAP1 POP SWAP2 SWAP1 POP JUMP JUMPDEST PUSH1 0x0 PUSH1 0x20 DUP3 ADD SWAP1 POP DUP2 DUP2 SUB PUSH1 0x0 DUP4 ADD MSTORE PUSH2 0x1329 DUP2 PUSH2 0x1223 JUMP JUMPDEST SWAP1 POP SWAP2 SWAP1 POP JUMP JUMPDEST PUSH1 0x0 PUSH1 0x20 DUP3 ADD SWAP1 POP DUP2 DUP2 SUB PUSH1 0x0 DUP4 ADD MSTORE PUSH2 0x1349 DUP2 PUSH2 0x1246 JUMP JUMPDEST SWAP1 POP SWAP2 SWAP1 POP JUMP JUMPDEST PUSH1 0x0 PUSH1 0x20 DUP3 ADD SWAP1 POP DUP2 DUP2 SUB PUSH1 0x0 DUP4 ADD MSTORE PUSH2 0x1369 DUP2 PUSH2 0x1269 JUMP JUMPDEST SWAP1 POP SWAP2 SWAP1 POP JUMP JUMPDEST PUSH1 0x0 PUSH1 0x20 DUP3 ADD SWAP1 POP DUP2 DUP2 SUB PUSH1 0x0 DUP4 ADD MSTORE PUSH2 0x1389 DUP2 PUSH2 0x128C JUMP JUMPDEST SWAP1 POP SWAP2 SWAP1 POP JUMP JUMPDEST PUSH1 0x0 PUSH1 0x20 DUP3 ADD SWAP1 POP DUP2 DUP2 SUB PUSH1 0x0 DUP4 ADD MSTORE PUSH2 0x13A9 DUP2 PUSH2 0x12AF JUMP JUMPDEST SWAP1 POP SWAP2 SWAP1 POP JUMP JUMPDEST PUSH1 0x0 PUSH1 0xA0 DUP3 ADD SWAP1 POP PUSH2 0x13C5 PUSH1 0x0 DUP4 ADD DUP9 PUSH2 0x12E1 JUMP JUMPDEST DUP2 DUP2 SUB PUSH1 0x20 DUP4 ADD MSTORE PUSH2 0x13D7 DUP2 DUP8 PUSH2 0x11C7 JUMP JUMPDEST SWAP1 POP DUP2 DUP2 SUB PUSH1 0x40 DUP4 ADD MSTORE PUSH2 0x13EB DUP2 DUP7 PUSH2 0x11C7 JUMP JUMPDEST SWAP1 POP DUP2 DUP2 SUB PUSH1 0x60 DUP4 ADD MSTORE PUSH2 0x13FF DUP2 DUP6 PUSH2 0x11C7 JUMP JUMPDEST SWAP1 POP PUSH2 0x140E PUSH1 0x80 DUP4 ADD DUP5 PUSH2 0x115A JUMP JUMPDEST SWAP7 SWAP6 POP POP POP POP POP POP JUMP JUMPDEST PUSH1 0x0 PUSH1 0xE0 DUP3 ADD SWAP1 POP PUSH2 0x142D PUSH1 0x0 DUP4 ADD DUP11 PUSH2 0x12E1 JUMP JUMPDEST DUP2 DUP2 SUB PUSH1 0x20 DUP4 ADD MSTORE PUSH2 0x143F DUP2 DUP10 PUSH2 0x11C7 JUMP JUMPDEST SWAP1 POP DUP2 DUP2 SUB PUSH1 0x40 DUP4 ADD MSTORE PUSH2 0x1453 DUP2 DUP9 PUSH2 0x11C7 JUMP JUMPDEST SWAP1 POP DUP2 DUP2 SUB PUSH1 0x60 DUP4 ADD MSTORE PUSH2 0x1467 DUP2 DUP8 PUSH2 0x11C7 JUMP JUMPDEST SWAP1 POP PUSH2 0x1476 PUSH1 0x80 DUP4 ADD DUP7 PUSH2 0x115A JUMP JUMPDEST DUP2 DUP2 SUB PUSH1 0xA0 DUP4 ADD MSTORE PUSH2 0x1488 DUP2 DUP6 PUSH2 0x1169 JUMP JUMPDEST SWAP1 POP DUP2 DUP2 SUB PUSH1 0xC0 DUP4 ADD MSTORE PUSH2 0x149C DUP2 DUP5 PUSH2 0x1169 JUMP JUMPDEST SWAP1 POP SWAP9 SWAP8 POP POP POP POP POP POP POP POP JUMP JUMPDEST PUSH1 0x0 PUSH2 0x14B4 PUSH2 0x14C5 JUMP JUMPDEST SWAP1 POP PUSH2 0x14C0 DUP3 DUP3 PUSH2 0x1746 JUMP JUMPDEST SWAP2 SWAP1 POP JUMP JUMPDEST PUSH1 0x0 PUSH1 0x40 MLOAD SWAP1 POP SWAP1 JUMP JUMPDEST PUSH1 0x0 PUSH8 0xFFFFFFFFFFFFFFFF DUP3 GT ISZERO PUSH2 0x14EA JUMPI PUSH2 0x14E9 PUSH2 0x187C JUMP JUMPDEST JUMPDEST PUSH1 0x20 DUP3 MUL SWAP1 POP PUSH1 0x20 DUP2 ADD SWAP1 POP SWAP2 SWAP1 POP JUMP JUMPDEST PUSH1 0x0 PUSH8 0xFFFFFFFFFFFFFFFF DUP3 GT ISZERO PUSH2 0x1516 JUMPI PUSH2 0x1515 PUSH2 0x187C JUMP JUMPDEST JUMPDEST PUSH2 0x151F DUP3 PUSH2 0x18C4 JUMP JUMPDEST SWAP1 POP PUSH1 0x20 DUP2 ADD SWAP1 POP SWAP2 SWAP1 POP JUMP JUMPDEST PUSH1 0x0 DUP2 SWAP1 POP PUSH1 0x20 DUP3 ADD SWAP1 POP SWAP2 SWAP1 POP JUMP JUMPDEST PUSH1 0x0 DUP2 MLOAD SWAP1 POP SWAP2 SWAP1 POP JUMP JUMPDEST PUSH1 0x0 DUP2 MLOAD SWAP1 POP SWAP2 SWAP1 POP JUMP JUMPDEST PUSH1 0x0 PUSH1 0x20 DUP3 ADD SWAP1 POP SWAP2 SWAP1 POP JUMP JUMPDEST PUSH1 0x0 DUP3 DUP3 MSTORE PUSH1 0x20 DUP3 ADD SWAP1 POP SWAP3 SWAP2 POP POP JUMP JUMPDEST PUSH1 0x0 DUP3 DUP3 MSTORE PUSH1 0x20 DUP3 ADD SWAP1 POP SWAP3 SWAP2 POP POP JUMP JUMPDEST PUSH1 0x0 PUSH2 0x158C DUP3 PUSH2 0x16C8 JUMP JUMPDEST SWAP2 POP PUSH2 0x1597 DUP4 PUSH2 0x16C8 JUMP JUMPDEST SWAP3 POP DUP3 PUSH32 0xFFFFFFFFFFFFFFFFFFFFFFFFFFFFFFFFFFFFFFFFFFFFFFFFFFFFFFFFFFFFFFFF SUB DUP3 GT ISZERO PUSH2 0x15CC JUMPI PUSH2 0x15CB PUSH2 0x17C0 JUMP JUMPDEST JUMPDEST DUP3 DUP3 ADD SWAP1 POP SWAP3 SWAP2 POP POP JUMP JUMPDEST PUSH1 0x0 PUSH2 0x15E2 DUP3 PUSH2 0x16C8 JUMP JUMPDEST SWAP2 POP PUSH2 0x15ED DUP4 PUSH2 0x16C8 JUMP JUMPDEST SWAP3 POP DUP3 PUSH2 0x15FD JUMPI PUSH2 0x15FC PUSH2 0x17EF JUMP JUMPDEST JUMPDEST DUP3 DUP3 DIV SWAP1 POP SWAP3 SWAP2 POP POP JUMP JUMPDEST PUSH1 0x0 PUSH2 0x1613 DUP3 PUSH2 0x16C8 JUMP JUMPDEST SWAP2 POP PUSH2 0x161E DUP4 PUSH2 0x16C8 JUMP JUMPDEST SWAP3 POP DUP2 PUSH32 0xFFFFFFFFFFFFFFFFFFFFFFFFFFFFFFFFFFFFFFFFFFFFFFFFFFFFFFFFFFFFFFFF DIV DUP4 GT DUP3 ISZERO ISZERO AND ISZERO PUSH2 0x1657 JUMPI PUSH2 0x1656 PUSH2 0x17C0 JUMP JUMPDEST JUMPDEST DUP3 DUP3 MUL SWAP1 POP SWAP3 SWAP2 POP POP JUMP JUMPDEST PUSH1 0x0 PUSH2 0x166D DUP3 PUSH2 0x16C8 JUMP JUMPDEST SWAP2 POP PUSH2 0x1678 DUP4 PUSH2 0x16C8 JUMP JUMPDEST SWAP3 POP DUP3 DUP3 LT ISZERO PUSH2 0x168B JUMPI PUSH2 0x168A PUSH2 0x17C0 JUMP JUMPDEST JUMPDEST DUP3 DUP3 SUB SWAP1 POP SWAP3 SWAP2 POP POP JUMP JUMPDEST PUSH1 0x0 PUSH2 0x16A1 DUP3 PUSH2 0x16A8 JUMP JUMPDEST SWAP1 POP SWAP2 SWAP1 POP JUMP JUMPDEST PUSH1 0x0 PUSH20 0xFFFFFFFFFFFFFFFFFFFFFFFFFFFFFFFFFFFFFFFF DUP3 AND SWAP1 POP SWAP2 SWAP1 POP JUMP JUMPDEST PUSH1 0x0 DUP2 SWAP1 POP SWAP2 SWAP1 POP JUMP JUMPDEST DUP3 DUP2 DUP4 CALLDATACOPY PUSH1 0x0 DUP4 DUP4 ADD MSTORE POP POP POP JUMP JUMPDEST PUSH1 0x0 JUMPDEST DUP4 DUP2 LT ISZERO PUSH2 0x16FF JUMPI DUP1 DUP3 ADD MLOAD DUP2 DUP5 ADD MSTORE PUSH1 0x20 DUP2 ADD SWAP1 POP PUSH2 0x16E4 JUMP JUMPDEST DUP4 DUP2 GT ISZERO PUSH2 0x170E JUMPI PUSH1 0x0 DUP5 DUP5 ADD MSTORE JUMPDEST POP POP POP POP JUMP JUMPDEST PUSH1 0x0 PUSH1 0x2 DUP3 DIV SWAP1 POP PUSH1 0x1 DUP3 AND DUP1 PUSH2 0x172C JUMPI PUSH1 0x7F DUP3 AND SWAP2 POP JUMPDEST PUSH1 0x20 DUP3 LT DUP2 EQ ISZERO PUSH2 0x1740 JUMPI PUSH2 0x173F PUSH2 0x181E JUMP JUMPDEST JUMPDEST POP SWAP2 SWAP1 POP JUMP JUMPDEST PUSH2 0x174F DUP3 PUSH2 0x18C4 JUMP JUMPDEST DUP2 ADD DUP2 DUP2 LT PUSH8 0xFFFFFFFFFFFFFFFF DUP3 GT OR ISZERO PUSH2 0x176E JUMPI PUSH2 0x176D PUSH2 0x187C JUMP JUMPDEST JUMPDEST DUP1 PUSH1 0x40 MSTORE POP POP POP JUMP JUMPDEST PUSH1 0x0 PUSH2 0x1782 DUP3 PUSH2 0x16C8 JUMP JUMPDEST SWAP2 POP PUSH32 0xFFFFFFFFFFFFFFFFFFFFFFFFFFFFFFFFFFFFFFFFFFFFFFFFFFFFFFFFFFFFFFFF DUP3 EQ ISZERO PUSH2 0x17B5 JUMPI PUSH2 0x17B4 PUSH2 0x17C0 JUMP JUMPDEST JUMPDEST PUSH1 0x1 DUP3 ADD SWAP1 POP SWAP2 SWAP1 POP JUMP JUMPDEST PUSH32 0x4E487B7100000000000000000000000000000000000000000000000000000000 PUSH1 0x0 MSTORE PUSH1 0x11 PUSH1 0x4 MSTORE PUSH1 0x24 PUSH1 0x0 REVERT JUMPDEST PUSH32 0x4E487B7100000000000000000000000000000000000000000000000000000000 PUSH1 0x0 MSTORE PUSH1 0x12 PUSH1 0x4 MSTORE PUSH1 0x24 PUSH1 0x0 REVERT JUMPDEST PUSH32 0x4E487B7100000000000000000000000000000000000000000000000000000000 PUSH1 0x0 MSTORE PUSH1 0x22 PUSH1 0x4 MSTORE PUSH1 0x24 PUSH1 0x0 REVERT JUMPDEST PUSH32 0x4E487B7100000000000000000000000000000000000000000000000000000000 PUSH1 0x0 MSTORE PUSH1 0x32 PUSH1 0x4 MSTORE PUSH1 0x24 PUSH1 0x0 REVERT JUMPDEST PUSH32 0x4E487B7100000000000000000000000000000000000000000000000000000000 PUSH1 0x0 MSTORE PUSH1 0x41 PUSH1 0x4 MSTORE PUSH1 0x24 PUSH1 0x0 REVERT JUMPDEST PUSH1 0x0 DUP1 REVERT JUMPDEST PUSH1 0x0 DUP1 REVERT JUMPDEST PUSH1 0x0 DUP1 REVERT JUMPDEST PUSH1 0x0 DUP1 REVERT JUMPDEST PUSH1 0x0 DUP1 REVERT JUMPDEST PUSH1 0x0 PUSH1 0x1F NOT PUSH1 0x1F DUP4 ADD AND SWAP1 POP SWAP2 SWAP1 POP JUMP JUMPDEST PUSH32 0x55524C2063616E6E6F7420626520656D70747900000000000000000000000000 PUSH1 0x0 DUP3 ADD MSTORE POP JUMP JUMPDEST PUSH32 0x576569676874206D757374206265206265747765656E203020616E6420313030 PUSH1 0x0 DUP3 ADD MSTORE POP JUMP JUMPDEST PUSH32 0x5469746C652063616E6E6F7420626520656D7074790000000000000000000000 PUSH1 0x0 DUP3 ADD MSTORE POP JUMP JUMPDEST PUSH32 0x417574686F72206E616D652063616E6E6F7420626520656D7074790000000000 PUSH1 0x0 DUP3 ADD MSTORE POP JUMP JUMPDEST PUSH32 0x496E76616C6964206369746174696F6E20494400000000000000000000000000 PUSH1 0x0 DUP3 ADD MSTORE POP JUMP JUMPDEST PUSH32 0x496E76616C69642061727469636C652049440000000000000000000000000000 PUSH1 0x0 DUP3 ADD MSTORE POP JUMP JUMPDEST PUSH2 0x19D4 DUP2 PUSH2 0x16C8 JUMP JUMPDEST DUP2 EQ PUSH2 0x19DF JUMPI PUSH1 0x0 DUP1 REVERT JUMPDEST POP JUMP INVALID LOG2 PUSH5 0x6970667358 0x22 SLT KECCAK256 LOG2 SUB 0xE9 0xB4 0x1E 0xC9 PUSH1 0xA8 PUSH6 0x568EE202EB69 SWAP16 0xE3 0xF SWAP5 XOR 0x29 0x5C SIGNEXTEND 0x2A 0x5E REVERT 0xDE 0x28 0x2B SAR 0x1F DUP11 PUSH5 0x736F6C6343 STOP ADDMOD MOD STOP CALLER "
		},
		"gasEstimates": {
			"creation": {
				"codeDepositCost": "1336000",
				"executionCost": "1390",
				"totalCost": "1337390"
			},
			"external": {
				"articles(uint256)": "infinite",
				"createArticle(string,string,string,uint256[],uint256[])": "infinite",
				"getArticle(uint256)": "infinite"
			}
		},
		"methodIdentifiers": {
			"articles(uint256)": "edcfafe6",
			"createArticle(string,string,string,uint256[],uint256[])": "c8f3c5b5",
			"getArticle(uint256)": "bd85d867"
		}
	},
	"abi": [
		{
			"anonymous": false,
			"inputs": [
				{
					"indexed": false,
					"internalType": "uint256",
					"name": "id",
					"type": "uint256"
				},
				{
					"indexed": false,
					"internalType": "string",
					"name": "title",
					"type": "string"
				},
				{
					"indexed": false,
					"internalType": "string",
					"name": "url",
					"type": "string"
				},
				{
					"indexed": false,
					"internalType": "string",
					"name": "authorName",
					"type": "string"
				},
				{
					"indexed": false,
					"internalType": "address",
					"name": "authorAddress",
					"type": "address"
				},
				{
					"indexed": false,
					"internalType": "uint256[]",
					"name": "citations",
					"type": "uint256[]"
				},
				{
					"indexed": false,
					"internalType": "uint256[]",
					"name": "weights",
					"type": "uint256[]"
				}
			],
			"name": "ArticleCreated",
			"type": "event"
		},
		{
			"inputs": [
				{
					"internalType": "uint256",
					"name": "",
					"type": "uint256"
				}
			],
			"name": "articles",
			"outputs": [
				{
					"internalType": "uint256",
					"name": "id",
					"type": "uint256"
				},
				{
					"internalType": "string",
					"name": "title",
					"type": "string"
				},
				{
					"internalType": "string",
					"name": "url",
					"type": "string"
				},
				{
					"internalType": "string",
					"name": "authorName",
					"type": "string"
				},
				{
					"internalType": "address",
					"name": "authorAddress",
					"type": "address"
				}
			],
			"stateMutability": "view",
			"type": "function"
		},
		{
			"inputs": [
				{
					"internalType": "string",
					"name": "_title",
					"type": "string"
				},
				{
					"internalType": "string",
					"name": "_url",
					"type": "string"
				},
				{
					"internalType": "string",
					"name": "_authorName",
					"type": "string"
				},
				{
					"internalType": "uint256[]",
					"name": "_citations",
					"type": "uint256[]"
				},
				{
					"internalType": "uint256[]",
					"name": "_weights",
					"type": "uint256[]"
				}
			],
			"name": "createArticle",
			"outputs": [],
			"stateMutability": "nonpayable",
			"type": "function"
		},
		{
			"inputs": [
				{
					"internalType": "uint256",
					"name": "_id",
					"type": "uint256"
				}
			],
			"name": "getArticle",
			"outputs": [
				{
					"internalType": "uint256",
					"name": "id",
					"type": "uint256"
				},
				{
					"internalType": "string",
					"name": "title",
					"type": "string"
				},
				{
					"internalType": "string",
					"name": "url",
					"type": "string"
				},
				{
					"internalType": "string",
					"name": "authorName",
					"type": "string"
				},
				{
					"internalType": "address",
					"name": "authorAddress",
					"type": "address"
				},
				{
					"internalType": "uint256[]",
					"name": "citations",
					"type": "uint256[]"
				},
				{
					"internalType": "uint256[]",
					"name": "weights",
					"type": "uint256[]"
				}
			],
			"stateMutability": "view",
			"type": "function"
		}
	]
}